:020000040800F2
:10000000000001201914000875120008771200087A
:10001000791200087B1200087D1200080000000021
:100020000000000000000000000000007F12000837
:1000300081120008000000008312000885120008E9
:1000400061140008611400086114000861140008BC
:1000500061140008611400086114000861140008AC
:10006000611400086114000861140008611400089C
:1000700061140008611400088D1200089D12000828
:10008000611400086114000861140008611400087C
:10009000611400086114000861140008611400086C
:1000A000611400086114000861140008611400085C
:1000B000611400086114000861140008611400084C
:1000C000611400086114000861140008611400083C
:1000D000611400086114000861140008611400082C
:1000E000611400086114000861140008611400081C
:1000F000611400086114000861140008611400080C
:1001000061140008611400086114000861140008FB
:1001100061140008611400086114000861140008EB
:1001200061140008611400086114000861140008DB
:1001300000000000000000000000000000000000BF
:1001400000000000000000000000000000000000AF
:10015000000000000000000000000000000000009F
:10016000000000000000000000000000000000008F
:10017000000000000000000000000000000000007F
:10018000000000000000000000000000000000006F
:10019000000000000000000000000000000000005F
:1001A000000000000000000000000000000000004F
:1001B000000000000000000000000000000000003F
:1001C000000000000000000000000000000000002F
:1001D000000000000000000000000000000000001F
:0401E0005FF8E0F1F3
:1001E80010B5054C237833B9044B13B10448AFF369
:1001F80000800123237010BDB80900200000000012
:10020800B08B000808B5034B1BB103490348AFF393
:10021800008008BD00000000BC090020B08B000869
:10022800844641EA000313F0030349D1403A23D33B
:100238000B6803604B6843608B688360CB68C3605E
:100248000B6903614B6943618B698361CB69C36146
:100258000B6A03624B6A43628B6A8362CB6AC3622E
:100268000B6B03634B6B43638B6B8363CB6BC36316
:1002780040304031403ADBD230320BD30B68036058
:100288004B6843608B688360CB68C3601030103163
:10029800103AF3D20C3205D351F8043B40F8043B32
:1002A800043AF9D2043208D0D2071CBF11F8013B36
:1002B80000F8013B01D30B8803806046704700BFFC
:1002C800082A13D38B07B1D010F00303AED0C3F1C3
:1002D8000403D21ADB071CBF11F8013B00F8013BED
:1002E800A4D331F8023B20F8023B9FE7043AD9D364
:1002F800013A11F8013B00F8013BF9D20B78037081
:100308004B7843708B7883706046704781F000416A
:1003180002E000BF83F0004330B54FEA41044FEAE2
:10032800430594EA050F08BF90EA020F1FBF54EA7D
:10033800000C55EA020C7FEA645C7FEA655C00F019
:10034800E2804FEA5454D4EB5555B8BF6D420CDDEA
:100358002C4480EA020281EA030382EA000083EA6D
:10036800010180EA020281EA0303362D88BF30BD0D
:1003780011F0004F4FEA01314FF4801C4CEA113163
:1003880002D0404261EB410113F0004F4FEA0333C2
:100398004CEA133302D0524263EB430394EA050F4D
:1003A80000F0A780A4F10104D5F1200E0DDB02FABC
:1003B8000EFC22FA05F2801841F1000103FA0EF250
:1003C800801843FA05F359410EE0A5F120050EF116
:1003D800200E012A03FA0EFC28BF4CF0020C43FA47
:1003E80005F3C01851EBE37101F0004507D54FF054
:1003F800000EDCF1000C7EEB00006EEB0101B1F5A4
:10040800801F1BD3B1F5001F0CD349085FEA3000E9
:100418004FEA3C0C04F101044FEA445212F5800FF4
:1004280080F09A80BCF1004F08BF5FEA500C50F191
:10043800000041EB045141EA050130BD5FEA4C0C74
:10044800404141EB0101013C28BFB1F5801FE9D2D1
:1004580091F0000F04BF01460020B1FA81F308BFF4
:100468002033A3F10B03B3F120020CDA0C3208DDC0
:1004780002F1140CC2F10C0201FA0CF021FA02F19B
:100488000CE002F11402D8BFC2F1200C01FA02F10B
:1004980020FA0CFCDCBF41EA0C019040E41AA2BF30
:1004A80001EB0451294330BD6FEA04041F3C1CDAF8
:1004B8000C340EDC04F11404C4F1200220FA04F018
:1004C80001FA02F340EA030021FA04F345EA0301C2
:1004D80030BDC4F10C04C4F1200220FA02F001FA84
:1004E80004F340EA0300294630BD21FA04F0294606
:1004F80030BD94F0000F83F4801306BF81F480119F
:100508000134013D4EE77FEA645C18BF7FEA655C11
:1005180029D094EA050F08BF90EA020F05D054EAE3
:10052800000C04BF1946104630BD91EA030F1EBFE8
:100538000021002030BD5FEA545C05D140004941EC
:1005480028BF41F0004130BD14F580043CBF01F5DF
:10055800801130BD01F0004545F0FE4141F47001C5
:100568004FF0000030BD7FEA645C1ABF19461046A0
:100578007FEA655C1CBF0B46024650EA013406BFA1
:1005880052EA033591EA030F41F4002130BD00BF60
:1005980090F0000F04BF0021704730B54FF480641D
:1005A80004F132044FF000054FF0000150E700BF9E
:1005B80090F0000F04BF0021704730B54FF48064FD
:1005C80004F1320410F0004548BF40424FF00001EA
:1005D8003EE700BF42004FEAE2014FEA31014FEA2D
:1005E80002701FBF12F07F4393F07F4F81F060517C
:1005F800704732F07F4208BF704793F07F4F04BFC7
:1006080041F40021704730B54FF4607401F00045A3
:1006180021F000411CE700BF50EA010208BF704703
:1006280030B54FF000050AE050EA010208BF7047F4
:1006380030B511F0004502D5404261EB41014FF45D
:10064800806404F132045FEA915C3FF4D8AE4FF065
:1006580003025FEADC0C18BF03325FEADC0C18BF48
:10066800033202EBDC02C2F1200300FA03FC20FA99
:1006780002F001FA03FE40EA0E0021FA02F11444E6
:10068800BDE600BF70B54FF0FF0C4CF4E06C1CEAFF
:1006980011541DBF1CEA135594EA0C0F95EA0C0F70
:1006A80000F0DEF82C4481EA030621EA4C5123EAE3
:1006B8004C5350EA013518BF52EA033541F4801112
:1006C80043F4801338D0A0FB02CE4FF00005E1FBC5
:1006D80002E506F00042E0FB03E54FF00006E1FB0F
:1006E80003569CF0000F18BF4EF0010EA4F1FF0452
:1006F800B6F5007F64F5407404D25FEA4E0E6D4192
:1007080046EB060642EAC62141EA55514FEAC520A2
:1007180040EA5E504FEACE2EB4F1FD0C88BFBCF51E
:10072800E06F1ED8BEF1004F08BF5FEA500E50F1CF
:10073800000041EB045170BD06F0004646EA010195
:1007480040EA020081EA0301B4EB5C04C2BFD4EBC7
:100758000C0541EA045170BD41F480114FF0000EC0
:10076800013C00F3AB8014F1360FDEBF002001F02E
:10077800004170BDC4F10004203C35DA0C341BDCA8
:1007880004F11404C4F1200500FA05F320FA04F07A
:1007980001FA05F240EA020001F0004221F00041AE
:1007A80010EBD37021FA04F642EB06015EEA430E21
:1007B80008BF20EAD37070BDC4F10C04C4F1200551
:1007C80000FA04F320FA05F001FA04F240EA020004
:1007D80001F0004110EBD37041F100015EEA430ED5
:1007E80008BF20EAD37070BDC4F1200500FA05F2F5
:1007F8004EEA020E20FA04F301FA05F243EA020374
:1008080021FA04F001F0004121FA04F220EA020082
:1008180000EBD3705EEA430E08BF20EAD37070BDC8
:1008280094F0000F0FD101F00046400041EB0101A8
:1008380011F4801F08BF013CF7D041EA060195F08A
:10084800000F18BF704703F00046520043EB030344
:1008580013F4801F08BF013DF7D043EA0603704731
:1008680094EA0C0F0CEA135518BF95EA0C0F0CD03C
:1008780050EA410618BF52EA4306D1D181EA030182
:1008880001F000414FF0000070BD50EA410606BF7C
:100898001046194652EA430619D094EA0C0F02D1C1
:1008A80050EA013613D195EA0C0F05D152EA033606
:1008B8001CBF104619460AD181EA030101F0004124
:1008C80041F0FE4141F470014FF0000070BD41F06D
:1008D800FE4141F4780170BD70B54FF0FF0C4CF447
:1008E800E06C1CEA11541DBF1CEA135594EA0C0F66
:1008F80095EA0C0F00F0A7F8A4EB050481EA030EB3
:1009080052EA03354FEA013100F088804FEA033399
:100918004FF0805545EA131343EA12634FEA022267
:1009280045EA111545EA10654FEA00260EF0004128
:100938009D4208BF964244F1FD0404F5407402D27A
:100948005B084FEA3202B61A65EB03055B084FEA0B
:1009580032024FF480104FF4002CB6EB020E75EB08
:10096800030E22BFB61A754640EA0C005B084FEA30
:100978003202B6EB020E75EB030E22BFB61A7546AD
:1009880040EA5C005B084FEA3202B6EB020E75EBF8
:10099800030E22BFB61A754640EA9C005B084FEA70
:1009A8003202B6EB020E75EB030E22BFB61A75467D
:1009B80040EADC0055EA060E18D04FEA051545EA6C
:1009C80016754FEA06164FEAC30343EA52734FEA15
:1009D800C2025FEA1C1CC0D111F4801F0BD141EA8E
:1009E80000014FF000004FF0004CB6E711F4801FF3
:1009F80004BF01430020B4F1FD0C88BFBCF5E06FD3
:100A08003FF6AFAEB5EB030C04BFB6EB020C5FEAE2
:100A1800500C50F1000041EB045170BD0EF0004E37
:100A28004EEA113114EB5C04C2BFD4EB0C0541EA69
:100A3800045170BD41F480114FF0000E013C90E666
:100A480045EA060E8DE60CEA135594EA0C0F08BF2A
:100A580095EA0C0F3FF43BAF94EA0C0F0AD150EA29
:100A680001347FF434AF95EA0C0F7FF425AF1046BC
:100A780019462CE795EA0C0F06D152EA03353FF4E4
:100A8800FDAE1046194622E750EA410618BF52EA61
:100A980043067FF4C5AE50EA41047FF40DAF52EA35
:100AA80043057FF4EBAE12E74FF0FF3C06E000BFD2
:100AB8004FF0010C02E000BF4FF0010C4DF804CDDF
:100AC8004FEA410C7FEA6C5C4FEA430C18BF7FEA9F
:100AD8006C5C1BD001B050EA410C0CBF52EA430CCD
:100AE80091EA030F02BF90EA020F0020704710F14D
:100AF800000F91EA030F58BF994208BF90422CBFDC
:100B0800D8176FEAE37040F0010070474FEA410CD4
:100B18007FEA6C5C02D150EA013C07D14FEA430CF2
:100B28007FEA6C5CD6D152EA033CD3D05DF8040B63
:100B3800704700BF8446104662468C461946634695
:100B480000E000BF01B5FFF7B7FF002848BF10F16C
:100B5800000F01BD4DF808EDFFF7F4FF0CBF0120B1
:100B680000205DF808FB00BF4DF808EDFFF7EAFF2D
:100B780034BF012000205DF808FB00BF4DF808EDE8
:100B8800FFF7E0FF94BF012000205DF808FB00BFDD
:100B98004DF808EDFFF7CEFF94BF012000205DF867
:100BA80008FB00BF4DF808EDFFF7C4FF34BF012074
:100BB80000205DF808FB00BF4FEA410C7FEA6C5C3F
:100BC80002D150EA013C0AD14FEA430C7FEA6C5C3F
:100BD80002D152EA033C02D14FF0000070474FF0B7
:100BE800010070474FEA410212F5001215D211D5E3
:100BF8006FF47873B3EB625212D94FEAC12343F012
:100C0800004343EA505311F0004F23FA02F018BF93
:100C1800404270474FF00000704750EA013005D15C
:100C280011F0004008BF6FF0004070474FF000001F
:100C3800704700BF53B94AB9002908BF00281CBF34
:100C48004FF0FF314FF0FF3000F076B9ADF1080CEE
:100C58006DE904CE00F006F8DDF804E0DDE90223D2
:100C680004B070472DE9F047089E0D4604468846B3
:100C7800002B4DD18A42944668D9B2FA82F252B119
:100C880001FA02F3C2F1200120FA01F10CFA02FC88
:100C980041EA030894404FEA1C41B8FBF1F71FFAF8
:100CA8008CFE01FB178807FB0EF0230C43EA084370
:100CB80098420AD91CEB030307F1FF3580F01E8127
:100CC800984240F21B81023F63441B1AB3FBF1F0C8
:100CD80001FB103300FB0EFEA4B244EA0344A64510
:100CE8000AD91CEB040400F1FF3380F00981A64502
:100CF80040F20681644402380021A4EB0E0440EA65
:100D080007401EB10023D440C6E90043BDE8F08780
:100D18008B4208D9002E00F0EE800021C6E90005BC
:100D28000846BDE8F087B3FA83F100294AD1AB42FF
:100D380002D3824200F2FC80841A65EB030301208F
:100D48009846002EE2D0C6E90048DFE702B9FFDE88
:100D5800B2FA82F2002A40F09180A1EB0C00012146
:100D68004FEA1C471FFA8CFEB0FBF7F307FB130092
:100D7800250C45EA00450EFB03F0A84208D91CEBF8
:100D8800050503F1FF3802D2A84200F2CE8043469F
:100D98002D1AB5FBF7F007FB10550EFB00FEA4B2A9
:100DA80044EA0544A64508D91CEB040400F1FF35C4
:100DB80002D2A64500F2B6802846A4EB0E0440EA0B
:100DC80003409EE7C1F120078B4022FA07FC4CEA5A
:100DD800030C25FA07FA4FEA1C49BAFBF9F820FA7E
:100DE80007F309FB18AA8D401FFA8CFE1D4300FA71
:100DF80001F308FB0EF02C0C44EA0A44A04202FA64
:100E080001F20BD91CEB040408F1FF3A80F088804A
:100E1800A04240F28580A8F102086444241AB4FB79
:100E2800F9F009FB104400FB0EFEADB245EA04449C
:100E3800A64508D91CEB040400F1FF356CD2A64581
:100E48006AD90238644440EA0840A0FB0295A4EB42
:100E58000E04AC42C846AE4656D353D0002E69D0D5
:100E6800B3EB080264EB0E0422FA01F304FA07F765
:100E78001F43CC40C6E90074002147E70CFA02FC86
:100E8800C2F1200125FA01F34FEA1C4720FA01F1CB
:100E980095400D43B3FBF7F107FB11331FFA8CFEA6
:100EA800280C40EA034001FB0EF3834204FA02F4E3
:100EB80008D91CEB000001F1FF382FD283422DD94D
:100EC80002396044C01AB0FBF7F307FB1300ADB258
:100ED80045EA004503FB0EF0A84208D91CEB0505BE
:100EE80003F1FF3816D2A84214D9023B6544281AE8
:100EF80043EA014138E73146304607E72F46E4E642
:100F08001846F9E64B45A9D2B9EB020865EB0C0E79
:100F18000138A3E74346EAE7284694E74146D1E784
:100F2800D0467BE76444023847E7023B65442FE735
:100F3800084606E73146E9E6704700BF00B583B0CA
:100F48000E4B5A6942F001025A615B6903F00103D2
:100F58000193019B002211460E2000F0DBFA0E20BF
:100F680000F010FB002211460F2000F0D3FA0F20EA
:100F780000F008FB03B05DF804FB00BF001002405E
:100F880030B587B000240294039404940594144B5C
:100F98009A6942F008029A619A6902F0080200927E
:100FA800009A9A6942F004029A619B6903F004036B
:100FB8000193019B0B4D22464FF48051284600F0C7
:100FC80035FE4FF4805302930123039304940223C4
:100FD800059302A9284600F009FD07B030BD00BFFF
:100FE80000100240000C014000B583B001904FF69C
:100FF800FF73012201A9034801F0EDFC019803B039
:101008005DF804FBB80A002072B6FEE700B591B09F
:101018002822002106A801F075FD00230193029300
:10102800039304930593012206924FF480330793A8
:101038000A9202220D920E934FF4E0130F9306A822
:1010480000F010FE80B90F230193022102910023C2
:1010580003934FF480620492059301A801F042F8CB
:1010680020B911B05DF804FBFFF7CEFFFFF7CCFF06
:1010780070B582B000F018FAFFF7C8FFFFF780FFDD
:10108800FFF75CFF00F06EF900F044F81D4B1B6899
:10109800ADF804300DF106061B0C8DF806301A4821
:1010A80001F0E4FD194C012201A9204601F008FADB
:1010B80001220DF10501204601F002FA01220DF18D
:1010C8000501204601F0FCF901220DF10501204639
:1010D80001F0F6F901230DF103023146204601F033
:1010E8005FFA9DF803502D0201230DF103023146EA
:1010F800204601F055FA9DF803102943044801F0F1
:1011080053FDFEE7C88B0008CC8B00085C0A002062
:10111800D88B000808B50E480E4B03604FF4827355
:10112800436000238360C360036143614FF400722E
:1011380082610822C2610362436283620A23C36236
:1011480001F062F900B908BDFFF75EFFFBE700BFD9
:101158005C0A00200038004070B586B00023029376
:1011680003930493059302682E4B9A4201D006B06C
:1011780070BD044603F5EC33DA6942F48042DA6163
:10118800DA6902F480420092009A9A6942F00802F1
:101198009A619B6903F008030193019B4FF4204374
:1011A800029302230393032305931F4E02A930469B
:1011B80000F01CFC4FF4804302930025039504952E
:1011C80002A9304600F012FC1848194B036045602C
:1011D80085608023C360056145618561C56100F054
:1011E80009FAC0B9114BE3645C621248124B036000
:1011F80010234360002383608022C260036143613F
:1012080083614FF40053C36100F0F4F930B9094B1E
:10121800A3645C62ABE7FFF7F7FEE3E7FFF7F4FED2
:10122800F5E700BF00380040000C0140D409002059
:1012380044000240180A00205800024082B00A4BBD
:101248009A6942F001029A619A6902F001020092D9
:10125800009ADA6942F08052DA61DB6903F0805360
:101268000193019B02B0704700100240FEE7FEE7C1
:10127800FEE7FEE7FEE770477047704708B500F0E5
:1012880025F908BD08B5024800F03AFA08BD00BFC4
:10129800D409002008B5024800F032FA08BD00BFA2
:1012A800180A00200120704708B501F001FC162338
:1012B80003604FF0FF3008BD08B54FF0FF31FFF76E
:1012C800F3FFFEE770B50C461646002506E0AFF3BF
:1012D8000080214601F8010B01350C46B542F6DBCA
:1012E800304670BD70B50C461646002504E014F86B
:1012F800010BFFF779FE0135B542F8DB304670BDCA
:101308004FF0FF3070474FF400534B600020704798
:10131800012070470020704710B503460C4A0D495C
:101328000D48006840B10C4800680344521A9342C3
:1013380006D8094A136010BD0748084C0460F2E754
:1013480001F0B6FB0C2303604FF0FF30F3E700BF5A
:101358000000012000040000B40A0020480B00200F
:101368007047000008B50A480A4B03604FF4E133A0
:10137800436000238360C36003610C224261836180
:10138800C36101F0F9FA00B908BDFFF73DFEFBE7BC
:10139800B80A00200038014010B586B00023029337
:1013A8000393049305930268174B9A4201D006B041
:1013B80010BD03F558439A6942F480429A619A69CC
:1013C80002F480420092009A9A6942F004029A61FB
:1013D8009B6903F004030193019B4FF4007302938C
:1013E8000223039303230593084C02A9204600F027
:1013F800FDFA4FF48063029300230393049302A938
:10140800204600F0F3FAD2E7003801400008014016
:101418000C480D490D4A002302E0D458C450043347
:10142800C4188C42F9D30A4A0A4C002301E013601D
:101438000432A242FBD3FFF793FF01F03FFBFFF713
:1014480017FE704700000020B8090020249000080B
:10145800B8090020480B0020FEE7000010B504463C
:101468000E4B18784FF47A73B3FBF0F30C4A1068FC
:10147800B0FBF3F000F094F868B90F2C01D9012003
:101488000AE0002221464FF0FF3000F043F8054BF8
:101498001C60002000E0012010BD00BF04000020F7
:1014A800000000200800002008B5074A136843F030
:1014B80010031360032000F01BF80F20FFF7CEFF86
:1014C800FFF7BCFE002008BD00200240034A116857
:1014D800034B1B780B441360704700BFFC0A0020C5
:1014E80004000020014B1868704700BFFC0A002068
:1014F800074AD36823F4E0631B041B0C000200F4C2
:10150800E060034343F0BF6343F40033D3607047A4
:1015180000ED00E000B5194BDB68C3F30223C3F10B
:10152800070CBCF1040F28BF4FF0040C03F1040EA4
:10153800BEF1060F18D9033B4FF0FF3E0EFA0CFC24
:1015480021EA0C0199400EFA03F322EA0303194336
:1015580000280BDB0901C9B200F1604000F56140C9
:1015680080F800135DF804FB0023E5E700F00F00A6
:101578000901C9B2024B1954F4E700BF00ED00E0BD
:1015880014ED00E0002807DB00F01F0240090123EA
:101598009340024A42F82030704700BF00E100E063
:1015A8000138B0F1807F0BD24FF0E0235861054A33
:1015B800F02182F823100020986107221A617047F1
:1015C8000120704700ED00E030B40124056CAC4008
:1015D800C56B6C60046863604368102B05D00368B2
:1015E80099600368DA6030BC704703689A600368E2
:1015F800D960F8E700283AD010B4024600681D4BBD
:10160800984229D81C4B03441C49A1FB03131B090E
:101618009B0013641A4BD363022382F821300168BC
:1016280021F47F5121F03001536894682343D46832
:101638002343146923435469234394692343D46996
:1016480023430B43036000209063012382F8213079
:1016580082F8200010BC70470A4B03440749A1FBDD
:1016680003131B099B001364074BD363D4E70120C2
:10167800704700BF07040240F8FFFDBFCDCCCCCCBB
:1016880000000240F8FBFDBF0004024038B50446E4
:1016980090F82000012831D0012084F8200094F827
:1016A8002100012804D0002384F82030022038BD0E
:1016B800022084F821000020A0632568286820F013
:1016C800010028602046FFF77FFFE36A5BB12268CC
:1016D800136843F00E0313602268136843F0010394
:1016E80013600020E3E72268136823F00403136003
:1016F8002268136843F00A031360EDE70220D6E777
:1017080038B5C36B1A6804682568016C04238B40DC
:10171800134200F09B8015F0040F00F097802368B7
:1017280013F0200F03D1236823F004032360036818
:101738009A4A934246D9783A934224D01432934233
:1017480028D01432934227D01432934227D014322F
:10175800934227D01432934227D01432934227D091
:1017680002F56272934226D01432934225D0143285
:10177800934224D01432934202D04FF4802203E0E3
:101788004FF4804200E00422854B5A60C36A03B1DB
:10179800984738BD4022F7E74FF48062F4E74FF4EA
:1017A8008042F1E74FF48022EEE74FF48002EBE746
:1017B8004FF08062E8E70422E6E74022E4E74FF4CE
:1017C8008062E1E7774A934224D01432934225D0CD
:1017D8001432934224D01432934224D014329342C8
:1017E80024D01432934224D01432934224D002F5E8
:1017F8006272934223D01432934222D0143293421D
:1018080021D01432934202D04FF4802203E04FF4E7
:10181800804200E00422644B5A60B7E74022FAE7AE
:101828004FF48062F7E74FF48042F4E74FF48022E8
:10183800F1E74FF48002EEE74FF08062EBE7042215
:10184800E9E74022E7E74FF48062E4E702238B40B0
:10185800134200F0AB8015F0020F00F0A780236858
:1018680013F0200F06D1236823F00A032360012315
:1018780080F821300368494A93424BD9783A934219
:1018880024D0143293422DD0143293422CD01432E7
:1018980093422CD0143293422CD0143293422CD041
:1018A800143293422CD002F5627293422BD0143238
:1018B80093422AD01432934229D01432934202D050
:1018C8004FF4003203E04FF4005200E00222344BA0
:1018D8005A60002380F82030836A002B3FF459AF08
:1018E800984756E72022F2E74FF40072EFE74FF4EB
:1018F8000052ECE74FF40032E9E74FF40012E6E754
:101908004FF00072E3E70222E1E72022DFE74FF41D
:101918000072DCE7234A934224D01432934225D044
:101928001432934224D01432934224D01432934276
:1019380024D01432934224D01432934224D002F596
:101948006272934223D01432934222D014329342CB
:1019580021D01432934202D04FF4003203E04FF406
:10196800005200E00222104B5A60B2E72022FAE748
:101978004FF40072F7E74FF40052F4E74FF40032E7
:10198800F1E74FF40012EEE74FF00072EBE70222A6
:10199800E9E72022E7E74FF40072E4E7800002401D
:1019A800000402400800024000000240082303FA35
:1019B80001F111423FF4EDAE15F0080F3FF4E9AE26
:1019C800236823F00E032360026CC16B012303FA22
:1019D80002F24A60836380F82130002380F82030C7
:1019E800036B002B3FF4D5AE9847D2E670B582B0B2
:1019F8000024A446B0E0874DAA4210D007D9864DEE
:101A0800AA420CD005F58035AA4208D013E0A5F506
:101A18008015AA4203D005F57025AA4207D18A6825
:101A2800002A62D0012A5BD04361082403E0A5F5AF
:101A38008015AA42F3D0BEF1FF0F58D80646BEF172
:101A4800FF0F56D84FEA8C0233680F25954023EADA
:101A5800050304FA02F2134333604B6813F0805F06
:101A680078D06E4B9A6942F001029A619B6903F043
:101A780001030193019B4FEA9C02951C684B53F8A4
:101A880025600CF003039D000F23AB4026EA0306F4
:101A9800644B984233D003F58063984200F09880F5
:101AA80003F58063984200F0958003F580639842BF
:101AB80000F0928003F58063984200F08F8003F570
:101AC8008063984219D006231AE0CC68B3E7CC6843
:101AD8000434B0E7CC680834ADE7CC680C34AAE726
:101AE80003610824A7E70024A5E70424A3E7061D4B
:101AF800A5E7ACF108029200A6E7052300E0002361
:101B0800AB4033430232464D45F822304B6813F45C
:101B1800803F65D0444A136843EA0E0313604B685C
:101B280013F4003F62D0404A536843EA0E035360FF
:101B38004B6813F4801F5FD03B4A936843EA0E0357
:101B480093604B6813F4001F5CD0374AD36843EAAC
:101B58000E03D3600CF1010C0A6832FA0CF357D06B
:101B6800012303FA0CF302EA030E33EA0202F1D16D
:101B78004A68122A3FF63FAF122A3FF65CAF01A52A
:101B880055F822F0271A0008D31A0008DD1A0008B1
:101B9800EF1A00083F1A00083F1A00083F1A000809
:101BA8003F1A00083F1A00083F1A00083F1A0008A9
:101BB8003F1A00083F1A00083F1A00083F1A000899
:101BC8003F1A00083F1A0008D71A0008E31A00084D
:101BD800012395E7022393E7032391E704238FE783
:101BE800114A136823EA0E03136098E70E4A5368F4
:101BF80023EA0E0353609BE70B4A936823EA0E031C
:101C080093609EE7084AD36823EA0E03D360A1E7EE
:101C180002B070BD00002210000031100010024018
:101C28000000014000080140000401400AB10161C0
:101C3800704709040161704782B0084B1B68084A65
:101C4800A2FB03235B0A00FB03F3019300BF019B84
:101C58005A1E0192002BF9D102B0704700000020F3
:101C6800D34D6210002800F0F18170B582B00446AF
:101C7800036813F0010F2CD0994B5B6803F00C0339
:101C8800042B1DD0964B5B6803F00C03082B12D075
:101C98006368B3F5803F41D0002B55D103F18043F1
:101CA80003F504331A6822F480321A601A6822F4A1
:101CB80080221A6037E08A4B5B6813F4803FE7D0D4
:101CC800874B1B6813F4003F03D06368002B00F0B8
:101CD800BF81236813F0020F75D0814B5B6813F046
:101CE8000C0F5FD07E4B5B6803F00C03082B54D0BD
:101CF8002369002B00F08A807A4B01221A60FFF7D3
:101D0800F1FB0546764B1B6813F0020F75D1FFF700
:101D1800E9FB401B0228F5D903209EE1704A1368AD
:101D280043F480331360636843B3FFF7DBFB054676
:101D38006B4B1B6813F4003FCBD1FFF7D3FB401B61
:101D48006428F5D9032088E1B3F5A02F09D0644BA6
:101D58001A6822F480321A601A6822F480221A6003
:101D6800E1E703F18043A3F53C331A6842F480228B
:101D78001A601A6842F480321A60D4E7FFF7B2FB9F
:101D88000546574B1B6813F4003FA2D0FFF7AAFB88
:101D9800401B6428F5D903205FE1514B5B6813F4BD
:101DA800803FA5D14E4B1B6813F0020F03D0236967
:101DB800012B40F04F814A4A136823F0F803616908
:101DC80043EAC1031360236813F0080F33D0A369F3
:101DD800002B5CD0434B0122C3F88024FFF782FB21
:101DE80005463F4B5B6A13F0020F21D1FFF77AFBE0
:101DF800401B0228F5D903202FE1394A136823F044
:101E0800F803616943EAC1031360DCE7354B00223C
:101E18001A60FFF767FB0546314B1B6813F0020F8A
:101E2800D1D0FFF75FFB401B0228F5D9032014E14E
:101E38000120FFF701FF236813F0040F00F09680DC
:101E4800274BDB6913F0805F34D1254BDA6942F008
:101E58008052DA61DB6903F080530193019B01250D
:101E6800214B1B6813F4807F26D0E368012B3DD0FB
:101E7800002B53D103F1804303F504331A6A22F08F
:101E880001021A621A6A22F004021A6233E0154B40
:101E98000022C3F88024FFF725FB0546104B5B6A38
:101EA80013F0020FC7D0FFF71DFB401B0228F5D91E
:101EB8000320D2E00025D3E70B4A136843F480736C
:101EC8001360FFF70FFB0646074B1B6813F4807F70
:101ED800CBD1FFF707FB801B6428F5D90320BCE0B2
:101EE8000010024000004242007000405F4A136A3E
:101EF80043F001031362E36833B3FFF7F3FA0646CE
:101F08005A4B1B6A13F0020F2FD1FFF7EBFA801B15
:101F180041F288339842F3D903209EE0052B09D07B
:101F2800524B1A6A22F001021A621A6A22F004025B
:101F38001A62E0E74D4B1A6A42F004021A621A6A02
:101F480042F001021A62D6E7FFF7CCFA0646474B81
:101F58001B6A13F0020F08D0FFF7C4FA801B41F286
:101F680088339842F3D9032077E0E5B9E369002B79
:101F780072D03E4A526802F00C02082A56D0022B50
:101F880017D03B4B00221A66FFF7ACFA0446374BD2
:101F98001B6813F0007F47D0FFF7A4FA001B022844
:101FA800F5D9032059E0314AD36923F08053D3612E
:101FB800DCE72F4B00221A66FFF794FA05462B4BF5
:101FC8001B6813F0007F06D0FFF78CFA401B02282D
:101FD800F5D9032041E0236AB3F5803F1AD023499D
:101FE8004B6823F47413226A606A024313434B60FC
:101FF8001F4B01221A66FFF775FA04461B4B1B6834
:1020080013F0007F0ED1FFF76DFA001B0228F5D9F7
:10201800032022E0154A536823F40033A1680B43D8
:102028005360DCE7002018E0002016E0012B16D0F2
:102038000E4B5B6803F48031226A914211D103F49C
:102048007013626A93420ED1002006E001207047A7
:10205800012002E0012000E0002002B070BD012054
:10206800FBE70120F9E70120F7E700BF0010024075
:102078000000424286B0174B0FCB0DF1180C0CE94B
:102088000F0040F20123ADF80430134B5B6803F0F6
:102098000C02082A02D0114806B07047C3F38342E5
:1020A80018326A4412F8100C13F4803F0DD00A4B12
:1020B8005B68C3F3404318336B4413F8143C074A76
:1020C80002FB00F0B0FBF3F0E6E7054B03FB00F082
:1020D800E2E700BFFC8B00080010024000127A0003
:1020E80000093D00002800F0A08070B50D460446A8
:1020F800524B1B6803F007038B420BD24F4A1368FD
:1021080023F007030B431360136803F007038B42A4
:1021180040F08D80236813F0020F17D013F0040FDE
:1021280004D0474A536843F4E0635360236813F0CC
:10213800080F04D0424A536843F460535360404A3E
:10214800536823F0F003A1680B435360236813F02E
:10215800010F31D06368012B20D0022B25D0384ADB
:10216800126812F0020F64D035494A6822F003025F
:1021780013434B60FFF7B6F90646314B5B6803F033
:102188000C036268B3EB820F16D0FFF7ABF9801B24
:1021980041F288339842F0D9032045E0284A126872
:1021A80012F4003FE0D101203EE0254A126812F007
:1021B800007FD9D1012037E0204B1B6803F00703CB
:1021C800AB420AD91D4A136823F007032B43136057
:1021D800136803F00703AB422DD1236813F0040FF3
:1021E80006D0174A536823F4E063E1680B43536051
:1021F800236813F0080F07D0114A536823F460537B
:10220800216943EAC1035360FFF734FF0C4B5B6855
:10221800C3F303130B4AD35CD8400B4B18600B4B2A
:102228001868FFF71BF9002070BD012070470120D6
:10223800FAE70120F8E70120F6E700BF0020024096
:1022480000100240E48B0008000000200800002075
:10225800014B1868704700BF0000002008B5FFF761
:10226800F7FF044B5B68C3F30223034AD35CD840EF
:1022780008BD00BF00100240F48B000808B5FFF746
:10228800E7FF044B5B68C3F3C223034AD35CD8401F
:1022980008BD00BF00100240F48B00082DE9F0478C
:1022A80082B00546884617461E46FFF71BF90A9B6B
:1022B8001B1A03EB0609FFF715F982462B4B1B681F
:1022C800C3F3CB3309FB03F301932B689C6838EA0B
:1022D80004030CBF4FF0010C4FF0000CBC4540D07C
:1022E800B6F1FF3FF1D0FFF7FDF8A0EB0A00484533
:1022F8000AD2B9F1000F07D0019A02B14A46019BF0
:10230800013B01939146E0E72A68536823F0E00314
:1023180053606B68B3F5827F0BD0AB6AB3F5005F8F
:1023280014D0012385F85130002385F8503003205C
:1023380018E0AB68B3F5004F02D0B3F5806FECD16D
:102348002A68136823F040031360E6E72A681368D5
:1023580023F4005313602A68136843F4005313608E
:10236800DFE7002002B0BDE8F08700BF00000020D2
:1023780010B582B004460B46009200228021FFF778
:102388008DFF08B902B010BD636D43F0200363658B
:102398000320F7E710B582B004460B464168B1F553
:1023A800827F10D06168B1F5827F03D1A168B1F551
:1023B800806F15D00092002280212046FFF76EFF23
:1023C800E0B902B010BD8168B1F5004F02D0B1F597
:1023D800806FE7D12068016821F040010160E1E7E2
:1023E8000092002201212046FFF758FF0028E8D07C
:1023F800636D43F0200363650320E2E7636D43F0F8
:10240800200363650320DCE7002856D010B5044696
:10241800436A33B94368B3F5827F05D00023C361AB
:1024280002E00023036143610023A36294F8513062
:10243800002B3CD0022384F851302268136823F023
:1024480040031360636803F48273A26802F40442D1
:102458001343E26802F400621343226902F00202A5
:102468001343626902F001021343A26902F4007285
:102478001343E26902F038021343226A02F0800231
:102488001343A26A02F40052216813430B60638B62
:10249800226803F0040353602268D36923F40063BD
:1024A800D36100206065012384F8513010BD84F8A1
:1024B80050302046FEF750FEBCE701207047000070
:1024C80038B590F85030012B61D00446012380F8CC
:1024D800503090F85150EDB29D4252D1002951D060
:1024E800002A4FD0032380F851300023436501634D
:1024F8008286C2868363436403648387C387836851
:10250800B3F5004F2AD0A36C224ADA62A36C224AA0
:102518009A62A36C214A1A63A36C00225A63226848
:10252800E38E9BB20C32216BA06CFFF7AFF801462B
:10253800F8B923681A6812F0400F03D11A6842F0FC
:1025480040021A602268536843F0200353602268EF
:10255800536843F0020353600D4613E002681368A2
:1025680023F0400313600268136843F48043136048
:10257800C9E7636D43F010036365012384F85130A4
:1025880000E00225002384F85030284638BD022593
:10259800FBE700BF01270008472700082527000898
:1025A80038B5044690F85000012800F094800120C6
:1025B80084F8500094F85100C0B26568012807D02B
:1025C800B5F5827F78D1A568002D7AD104287AD113
:1025D80000297AD0002A7AD0002B7AD094F85100BA
:1025E800C0B2042802D0052084F85100002060659C
:1025F8002163A386E386A263A387E38720646064DC
:1026080094F85130DBB2042B1CD0E36C334ADA6205
:10261800E36C334A9A62E36C324A1A63E36C002231
:102628005A632168E38F9BB2A26B0C31E06CFFF711
:102638002DF870B1636D43F010036365012084F8D1
:1026480051003AE0E36C284ADA62E36C274A9A625E
:10265800E1E72268536843F001035360A26C00234A
:10266800D362A26C9362A26C1363A26C5363226858
:10267800E38E9BB20C32216BA06CFFF707F898B978
:1026880023681A6812F0400F03D11A6842F040021A
:102698001A602268536843F0200353602268536825
:1026A80043F00203536008E0636D43F01003636571
:1026B800012084F8510000E00220002384F8503003
:1026C80038BD0220F9E70220F7E70120F5E70120ED
:1026D800F3E70120F1E70220F2E700BF192700081D
:1026E80025280008252700080D270008B727000817
:1026F800704770477047704708B5406AFFF7FBFF9F
:1027080008BD704708B5406AFFF7FBFF08BD704772
:1027180008B5406AFFF7FBFF08BD704708B5406A77
:102728000268536823F003035360436D43F01003BA
:102738004365012380F85130FFF7EFFF08BD30B53E
:1027480083B00546446AFEF7CDFE2B681B6813F07C
:10275800200F23D1024621684B6823F020034B60E9
:1027680021684B6823F002034B6064212046FFF781
:10277800FFFD18B1636D43F020036365A36833B9A7
:1027880001932368DA6801929B680193019B0023F7
:10279800E386012384F85130636D23B92046FFF79F
:1027A800A7FF03B030BD2046FFF7B7FFF9E738B5FC
:1027B8000546446AFEF796FE2B681B6813F0200F47
:1027C8001ED1024621684B6823F020034B60A368A2
:1027D8001BB96368B3F5827F16D021684B6823F074
:1027E80001034B6064212046FFF7D4FD08B1202384
:1027F80063650023E387012384F85130636D4BB987
:102808002046FFF776FF38BD21684B6823F00303A5
:102818004B60E7E72046FFF780FFF4E738B5054649
:10282800446AFEF75FFE2B681B6813F0200F1BD16C
:10283800024621684B6823F020034B606421204640
:10284800FFF796FD18B1636D43F0200363652268B6
:10285800536823F0030353600023E386E3870123CF
:1028680084F85130636D1BB92046FFF743FF38BD2C
:102878002046FFF752FFFAE710B5044602681369CD
:1028880023F44053C1680B431361836802691343FF
:1028980042691A430168CB6823F4B05323F00C0350
:1028A8001343CB600268536923F4407381690B4377
:1028B80053610268134B9A4220D0FFF7CFFC0246BF
:1028C80002EB820202EB820263689B00B2FBF3F226
:1028D8000D48A0FB02314909642303FB11231B01A6
:1028E8003233A0FB03235B0903F0F00202EB011271
:1028F80003F00F03216813448B6010BDFFF7BEFC83
:102908000246DDE7003801401F85EB512DE9F84309
:1029180005460F4616469946DDF820802C6824683F
:1029280037EA04030CBF4FF0010C4FF0000CB4451C
:102938001FD1B8F1FF3FF1D0B8F1000F05D0FEF775
:10294800D1FDA0EB09004045E8D92A68D36823F4F3
:10295800D073D3602A68536923F00103536120239D
:1029680085F83D3085F83E30002385F83C3003205B
:1029780000E00020BDE8F88358B310B5044690F88D
:102988003D300BB3242384F83D302268D36823F408
:102998000053D3602046FFF76FFF2268136923F4C2
:1029A800904313612268536923F02A035361226814
:1029B800D36843F40053D36000202064202384F8B4
:1029C8003D3084F83E3010BD80F83C30FEF7E4FC22
:1029D800D8E7012070472DE9F04182B01E4690F8F3
:1029E8003D30DBB2202B54D104460D4690460029D9
:1029F80053D0002A53D090F83C30012B51D00123FA
:102A080080F83C3000230364212380F83D30FEF732
:102A180069FD0746A4F82480A4F82680A368B3F5C6
:102A2800805F05D04FF00008002384F83C3012E0A6
:102A3800236913B14FF00008F6E7A8460025F3E72D
:102A480038F8023B2268C3F308035360E28C92B261
:102A5800013A92B2E284E38C9BB273B100963B4692
:102A6800002280212046FFF751FFE0B9002DE7D072
:102A780015F8012B23685A60E8E700963B460022C8
:102A880040212046FFF742FF78B9202384F83D30E3
:102A980000E0022002B0BDE8F0810120FAE7012041
:102AA800F8E70220F6E70320F4E70320F2E7000046
:102AB800014B1868704700BF0C00002070B50D4E20
:102AC8000D4D761BB61006D0002455F8043B013492
:102AD8009847A642F9D1094E094D06F065F8761BCC
:102AE800B61006D0002455F8043B01349847A64296
:102AF800F9D170BD189000081890000820900008BF
:102B080018900008830730B548D0541E002A3FD0DB
:102B18000346CAB201E0013C3AD303F8012B9D07F2
:102B2800F9D1032C2DD9CDB245EA05250F2C45EA5C
:102B3800054536D9A4F1100222F00F0C03F1200E3E
:102B4800E6444FEA121C03F1100242E9045542E937
:102B5800025510327245F8D10CF1010214F00C0F35
:102B680003EB021204F00F0C13D0ACF1040323F0B2
:102B780003030433134442F8045B9342FBD10CF083
:102B880003042CB1CAB21C4403F8012B9C42FBD1AC
:102B980030BD64461346002CF4D1F9E703461446C9
:102BA800BFE71A46A446E0E70FB400B5074A83B06A
:102BB80004AB106853F8042B8168019300F08CF87B
:102BC80003B05DF804EB04B0704700BF0C000020B0
:102BD80030B5054689B008460C4600F04FF801218B
:102BE8000223214A04940692AA6B04AC0590084477
:102BF80001940791AC680293039022B3636E13F0BB
:102C0800010FB4F90C309AB201D1980525D5910479
:102C180006D4626E43F4005322F40052A381626624
:102C2800284601AA214603F07BF9636E002814BFE9
:102C38004FF0FF350A25DA0702D4A3899B0506D58C
:102C4800284609B030BD284602F072FFD6E7A06DCD
:102C580003F00CFB284609B030BDA06D03F004FB5F
:102C6800B4F90C309AB2D2E7148C0008024B014632
:102C78001868FFF7ADBF00BF0C00002020F003016B
:102C880010F00300C0F1000051F8043B00F1040CFF
:102C98004FEACC0C6FF000021CBF22FA0CF213436F
:102CA8004FF0010C4CEA0C2C4CEA0C4CA3EB0C0238
:102CB80022EA030212EACC1204BF51F8043B0430A2
:102CC800F4D0C2F1000102EA0102B2FA82F2C2F1C2
:102CD8001F0200EBD20070472DE9F04FD5B01C461B
:102CE800914607910546099003F0B6FA02680E94DA
:102CF80010461792FFF7C2FF16901DB1AB6B002B61
:102D080000F01D82079A536EDD0740F12D81B2F95C
:102D18000C2091B28F0409D4079B42F400529A8187
:102D280091B21A465B6E23F4005353660E0740F1C6
:102D3800C080079B1B69002B00F0BB8001F01A03C1
:102D48000A2B00F0C48000242BAB224698464D463F
:102D5800CDE929442893129400230024CDE91434A2
:102D68002B78CDE91922CDE91B2218920B92002B62
:102D780000F08F81AA4604E01AF8013F002B00F00A
:102D8800BB80252BF8D1BAEB050640F0B9809AF83C
:102D98000030002B00F07D8100234FF0FF324FF010
:102DA8002B0920241F469AF8016008920AF1010AAB
:102DB8008DF883300A930AF1010AA6F120035A2BF1
:102DC80000F2E180DFE813F00503DF00DF00000315
:102DD800DF00DF00DF00DE02DF00DF006A006E02D6
:102DE800DF0055027802DF0073025B005B005B00C6
:102DF8005B005B005B005B005B005B00DF00DF00EB
:102E0800DF00DF00DF00DF00DF006C01DF00EA0128
:102E1800C4016C016C016C01DF00DF00DF00DF0022
:102E2800D002DF00DF002302DF00DF00DF00F8014F
:102E3800DF009202DF00DF008707DF00DF00DF002E
:102E4800DF00DF00DF00DF00DF006C01DF00EA01E8
:102E5800C6016C016C016C01B602C601BF01DF003E
:102E6800C302DF005A022502A402BF01DF00F801F5
:102E780072008407DF00DF006507DF0072000022B0
:102E8800A6F130031AF8016B02EB820203EB42024F
:102E9800A6F13003092BF5D90A928EE70E9B53F859
:102EA800042B002A0A920E93C0F2E0819AF800607F
:102EB80081E7079D0998294601F0FCFC002841F0AC
:102EC8004D83A98901F01A030A2B7FF43CAF079AB6
:102ED800B2F90E30002BFFF636AF536ED80702D486
:102EE800890541F1488123464A460799099855B012
:102EF800BDE8F04F01F09CBCBAEB050600F0C980B4
:102F08002A9BC8E9005633442A93299B0133072B8F
:102F1800299305DC08F108080B9B33440B9336E72B
:102F28000799099828AA04F021FC80B90DF1AC088A
:102F3800F2E70799099828AA04F018FC002800F07D
:102F480099800D9B1BB11946099802F0E9FE079A72
:102F5800536ED90740F1E88093895B0601F10A8333
:102F68000B9855B0BDE8F08F079BB3F90C2090057E
:102F780091B23FF5CFAE1D46986D03F075F9B5F9DE
:102F88000C2091B2C6E6002E00F0838001230022B7
:102F98008DF8EC6006933BAD8DF883200C930D9271
:102FA80008920F921392109217F0020302D006991A
:102FB8000231069117F0840B07D10A990698A1EB04
:102FC8000009B9F1000F00F390832A9C82B1012215
:102FD800C8F80420299A013401320DF18301072A27
:102FE8002A942992C8F8001000F3D88308F1080839
:102FF8007BB10223C8F80430299B0234013321AA8B
:10300800072B2A942993C8F8002000F3D58308F1E8
:103018000808BBF1800F00F08882089B0C9AA3EB8C
:10302800020BBBF1000F00F3CB82FB0500F11F82FE
:103038000C9BC8F800501C44C8F80430299B2A94FB
:103048000133072B299300F3448308F10808780714
:1030580005D50A9B069A9D1A002D00F3B983DDE970
:103068000A2306998A42ACBF9B185B180B93002C65
:103078007FF45FAF002329930D9B1BB10D9909982D
:1030880002F04EFE55460DF1AC082B78002B7FF46C
:1030980071AE2A9B002B41F010820023299356E73A
:1030A8000E9B073323F00702F2E80234CDE914340B
:1030B800DDE9143424F00044994618460E9221465E
:1030C8004FF0FF32AB4BFDF777FD002840F0188535
:1030D800484621464FF0FF32A64BFDF74FFD00282A
:1030E80040F00E85DDE9140100220023FDF73CFDC8
:1030F800002840F065879DF88320002103209E4D1D
:103108009E4B27F080070D910690472EC8BF1D469D
:1031180008910C900F9113911091002A3FF444AF3D
:10312800069B013306933FE7079B9B899A053FF56A
:1031380014AF079CA06D03F099F8A3890DE70998CF
:1031480002F0F6FCDEE59AF8006047F0200732E668
:1031580047F01007BA060E9B40F16E84073323F040
:1031680007031A465B6852F8084B99460E92002BE3
:10317800C0F26F84089B013300F0FB8254EA090314
:1031880027F0800B40F0F682089B002B40F0F78276
:103198005F46002354AD08930C933DE101200022C3
:1031A8000E9B069053F8041B3BAD8DF883208DF8D9
:1031B800EC100E930C90F2E64FF000090E9C089B61
:1031C80054F8045B8DF88390002D00F0A1855A1CFB
:1031D80000F0A5861A464946284603F065FB0D907F
:1031E800002801F050810D9B9DF883205B1B0C93F8
:1031F80023EAE373CDF820900E940693CDF834902B
:10320800CDF83C90CDF84C90CDF8409085E747F04C
:10321800100717F0200900F0F2830E9B073323F004
:103228000703D3F8049053F8084B0E93002327F4B0
:10323800806B00228DF88320089A511C00F0D480FE
:1032480054EA09012BF0800740F0CD80002A40F0B5
:103258000486002B9DD11BF001030C9300F03084F1
:1032680030230DF24F158DF84F31D5E00A9B5B42A4
:103278000A939AF8006047F004079CE5BD0600F140
:10328800FD84FC0600F1EE85780600F1B286B905EA
:1032980040F1E8850E9B0B9953F8042B55461170A5
:1032A8000E93F2E69AF800608DF8839083E59AF819
:1032B800006047F080077EE5524612F8016B2A2E1F
:1032C80001F08D82A6F13003092B924698BF0022A7
:1032D80001F2E5801AF8016B02EB820203EB42026D
:1032E800A6F13003092BF5D9089266E547F0100BD3
:1032F8001BF0200900F091830E9B073323F007038E
:103308001A4652F8084BD3F804900E92012390E71E
:10331800302278260E9B8DF8842053F8044B184AE7
:103328000E934FF00009022347F0020B8DF88560D9
:1033380018927EE79AF80060682E03BF9AF8016039
:1033480047F400770AF1010A47F0400733E59AF895
:1033580000606C2E03BF9AF8016047F020070AF15D
:10336800010A47F0100726E59AF8006047F00807B9
:1033780021E500BFFFFFEF7F188C00081C8C0008B8
:10338800288C0008099E304602F066FF43681846FC
:103398001B93FFF773FC034630461C931E4602F04E
:1033A8005BFF83681993002E3FF480AD199B002BB7
:1033B8003FF47CAD199B1B78002B3FF477AD9AF84E
:1033C800006047F48067F6E49AF8006047F0010768
:1033D800F1E49DF88330002B7FF468AD9AF8006023
:1033E8008DF88340E7E4BB46012B00F0C381022B34
:1033F80054AD1FD1189A04F00F03D35C240944EA92
:1034080009744FEA191905F8013D54EA0903F2D184
:103418005F4654AB5B1B0C93089A0C9900238A42B5
:10342800B8BF0A460D9306920F939DF88320139315
:10343800109372E604F00703E40844EA49744FEA7B
:10344800D909303354EA09012A4605F8013DF1D17A
:103458001BF0010FDCD0302BDAD03023023A05F80C
:10346800013C54AB9B1A5F4615460C93D4E7652E76
:1034780040F3E980DDE9140100220023FDF76AFB2F
:10348800002800F0E1810123C8F80430299BC04AD4
:1034980001330134072B2A942993C8F8002000F33C
:1034A800BF8408F10808229B129A934280F2DC82BA
:1034B800169B179A1C44C8E90023299B2A940133B8
:1034C800072B299300F3178408F10808129B5D1E47
:1034D800002D7FF7BCAD102D41F35D81DFF8B4926C
:1034E800224649461026B946299B0F46DDF824B0E6
:1034F800079C05E008F10808103D102D40F39D8455
:1035080001331032072BC8E90076CDE92932F1DD05
:103518002146584628AA04F029F900287FF411AD5D
:10352800DDE929320DF1AC08E6E70A9B069AA3EB20
:10353800020BBBF1000F7FF770ADBBF1100F41F329
:103548005280DFF8509241462046A8464C46102348
:10355800299A079DDDF8249006E0ABF1100BBBF12A
:10356800100F01F1080119DD01321030072AC1E9F5
:103578000043CDE92920F0DD2946484628AA04F071
:10358800F5F800287FF4DDACDDE92920ABF1100B5C
:10359800BBF1100F4FF010032BA9E5DC4546A146FF
:1035A8008846044601325C44072ACDE92924C8F834
:1035B8000090C8F804B000F3918308F108082CE5DE
:1035C800BBF1100F40F3E384DFF8C8914146204671
:1035D800A8464C461023299A079DDDF8249006E05A
:1035E800ABF1100BBBF1100F01F1080119DD01322D
:1035F8001030072AC1E90043CDE92920F0DD29462A
:10360800484628AA04F0B2F800287FF49AACDDE90D
:103618002920ABF1100BBBF1100F4FF010032BA9B1
:10362800E5DC4546A1468846044601325C44072A43
:10363800CDE92924C8F80090C8F804B000F3D28175
:1036480008F10808F1E4129B012B40F38281012361
:10365800299E01341E44072EC8F800502A94C8F841
:103668000430299600F36C8308F10808169B01368C
:10367800179A1C44072EC8E90023CDE9296400F3F2
:103688006C8308F108080022DDE914010023FDF726
:1036980061FA002840F07A81129B0136013B01351E
:1036A8001C44072EC8F800502996C8F804302A94FC
:1036B80000F35F8108F108081A9B01361C44C8F81A
:1036C8000430072E24ABCDE92964C8F800307FF711
:1036D800BCAC0799099828AA04F048F800287FF498
:1036E80030AC2A9C0DF1AC08B1E4B9F1100F40F3ED
:1036F800C686DDE929214046CDE91D36B8461024A5
:103708004F46079EA946099D04E0103F102F00F17F
:10371800080016DD0132204B1031072AC0E90034B9
:10372800CDE92921F1DD3146284628AA04F01EF802
:1037380000287FF406ACDDE92921103F102F2BA8C3
:10374800E8DC4D46DDE91D36B9464746804609EBBB
:10375800010401321049072ACDE92924C8F8049048
:10376800C8F8001000F340839DF8832008F108088A
:103778002CE4BB460A2C79F1000380F0FB8201237C
:1037880030345F468DF84F410C930DF24F1543E6E8
:10379800588C00086C8C00085C8C00080799099804
:1037A80028AA1D9303F0E2FF00287FF4CAAB2A9CE5
:1037B8001D9B0DF1AC081BE40799099828AA03F092
:1037C800D5FF00287FF4BDAB2A9C0DF1AC0820E49E
:1037D800102D40F3BE861026299B099FDDF81C900A
:1037E80004E0103D102D08F1080817DD0133BA4A2E
:1037F8001034072BC8E90026CDE92934F1DD494604
:10380800384628AA03F0B2FF00287FF49AABDDE916
:103818002934103D102D0DF1AC08E7DC0133AE4A18
:103828002C44072BCDE92934C8F80450C8F80020E7
:103838007FF715AC0799099828AA03F097FF002885
:103848007FF47FAB2A9C0AE42299002940F3108177
:10385800DDF84090129B9945A8BF9946B9F1000F31
:103868000BDD299B4C440133072BC8E900592A94E6
:10387800299300F3818508F10808109EB9F1000F1B
:10388800A8BFA6EB0906002E00F3F582DDF840B0CC
:103898007905AB4400F1AC84229B129A934202DB77
:1038A800FA0740F19283169A17991444C8E900124E
:1038B800299A2A940132072A299200F3A88508F147
:1038C8000808129AAE18A6EB0B06D51AAE42A8BF86
:1038D8002E46002E0DDD299B34440133072BC8F8F2
:1038E80000B0C8F804602A94299300F3FC8508F115
:1038F8000808002EA8BFAD1B002D7FF7A8AB102D20
:1039080040F34987DFF8D491224649461026B94644
:10391800299B0F46DDF824B0079C05E008F108084C
:10392800103D102D40F3898201331032072BC8E96E
:103938000076CDE92932F1DD2146584628AA03F060
:1039480015FF00287FF4FDAADDE929320DF1AC0846
:10395800E6E7FE073FF57BAE0123299E01341E44AE
:10396800072EC8F800502A94C8F8043029967FF723
:10397800A1AE0799099828AA03F0F8FE00287FF459
:10398800E0AADDE929640DF1AC0895E6129B5D1EFD
:10399800002D7FF791AE102D40F319872246089726
:1039A8004FF0100BDFF83491099C079F05E008F1F0
:1039B8000808103D102D40F3C78201361032072E3B
:1039C800C8E9009BCDE92962F1DD3946204628AADD
:1039D80003F0CCFE00287FF4B4AADDE929620DF1DA
:1039E800AC08E6E70799099828AA03F0BFFE002863
:1039F8007FF4A7AA2A9C0DF1AC08FFF716BB17F0B5
:103A0800100377D117F0400200F0AC820E9A994665
:103A180052F8044B0E92A4B208E41BF010030E9A5D
:103A280054D11BF040014DD052F8044B99460E92E8
:103A38000123A4B2FFF7FDBB53F8044B0E93FB061A
:103A480053D47D064ED544F3C0394B4624B2FFF714
:103A58008EBB2D2364428DF88330BB464FF00103A3
:103A680069EB4909FFF7E8BBF8077FF5F0AA1FE5FE
:103A78000123C8F80430299B194A01330134072B64
:103A88002A942993C8F8002000F3688408F10808EC
:103A9800002940F02582129A07F0010313433FF4EE
:103AA800D6AA169B1799E218C8E90013299B2A92EF
:103AB8000133072B299300F3508308F1080820E20B
:103AC80054ADA9E41BF4007940F0A08252F8044BED
:103AD80001230E92FFF7ADBB5C8C00086C8C0008CC
:103AE800588C0008B80500F179824FEAE4794B4612
:103AF800FFF73DBB0E9B53F8044B0E93FFF796BBA5
:103B0800DDE9140102460B46FDF756F8002840F09F
:103B1800F785612E00F06C85412E00F07F82089BAE
:103B2800013300F0948526F02003472B069300F01C
:103B38007B85DDE9141247F480730F931346002B3D
:103B4800C0F2F4850C9300238B461D930D93069BBE
:103B5800462B00F02B84452B00F0148508990C9B0C
:103B680001910221009126A9049123A9039122A978
:103B78005A460998029100F0AFFF069B0546472B6D
:103B880040F0448617F0010FB9460F9F40F0F784C4
:103B9800269B5B1B1293069B472B00F0F182069B2A
:103BA800462B00F04284229B1093109B069A013BFF
:103BB800412A229300F08A850021F2B2002B8DF869
:103BC8009020B6BF2D222B22109B8DF89120B8BFD4
:103BD800C3F10103092B40F381850DF19F0C624667
:103BE800BA4F1C46104687FB0312D917C1EBA20136
:103BF80001EB8102A3EB42023032632C00F8012C66
:103C08000B4600F1FF32ECDC3033811EDBB28C4511
:103C180002F8013C40F2FF850DF1920101E012F833
:103C2800013B944501F8013BF9D10DF1A1030DF1D8
:103C380092021B1A134424AA9B1A1A93129B1A9ACB
:103C4800012B1A440C9240F39E850C9B169A134440
:103C58000C9300230C9A29F4806722EAE27247F455
:103C680080770F930692139310931D9B002B40F0BF
:103C7800B0829DF883200893FFF74FBA0E9B0B98EC
:103C880053F8041BC2175546C1E900020E93FFF70B
:103C9800FCB98F4B189317F0200949D00E9B0733B6
:103CA80023F00703D3F8049053F8084B0E93F80752
:103CB80009D554EA090306D030238DF8856047F00A
:103CC80002078DF88430022327F4806BFFF7B1BA1E
:103CD800BB46FFF70DBB7F4B1893DCE707990998A4
:103CE80028AA03F043FD00287FF42BA92A9C0DF194
:103CF800AC08FFF792B90799099828AA03F036FD8E
:103D080000287FF41EA92A9C0DF1AC08FFF7DEBB42
:103D1800062B294628BF06232A4608950D950693A3
:103D28006D4D0E940C930F9113911091FFF7F5B907
:103D380017F0100369D00E9B53F8044B0E93B6E7A7
:103D48000799099828AA03F011FD00287FF4F9A81B
:103D5800DDE929640DF1AC0888E40799099828AAD7
:103D680003F004FD00287FF4ECA8DDE929640DF1D7
:103D7800AC0888E400230BF48062CDE90CA8069611
:103D880092461E46DDF8648054AF0CE000232046BE
:103D980049460A22FCF74EFF0A2C79F100031BD38F
:103DA800044689462F4620460A2200234946FCF746
:103DB80041FF30327D1E013607F8012CBAF1000FA1
:103DC800E4D098F800309E42E0D1FF2EDED00A2CD5
:103DD80079F1000380F0E080CDF864801296DDE987
:103DE8000CA8069EFFF714BB0799099828AA1D93EB
:103DF80003F0BCFC00287FF4A4A89DF883202A9C2B
:103E08001D9B0DF1AC08FFF7E1B817F0400200F078
:103E1800B4800E9A994652F8044B0E92A4B246E723
:103E28000799099828AA03F0A1FC00287FF489A81B
:103E38002A9C0DF1AC08FFF736BB14463A464F46AC
:103E4800914601332C44072BC8F80090C8F8045059
:103E5800CDE929347FF7F9A83BE4012BBB467FF471
:103E6800C6AA8CE40E9B0B9953F8042B5546116097
:103E78000E93FFF70AB9102E40F3AD84DFF85C907B
:103E8800424648462146A846B9464FF0100B074619
:103E9800299B099C079D04E00832103E102E40F330
:103EA800488201331031072BC2E9007BCDE9293163
:103EB800F2DD2946204628AA03F058FC00287FF4A2
:103EC80040A8DDE929312BAAE7E700BF67666666E7
:103ED800288C00083C8C0008508C00086C8C00086A
:103EE800169B1798E218C8E90003299B2A92013308
:103EF800072B299300F3318108F108080029C0F243
:103F08000283129901338C18072BCDE92934C8F89C
:103F18000050C8F804107FF798A8FFF7DABB2846C6
:103F2800CDF820900E94FEF7A9FE20EAE073CDE9C3
:103F38000C099DF88320CDF83C90CDF84C90CDF835
:103F480040900693FFF7E9B81446089F01362C44C1
:103F5800072ECDE92964C8F80090C8F804507FF707
:103F6800A9AB06E517F400790E9B3DD053F8044B36
:103F780091460E93E4B2FFF759B917F400790E9BF6
:103F880040D053F8044B91460E93E4B28FE6299A39
:103F9800DFF84C92FFF749BB1C9B1B99ED1A1A4698
:103FA800284603F073FB98F801300BB108F10108BB
:103FB800204649460A2200230026FCF73BFEEFE68E
:103FC8002D228DF88320FFF798B8129AAE18A6EB29
:103FD8000B06D51AAE42A8BF2E468AE444F3C01990
:103FE8004B4664B2FFF7C3B853F8044B0E93FFF780
:103FF8001DB90E9B0B9953F8042B554611800E934F
:10400800FFF743B853F8044B0E9350E652F8044BAD
:10401800894601230E92E4B2FFF70BB930238DF8DD
:10402800843058238DF88530089B47F00204632BB1
:1040380000F3E38200233BAD0D9347F481730F93A4
:10404800DDE914121346002B2746C0F240820C9378
:1040580000238B461D9326F020030693612E00F063
:104068001783412E7FF473AD22AA58460C9903F0AA
:104078007DFA00224FF07F53FCF704FB02460B4603
:10408800CDE9102300220023FCF764FD08B10123C9
:104098002293544B0C93089BCDE912A6CDE91E78C8
:1040A800DDE91067AB46DDF830A003F1FF39109564
:1040B80006E00022002309F1FF39FCF74BFDE8B9BF
:1040C8000022494B30463946FCF7DCFA0F460646D3
:1040D800FCF788FD0446FCF76BFA0B4602463946A6
:1040E8003046FCF717F91AF80430B9F1FF3FD84603
:1040F8004D4606460F460BF8013BDAD130463946A5
:1041080000223A4BA946DDF848A0109DCDF848801A
:10411800CDE91001DDF87C80139E1E9FFCF742FD5F
:10412800002840F04482DDE9100100222F4BFCF703
:1041380011FD10B1E10700F13A824B46002B06DB76
:10414800302201335B440BF8012B5B45FBD1ABEB11
:104158000503B94612930F9F1DE50799099828AAE8
:1041680003F004FB00287EF4ECAEDDE92932229945
:104178000DF1AC08C2E6906D02F078F8FEF7B3BE18
:10418800229BDA1C109302DB089A934204DD023E5C
:1041980026F02003069308E5109B129A9342C0F27A
:1041A800828119F0010F00F0A882169A13440C932B
:1041B80019F4806F00F09082109B6726002B00F3A3
:1041C80046810C9B23EAE373069300230F93139312
:1041D8004BE52D2200238DF883200893FEF7A0BF1E
:1041E8006C8C00083C8C0008000030400000E03F68
:1041F800129B4246DDF84C80EB185E460893CDF8DA
:1042080030A010972146199FDDF87090DDF824A0A2
:10421800DDF81CB00F9B1395B8F1000F2ED0002BC2
:104228006CD1013F08F1FF381B9B4944C2E90039B2
:10423800299B2A910133072B299363DC0832089BB9
:1042480038789B1B8342A8BF0346002B1C460ADD17
:104258002998194401300728C2E900632A91299056
:104268005BDC38780832002CB4BF0546051B002DEE
:1042780015DC06440F9BB8F1000FD0D1002B3DD1BF
:10428800DDE91235EB189E42B346199790460C4665
:1042980028BF9B46DDF830A0109FFFF7FDBA102D10
:1042A80040F36F821024299804E0103D102D02F18C
:1042B800080216DD0130A84B10310728C2E9003486
:1042C800CDE92901F1DD5946504628AA03F04EFAF6
:1042D80000287EF436AEDDE92901103D102D2BAA09
:1042E800E8DC01309C4B29440728CDE929015560B9
:1042F80013604EDC387808320644BBE70F9B013B5D
:104308000F9391E75946504628AA03F02FFA002840
:104318007EF417AE2A992BAA91E75946504628AA47
:1043280003F024FA00287EF40CAE38782A992BAAD8
:1043380099E7454690463A460C464F469146013322
:104348003444072BCDE92934C8F80090C8F8046034
:1043580000F35D8108F10808FFF798BA07990998F2
:1043680028AA03F003FA00287EF4EBAD22992A9CD0
:104378000DF1AC08FFF78CBB0799099828AA03F040
:10438800F5F900287EF4DDAD2A9C0DF1AC08FFF7A5
:1043980074BA5946504628AA03F0E8F900287EF472
:1043A800D0AD38782A992BAA064463E708990C9B64
:1043B80001910321009126A9049123A9039122A91F
:1043C8005A460998029100F087FB03780546302B7E
:1043D80000F0C081229B089AB94613440F9FEC183D
:1043E8005846002200230C99FCF7B4FB10B1234671
:1043F800FFF7CFBB269BA342BFF4CBAB30215A1C9F
:1044080026921970269B9C42F9D8FFF7C2BB0799E0
:10441800099828AA03F0AAF900287EF492AD229BF5
:104428002A9C0DF1AC08FFF74CBA229A002A109288
:1044380040F3B981089909F001030B4340F040812A
:104448006626109B0C9319F4806F3FF4BAAE199945
:104458000B78FF2B00F0D6810024109A204604E048
:1044680001300131FF2B00F06481934280F26181B9
:10447800D21A4B78002BF3D10B780134F2E7DDE93F
:104488002921FFF764B9089B9DF883200E940693B1
:104498000C9308900F9013901090FEF73EBE0023E7
:1044A8000893FEF78ABC129B169A9A18109B0C92D6
:1044B800002B40F35D816726C5E70799099828AA6C
:1044C80003F054F900283EF4E8ADFEF740BD26F0AD
:1044D800200306932D22DDE914349B4604F10043A2
:1044E8001D920C93BAE50799099828AA03F03EF99A
:1044F80000287EF426AD229D129B2A9C0DF1AC0863
:104508005D1BFFF7F6B94E42103180F281814146BA
:104518001024A846DFF84090DDF824B0079D04E099
:104528000831103E102E40F3998001331032072BCA
:10453800C1E90094CDE92932F2DD2946584628AA76
:1045480003F014F900287EF4FCACDDE929322BA92C
:10455800E7E7299BFFF762B96C8C0008079B5B6E45
:10456800DD0707D4079B9B899C0503D4079B986D9F
:1045780001F07CFE4FF0FF330B93FEF7F1BC089B74
:10458800EC182DE70221009108995A464C1C26A9DF
:10459800049123A9039122A90C9B099801940291E3
:1045A80000F09AFA0546B9462C440F9F18E7129B6B
:1045B80026930C9B1BF8012CD97B5B468A4209D1B8
:1045C800302003F8010C269B5A1E269213F8012C62
:1045D8009142F6D0392A0BBF0C9A0132927AD2B2A4
:1045E80003F8012CB3E5299ADFF83492FEF7DABF15
:1045F80030238DF88430782314E50998591C01F08C
:10460800A7FE0546002800F0F6800D9015E50799ED
:10461800099828AA03F0AAF800287EF492AC2A9CEC
:104628000DF1AC08FFF732B9089B002B08BF012336
:10463800089347F480730F93159B002BC0F2A98051
:10464800DDF850B01D900C930D90FFF787BA062344
:10465800089326F020030693FFF76BBA4546884671
:1046680001333244072BCDE92932C8F80090C8F845
:1046780004607FF722AA0799099828AA03F076F818
:1046880000287EF45EACDDE929320DF1AC0838E48F
:1046980022AA58460C9902F069FF00224FF07F5376
:1046A800FBF7F0FF02460B46CDE91023002200235A
:1046B800FCF750FA08B1012322935A4B0C93EAE411
:1046C800169B6626D31819440C91BCE606F10F0216
:1046D8000121D2B2FFF772BA672672E500295FD1CD
:1046E80030228DF892200DF19302303302F8013B0D
:1046F80024ABD31A1A93FFF7A1BA109B0C9357E572
:10470800159B0320002BB8BF2D224FF00003A8BF34
:104718009DF8832019460D93434D444BB8BF8DF83F
:10472800832027F080070690FEF7EFBC00230D9347
:10473800D0E61991109213900F940F9A139B1C991D
:1047480013440C9A01FB03230C9323EAE3730693A7
:10475800FFF78BBA5846002200230C99FCF7FAF9A8
:1047680000287FF437AE089BC3F10103229332E699
:10477800C3F101031A4422EAE27367260C920693F6
:1047880023E52998ADE519F0010F3FF462AAFFF778
:104798005CBA0D909EE6299BDFF88490FFF751BB29
:1047A8000DF19202A1E7089A09F0010959EA0203FA
:1047B80004D10123662606930C9306E5169B66260C
:1047C80001331A4422EAE2730C920693FDE4DFF8FF
:1047D8005090FFF7BBBB299BDFF84490AFE50E9BD9
:1047E8009AF80160924653F8042B0E9342EAE2735A
:1047F8000893FEF7E0BA079A938943F04003938140
:10480800FEF7A5BB00230F93139396E7089CCAE60F
:10481800DFF80C9024E702231A93FFF70FBA00BFC2
:104828006C8C0008288C0008208C0008248C000858
:10483800F0B54FF4806C1546002406461F46ADF2CD
:104848006C4D1AAB009304938B8916A823F00203CE
:10485800ADF80C304B6E06941993CB890C46ADF825
:104868000E30CB69CDF808C007934B6ACDF814C059
:10487800099301F0F5FC2A463B4669463046FEF7A7
:104888002BFA051E07DB6946304601F01DF90028A2
:1048980018BF4FF0FF35BDF80C305B0603D5A38970
:1048A80043F04003A381169801F0DCFC28460DF282
:1048B8006C4DF0BD38B5334B05461B680C460BB143
:1048C8009A6B12B3B4F90C3018079AB225D521693E
:1048D80000292DD012F0010007D000256069A560DD
:1048E8004042A06139B1002038BD950758BF6069C2
:1048F800A0600029F7D1120658BF0846F4D543F046
:1049080040034FF0FF30A38138BD184601F010F97D
:10491800B4F90C3018079AB2D9D4D1062AD552075F
:1049280014D4216943F00803A3819AB20029D1D194
:1049380002F42070B0F5007FCCD02146284601F063
:1049480097FCB4F90C3021699AB2C3E7216B51B1D5
:1049580004F14002914204D0284601F0E1F9B4F98B
:104968000C30002222630022216923F02403C4E9C9
:104978000012D7E7092243F040032A604FF0FF30C6
:10498800A38138BD0C000020024B13B1024800F08F
:1049980005B87047000000005D5C00080023014670
:1049A8001A46184603F010BE2DE9F04F03690C694A
:1049B80085B0A342C0F28980013C01F11405A3002F
:1049C80000F11408019355F8243058F824200133D5
:1049D8008A469A4208EB84018146B2FBF3F605EB5E
:1049E800840702913AD30021AE4640460A46A346C0
:1049F80003955EF8045B0468ABB206FB03132D0C49
:104A0800190C06FB05119BB2D21A1FFA84FC9444B8
:104A18008AB2C2EB144202EB2C421FFA8CFC4CEA1D
:104A28000243774540F8043B4FEA11414FEA2242DE
:104A3800DFD2019B5C4658F80330039D73B9029B93
:104A4800043B984504D307E0984504F1FF3403D2AA
:104A580053F80429002AF7D0C9F8104051464846AF
:104A680002F06EFA00282CDB40460023013655F888
:104A7800041BD0F800C08AB29A1A1FFA8CFE0B0CDD
:104A88007244C3EB1C4303EB224392B242EA034253
:104A9800AF4240F8042B4FEA2343E8D258F82420C9
:104AA80008EB84036AB9043B984504D307E09845AA
:104AB80004F1FF3403D253F80429002AF7D0C9F8C7
:104AC8001040304605B0BDE8F08F002005B0BDE8C5
:104AD800F08F00BF000000002DE9F04F9046994686
:104AE800016C99B00446CDE90489259D41B10123A3
:104AF800426C93408B604A6001F0CCFF0023236432
:104B0800B9F1000AB4BF012300232B60764BBCBF68
:104B18002AF0004ACDF814A033EA0A0300F0AA806C
:104B2800DDE904231046194600220023CDE90A01D5
:104B3800FCF710F8074670B10123249A1360269BEE
:104B4800002B00F0E68269481860431E039303981F
:104B580019B0BDE8F08F16AB019317AB0093204650
:104B6800DDE90A2302F0B2FA5FEA1A56054640F078
:104B78009780DDE916763E4406F23240202840F35D
:104B8800B783C0F140000AFA00FA06F2124028FA88
:104B980000F04AEA0000FBF7FBFC0123013E0F93FB
:104BA800A1F1F8710022524BFBF7B4FB48A3D3E9FB
:104BB8000023FBF767FD48A3D3E90023FBF7ACFB11
:104BC800804630468946FBF7F3FC45A3D3E900232A
:104BD800FBF758FD02460B4640464946FBF79CFB4F
:104BE80080468946FBF7FEFF0022834600234046A5
:104BF8004946FBF7B9FF002840F07E82BBF1160F4B
:104C080000F26D82DDE90A013A4B03EBCB03D3E9ED
:104C18000023FBF7A9FF002872D00023BE1B0E93C8
:104C2800731E0BF1FF3B069300F16082002309938A
:104C3800BBF1000F6BDA099BCDF81CB0A3EB0B039B
:104C48000993CBF100030D93229B4FF0000B092B26
:104C580066D8052B40F34A830026043B2293229B07
:104C6800023B032B00F26C86DFE813F061045E045C
:104C78005504380442F20F73249ACAF3130A1360D6
:104C88005AEA08031AD1269B002B00F068861A4BB3
:104C980003930833269A0398136019B0BDE8F08F80
:104CA800DDE90A12C2F31303084643F07F510F9758
:104CB800A6F2FF36169F41F4401173E7269B002B9E
:104CC80040F0EF830D4B039341E700BFAFF3008043
:104CD80061436F63A787D23FB3C8608B288AC63FFA
:104CE800FB799F501344D33F0000F07F598C000894
:104CF8000000F83FC88D0008808C00087C8C0008F4
:104D0800BE1B731E069300F18A840E900990069BC1
:104D18005B44CDE9063B00230D93229B092B98D9D0
:104D2800002322934FF0FF330126089300230C96AB
:104D380023930021089B61641293204601F084FEAE
:104D48000390002800F00486039B2364089B0E2B25
:104D580000F21481002E00F011810799002940F318
:104D68006084AF4B01F00F0203EBC2030A46D3E99C
:104D780000674FEA2118D10540F11784DDE90A01DF
:104D8800A84B4FF0030AD3E90823FBF7A5FDCDE9AB
:104D9800100108F00F08B8F1000F13D0DFF8849263
:104DA80018F0010F09D0D9E9002330463946FBF73E
:104DB80069FC06460F460AF1010A5FEA680809F12C
:104DC8000809EDD1DDE9100132463B46FBF784FDC9
:104DD800804689460E9B43B1002240464946924B85
:104DE800FBF7C2FE002840F035855046FBF7E0FB94
:104DF80042464B46FBF746FC8C4B0022FBF78CFAED
:104E0800A1F15073CDE910011193089B002B00F01C
:104E18009780079B1493089B13930C9B002B00F01F
:104E2800A984139A7E4B002003EBC20353E90223A3
:104E38007F49FBF751FDDDE91023FBF76BFACDE95C
:104E4800100149464046FBF7CDFE0746FBF7B0FB8D
:104E580002460B4640464946FBF75CFADDE910235B
:104E6800039E303706F8017B80468946FBF77CFEB7
:104E7800002840F02E85CDF854B00027DDE910ABAE
:104E88001095139D13942AE00137AF4280F22E85C6
:104E9800504659460022674BFBF7F4FB0022654B4E
:104EA80082468B4640464946FBF7ECFB89468046DE
:104EB800FBF798FE0446FBF77BFB02460B46404691
:104EC8004946FBF727FA303452465B4606F8014B51
:104ED80080468946FBF748FE002840F0F8844246A1
:104EE8004B4600205049FBF715FA52465B46FBF744
:104EF8003BFE0028C8D0DDE91343109D039A0793B1
:104F080002E0964200F0CD84B24616F8013D392BF6
:104F1800F7D00133DBB23370079B01330793C8E145
:104F28005046FBF745FB42464B46FBF7ABFB3F4B76
:104F38000022FBF7F1F9A1F15073CDE910011193AB
:104F48004046494600223C4BFBF7E4F9DDE910896D
:104F58004B46424606460F46FBF724FE814600288C
:104F680040F0AF84DDE91001024601F1004330460C
:104F78003946FBF7F9FD002840F04883179B002BC2
:104F8800C0F28C80079A0E2A00F38880244B03EB2A
:104F9800C203D3E900AB239B002B1BDA089B002B31
:104FA80018DC40F031830022234B50465946FBF76A
:104FB80069FB02460B46DDE90A01FBF7DFFDDDF878
:104FC80020904E46002800F0CA82239BDDF80C8012
:104FD800DF43CCE25246DDE90A785B463846414673
:104FE800FBF77AFCFBF7FEFD81460990FBF7E0FA38
:104FF80052465B46FBF746FB039E0B46024641467C
:105008003846FBF787F909F1300306F8013B089B9E
:10501800012B00F05F83069401271C4604952AE0C3
:10502800C88D0008A08D00080000F03F00001C405B
:105038000000E03F000024400000144052465B4658
:1050480040464946FBF748FCFBF7CCFD0546FBF715
:10505800AFFA52465B46FBF715FB01370B46024693
:1050680049464046FBF756F905F13003A74206F8D2
:10507800013B00F02C830022AB4BFBF703FB002223
:10508800002380468946FBF765FD0028D6D0049D9D
:10509800069C079BB246013307930AE10C9A002A43
:1050A8003DD0229A012A40F39F82089B03F1FF38E2
:1050B8000D9B4345C0F27082A3EB0808089B002BA8
:1050C800C0F24083069A1A440692099A17461A446F
:1050D80009920121204601F085FD064623E00123BF
:1050E800BE1B0E93731E06937FF5A0ADC6F1010398
:1050F8000993002306939BE55846FBF759FA424665
:105108004B46FBF727FD00287FF478AD0BF1FF3BFA
:1051180074E5864B0393039819B0BDE8F08FDDF86A
:105128003480099F0C9E002F0CDD069900290B4640
:1051380008DDB942A8BF3B46099AFF1AD21ACB1A12
:10514800099206930D9BE3B10C9B002B00F0608243
:10515800B8F1000F10DD31464246204601F01EFE30
:1051680006462A463146204601F06AFD034629468E
:1051780020461D4601F08EFC0D9BB3EB080240F063
:10518800DB820121204601F02DFDBBF1000F814695
:1051980000F3B380229B012B40F388814FF0000A73
:1051A8000120BBF1000F40F0B480069A104410F0C3
:1051B8001F0000F09280C0F12003042B40F3D3833A
:1051C800099BC0F11C00034402440993074406925A
:1051D800099B002B05DD29461A46204601F03AFEB8
:1051E8000546069B002B05DD49461A46204601F078
:1051F80031FE81460E9B002B40F03881089B002B26
:1052080040F31E810C9B002B40F09F80079B0133CD
:1052180007930127DDF80C80DDF820A007E0294678
:1052280000230A22204601F03FFC05460137494683
:105238002846FFF7B9FB574500F1300308F8013B52
:10524800EDDB089A0027002ACCBF93464FF0010BEC
:10525800039A9344294601222046049301F0FAFD5B
:105268004946054601F06CFE002840F3AB811BF867
:10527800013C039A0BF1FF3B04E05A4500F0AD8175
:105288001BF8013D392B0BF1010AF6D001338BF8DD
:1052980000304946204601F0FDFB56B12FB1B74218
:1052A80003D03946204601F0F5FB3146204601F08F
:1052B800F1FB2946204601F0EDFB0023079A8AF806
:1052C8000030249B1A60269B002B3FF440AC0398C7
:1052D800C3F800A019B0BDE8F08F1C20099B074453
:1052E80003440993069B0344069371E70126B6E439
:1052F800C0F1200008FA00F04DE401465A46204665
:1053080001F04CFD229B8146012B40F3B6814FF002
:10531800000AD9F8103009EB8303186901F016FC6C
:10532800C0F1200041E700BF00002440588C00086D
:10533800314600230A22204601F0B6FB129B06469E
:10534800002B40F3E982CDE90783002F00F31D818C
:10535800BAF1000F40F0D981B046049B089903F0D8
:105368000102039B0A921F46013B1944229B0891A4
:105378001343099349462846FFF716FB31468346EF
:10538800284601F0DDFD424649468246204601F0A6
:10539800F7FDC26801460BF13003002A43D104909F
:1053A8002846069301F0CCFD024604992046049253
:1053B80001F070FB049A069B1AB90999002900F0BC
:1053C8009B82BAF1000FC0F2648122994AEA010A6D
:1053D8000A9951EA0A0100F05C81002A00F3B681BB
:1053E800089A07F1010A9742D3463B7000F0B4814E
:1053F800294600230A22204601F056FB4645054669
:1054080031464FF000034FF00A02204612D001F057
:105418004BFB4146064600230A22204601F044FB86
:1054280057468046A6E72046049301F033FB012245
:10543800049BC6E701F038FB57460646804699E7C5
:10544800229B022B7ADC0C9B002B7FF47EAF079B00
:105458004946013328460793FFF7A6FADDF80CB052
:1054680000F1300300270BF8013BF3E649462846D4
:1054780001F066FD0028BFF6C1AE294600230A22C6
:10548800204601F011FB079B054603F1FF380C9BF2
:10549800002B7FF44DAF129B002B40F3348208930E
:1054A800B7E6B04B03930333FFF7F4BBDDE904120F
:1054B80000297FF473AEC2F31303002B7FF46EAEA2
:1054C800A94B1340002B00F00082099B4FF0010A02
:1054D80001330993069B0133069361E601230C937C
:1054E800239B079A134412930133012B1F46B8BF1D
:1054F800012708930021172F61647FF71EAC012252
:1055080004235B0003F11400B842114602F10102C2
:10551800F7D9616411E401230C93239B002B4CDD24
:105528001F4612930893E5E700230C93D8E700235E
:105538000C93F2E7129BCDF81C800893089B002B74
:105548007FF443AD49460522204601F0ADFA814675
:105558002846494601F0F4FC00287FF736AD312390
:105568000398079F804600F8013B0137039049469E
:10557800204601F08FFA7B1CDDF80CA00793CDF8CC
:105588000C80002E7FF491AE93E631463A462046D1
:1055980001F060FC0646DBE60D9BCDF83480A8EBF5
:1055A80003039B444FF0000888E5DDE90A234FF028
:1055B800020ACDE91023FFF7EEBB012323930893DA
:1055C800FFF7B7BB03D1049BD8073FF550AEDA46C7
:1055D8001BF8013D302BFAD05BE6079B039A013399
:1055E80007933123137054E60F9A002A00F028819C
:1055F80003F23343069ADDF834801A440692099A76
:1056080017461A44099264E54FF000094E46DCE457
:10561800294620460D9A01F0C1FB0546B1E50E90DA
:1056280064E500F01181DDE90A01079A4F4B564203
:1056380006F00F0203EBC203D3E90023FBF722F8BD
:1056480036118046894600F0708100234FF0020A27
:10565800474FF20706D5D7E90023FBF713F80123D4
:105668000AF1010A761007F10807F2D1002B3FF47E
:10567800B1AB80468946FFF7ADBB049B002B7FF496
:1056880046AEDDE90412C2F31303002B3FF418AF52
:105698003DE6002A12DD294601222046049301F046
:1056A800D9FB4946054601F04BFC0028049B40F312
:1056B8001781392B00F0FB800BF13103BA46079AAA
:1056C80037460132464607920AF8013BE1E509955B
:1056D800069C049D02460B46FAF71EFE52465B46A0
:1056E80080468946FBF75EFA60B952465B464046FB
:1056F8004946FBF72FFA00283FF4CBAC099BD907A2
:105708007FF5C7AC039AFFF7FFBB2046716801F02D
:105718009BF90746002800F00C81336906F10C015B
:1057280002339A000C30FAF77BFD394601222046F5
:1057380001F090FB804610E62946204601F02EFB3A
:1057480005461EE5DDE908239F1AC2E4392B00F05F
:10575800AE80BA460133B2E7079A37460132464669
:10576800079277E57C8C00080000F07FC88D000860
:10577800A08D0008DDF84CA08349DDE9102301EB7A
:10578800CA0151E90201FAF77DFFCDE91001494646
:105798004046FBF727FA0646FAF70AFF0B46024689
:1057A80049464046FAF7B6FD5346039F3036012B6B
:1057B8008046894607F8016B00F0AC80139E039B76
:1057C8001E440022714B40464946FAF75BFF894662
:1057D8008046FBF707FA8246FAF7EAFE02460B46CE
:1057E80040464946FAF796FD0AF1300A07F801AB38
:1057F800B74280468946E4D1DDE910010022644BB6
:10580800FAF78AFD42464B46FBF7AEF9002862D10B
:10581800DDE9102300205E49FAF77CFD42464B463D
:10582800FBF7C0F900283FF4A9AB16F8013CB246D3
:10583800302B06F1FF36F8D0149B0133079338E577
:10584800169BC3F13603D5E64FF0020ADDE90A8953
:10585800FFF7C0BA089B002B3FF462AB129B002BEA
:105868007FF78CAB1393079B0022013B40464946C8
:105878001493464BFAF706FF804689460AF1010061
:10588800FAF796FE42464B46FAF7FCFE414B0022D9
:10589800FAF742FDA1F15073CDE910011193FFF71A
:1058A800BCBA079B013307933123FFF734BB079B2F
:1058B800BB4601330793392337460BF8013B46466D
:1058C800D7E44FF000094E4649E69A4668E4109D31
:1058D800139CB246B0E7149B039A0793FFF714BBD7
:1058E8007FF4ECAEDA077FF5E9AEE2E6DDF854B016
:1058F800109D139CFFF742BB392BD8D0BAF1000F8B
:105908003FF7DAAEDAE6229B022B3FF713AECDF86B
:105918001C809CE53E466FE7229B022B3FF70AAEB0
:10592800129BCDF81C8008930FE54FF0020AFFF791
:1059380051BA024640F2EA21174B184802F08AFE93
:10594800002620463146666401F07EF8039078B957
:1059580000224FF4D571104B104802F07BFE104B1B
:105968000393FFF7F4B83FF433ACC0F13C00B5E45F
:10597800039B012223644FF0FF33239612930C926A
:105988000893FFF7FBBA00BFC88D00080000244049
:105998000000E03F00001C408C8C0008A08C000830
:1059A800808C0008B1F90C20F8B50C4611070746A1
:1059B80043D4636842F40062002BA2815BDDA56AD0
:1059C800002D56D000233E683B6093B212F48052FB
:1059D80055D101233846E169A847421C65D0A389FF
:1059E800A56A5B0705D56368C01A236B0BB1E36B27
:1059F800C01A0246E16900233846A847411C40D135
:105A08003B68002B3DD01D2B01D0162B54D1002212
:105A1800A38923F40063A3812369C4E90032216BBD
:105A28003E6031B304F14003994202D0384600F099
:105A380077F9002318462363F8BD2669CEB193B2DF
:105A48009A0718BF0023256808BF63692660AD1B45
:105A5800A3600CE02B463246D4F824C03846E169EE
:105A6800E047B0F1000CA5EB0C05664416DD002DEF
:105A7800F0DC0020F8BDE36B002BA0DCF9E7206D1B
:105A8800AFE70022B4F90C30626023F400632269A6
:105A9800A381DB042260C2D52065C0E7A3894FF04B
:105AA800FF3043F04003A381F8BD3B68002B96D03C
:105AB8001D2B06D0162B04D0A38943F04003A381E5
:105AC800F8BD00203E60F8BD38B505460C4608B163
