:020000040800F2
:100000000000012015100008910E0008930E000852
:10001000950E0008970E0008990E000800000000D9
:100020000000000000000000000000009B0E00081F
:100030009D0E0008000000009F0E0008A10E0008A1
:100040005D1000085D1000085D1000085D100008DC
:100050005D1000085D1000085D1000085D100008CC
:100060005D1000085D1000085D1000085D100008BC
:100070005D1000085D100008A90E0008B90E000808
:100080005D1000085D1000085D1000085D1000089C
:100090005D1000085D1000085D1000085D1000088C
:1000A0005D1000085D1000085D1000085D1000087C
:1000B0005D1000085D1000085D1000085D1000086C
:1000C0005D1000085D1000085D1000085D1000085C
:1000D0005D1000085D1000085D1000085D1000084C
:1000E0005D1000085D1000085D1000085D1000083C
:1000F0005D1000085D1000085D1000085D1000082C
:100100005D1000085D1000085D1000085D1000081B
:100110005D1000085D1000085D1000085D1000080B
:100120005D1000085D1000085D1000085D100008FB
:1001300000000000000000000000000000000000BF
:1001400000000000000000000000000000000000AF
:10015000000000000000000000000000000000009F
:10016000000000000000000000000000000000008F
:10017000000000000000000000000000000000007F
:10018000000000000000000000000000000000006F
:10019000000000000000000000000000000000005F
:1001A000000000000000000000000000000000004F
:1001B000000000000000000000000000000000003F
:1001C000000000000000000000000000000000002F
:1001D000000000000000000000000000000000001F
:0401E0005FF8E0F1F3
:1001E40010B5054C237833B9044B13B10448AFF36D
:1001F40000800123237010BD4C0C0020000000007F
:100204009C3E000808B5034B1BB103490348AFF3F8
:10021400008008BD00000000500C00209C3E000837
:10022400844641EA000313F0030349D1403A23D33F
:100234000B6803604B6843608B688360CB68C36062
:100244000B6903614B6943618B698361CB69C3614A
:100254000B6A03624B6A43628B6A8362CB6AC36232
:100264000B6B03634B6B43638B6B8363CB6BC3631A
:1002740040304031403ADBD230320BD30B6803605C
:100284004B6843608B688360CB68C3601030103167
:10029400103AF3D20C3205D351F8043B40F8043B36
:1002A400043AF9D2043208D0D2071CBF11F8013B3A
:1002B40000F8013B01D30B8803806046704700BF00
:1002C400082A13D38B07B1D010F00303AED0C3F1C7
:1002D4000403D21ADB071CBF11F8013B00F8013BF1
:1002E400A4D331F8023B20F8023B9FE7043AD9D368
:1002F400013A11F8013B00F8013BF9D20B78037085
:100304004B7843708B7883706046704700B583B038
:100314000E4B5A6942F001025A615B6903F0010312
:100324000193019B002211460E2000F007FF0E20CE
:1003340000F03CFF002211460F2000F0FFFE0F20CA
:1003440000F034FF03B05DF804FB00BF001002406E
:10035400F0B589B000240494059406940794214BC5
:100364009A6942F008029A619A6902F008020192BD
:10037400019A9A6942F020029A619A6902F0200275
:100384000292029A9A6942F004029A619B6903F00C
:1003940004030393039B144F01224FF48051384606
:1003A40001F058FA114D22464FF46051284601F0ED
:1003B40051FA4FF4805304930126059606940223C0
:1003C400079304A9384601F025F94FF460530493C8
:1003D400059606940323079304A9284601F01AF905
:1003E40009B0F0BD00100240000C014000140140AF
:1003F40000B583B001904FF6FF73012201A90348B1
:1004040001F0A9FF019803B05DF804FBCC110020B2
:1004140072B6FEE700B591B02822002106A802F0CA
:1004240031F800230193029303930493059301226B
:1004340006924FF4803307930A9202220D920E9390
:100444004FF4E0130F9306A801F020FA80B90F23AC
:10045400019302210291002303934FF480620492DA
:10046400059301A801F052FC20B911B05DF804FB1A
:10047400FFF7CEFFFFF7CCFFF0B585B000F014FE18
:10048400FFF7C8FFFFF764FFFFF740FF00F06AFDC6
:1004940000F050FC6F4B1B68ADF80C301B0C8DF852
:1004A4000E306D4802F08EF800F094F9002000F050
:1004B40035F9002000F040F920255DE00124019485
:1004C4001027009703232A463021672000F0C4FA3E
:1004D40000F046F94FF4FA7000F00AFE00F062F9F9
:1004E40000943B4600221146104600F001FB0094A4
:1004F400182300221146384600F0FAFA009420230B
:1005040000221421182000F0F3FA00944023002262
:100514001146184600F0ECFA00F022F94FF4FA7094
:1005240000F0E6FD00F03EF94C4E009408233246FC
:100534000021084600F062FA00940C233246082198
:10054400002000F05BFA00943B4632461421002060
:1005540000F054FA0094182332462421002000F0BD
:100564004DFA00F0FDF84FF4FA7000F0C1FD224698
:1005740004210B2000F030FB01240194384B00933C
:10058400402380220021084600F07EFB00F0E8F8BA
:100594004FF4FA7000F0ACFD00F004F9009410235D
:1005A40000221146104600F0A3FA009410232246BC
:1005B4000021122000F09CFA009410230222002152
:1005C400242000F095FA0094102303220021362001
:1005D40000F08EFA0094102304220021482000F039
:1005E40087FA00941023052200215A2000F080FA93
:1005F40000941023062200216C2000F079FA009464
:100604001023184A1946082000F0F8F90094102322
:10061400154A2021142000F0F1F900941023134A04
:100624003021002000F0EAF900941023104A302110
:100634003F2000F0E3F9009410232A4630210846B5
:1006440000F056F92544EDB27E2D7FF637AF202514
:1006540034E700BFB43E0008B83E0008F03E00088E
:1006640000000020C43E0008D43E0008E03E00081C
:10067400E83E000810B582B08DF80700104C002247
:100684004FF40061204601F0E5F800224FF40051D8
:10069400204601F0DFF801220DF10701094801F0BD
:1006A400E9FC01224FF40061204601F0D3F8012255
:1006B4004FF40051204601F0CDF802B010BD00BF48
:1006C400001401407011002010B582B08DF80700AD
:1006D400104C00224FF40061204601F0BBF80122C7
:1006E4004FF40051204601F0B5F801220DF1070145
:1006F400094801F0BFFC01224FF40061204601F0DB
:10070400A9F801224FF40051204601F0A3F802B0E9
:1007140010BD00BF001401407011002010B5044644
:1007240010B1012C04D010BDA620FFF7A3FFF8E7F9
:10073400A720FFF79FFFF6E710B5044610B1012C80
:1007440007D010BDC820FFF795FFA120FFF792FF47
:10075400F5E7C020FFF78EFFA020FFF78BFFF0E73F
:1007640038B500250CE00E4B03EBC403585DFFF7CE
:10077400ABFF0134E4B214F0800FF4D00135EDB2D4
:10078400072D0CD8A5F15000C0B2FFF773FF00206D
:10079400FFF770FF1020FFF76DFF0024EBE738BD73
:1007A400680C002008B500200BE0094A02EBC302E4
:1007B400002111540133DBB213F0800FF5D0013066
:1007C400C0B2072801D80023F6E7FFF7C9FF08BD28
:1007D400680C002010B5334C00224FF480512046A1
:1007E40001F038F8C82000F083FC01224FF4805156
:1007F400204601F02FF8AE20FFF73CFF0020FFF762
:1008040039FF1020FFF736FF4020FFF733FF812028
:10081400FFF730FFCF20FFF72DFFA120FFF72AFFBE
:10082400C820FFF727FFA620FFF724FFA820FFF723
:1008340021FF3F20FFF71EFFD320FFF71BFF0020FF
:10084400FFF718FFD520FFF715FF8020FFF712FFF1
:10085400D920FFF70FFFF120FFF70CFFDA20FFF795
:1008640009FF1220FFF706FFDB20FFF703FF4020FC
:10087400FFF700FF2020FFF7FDFE0220FFF7FAFE3E
:100884008D20FFF7F7FE1420FFF7F4FEA420FFF7F6
:10089400F1FEA620FFF7EEFEFFF784FFAF20FFF77F
:1008A400E9FE10BD001401404FEAD10C01F007012C
:1008B40001238B40DBB242B10C4A02EBC00010F8BA
:1008C4000C20134300F80C307047084A02EBC000B8
:1008D40010F80C20D243D2B200F80C20134300F8D5
:1008E4000C30DB4300F80C30704700BF680C00206C
:1008F4002DE9F04F85B0039001919A469DF8388018
:10090400082B12D013F0070318BF012303EBDA03FB
:100914004FEA5A0101FB03F3DBB20293203A5FFA78
:1009240082FB039F4FF000093FE006230293F5E7A3
:100934000BEB4B032D4A02EB430313F80960019DB3
:10094400002419E00BEB4B03294A02EB830313F851
:100954000960F4E7274B03EB0B1313F80960EEE788
:10096400B8FA88F2520929463846FFF79DFF7608FF
:100974000135EDB20134E4B2072C08D816F0010FAA
:10098400EED0424629463846FFF78EFFEFE701379F
:10099400FFB2BAF1080F04D0039BFB1AB3EB5A0F52
:1009A4001AD009F101095FFA89F9029B994519D214
:1009B400BAF1080FBCD0BAF10C0FC3D0BAF1100FC2
:1009C400C8D0BAF1180F0DD10BEBCB030A4A02EBD6
:1009D400830313F80960B2E7019B0833DBB2019388
:1009E400039FDEE705B0BDE8F08F00BF1C4300089D
:1009F40044450008B8490008A84F00082DE9F04113
:100A040082B004460F4615461E469DF8208002E03B
:100A14000634E4B201352A78A2F12000C0B25E287F
:100A24000CD8CDF80080334639462046FFF760FFE6
:100A3400082EEDD004EB5604E4B2EBE702B0BDE8B7
:100A4400F0810246012002E002FB00F019464B1E31
:100A5400DBB20029F8D170472DE9F04F83B0074687
:100A6400884691461D469DF830609DF834A0082EB6
:100A740003D04FF0000B002411E04FF0020BFAE713
:100A840030320BEB560000FB0470CDF800A0334667
:100A9400D2B24146C0B2FFF72BFF0134E4B2AC42FC
:100AA40020D2291BC9B20139C9B20A20FFF7C9FFF4
:100AB400B9FBF0F00D4AA2FB0032D20802EB82022D
:100AC400A0EB420212F0FF02DAD10BEB560000FB5E
:100AD4000470CDF800A0334630224146C0B2FFF77F
:100AE40007FFDAE703B0BDE8F08F00BFCDCCCCCC74
:100AF4002DE9F04F85B00290019193469A469DF8F6
:100B0400388013F0070318BF012303EBDA0303FB58
:100B14000AF3039307464FF0000936E02A4B03EB30
:100B24004B1313F80960019D002419E00BEBCB0370
:100B3400264A02EBC30313F80960F4E7244B03EBE2
:100B4400CB1313F80960EEE7B8FA88F25209294684
:100B54003846FFF7A9FE76080135EDB20134E4B258
:100B6400072C08D816F0010FEED042462946384625
:100B7400FFF79AFEEFE70137FFB2029BFB1A5345DA
:100B840018D009F101091FFA89F9039B994517D275
:100B9400BAF1100FC2D0BAF1180FC7D0BAF1200FB2
:100BA400CCD0BAF1400F0BD10A4B03EB4B2313F813
:100BB4000960B8E7019B0833DBB20193029FE0E7C9
:100BC40005B0BDE8F08F00BFF43E000854400008B3
:100BD4009C4000081C4100082DE9F04182B0804689
:100BE4000F4616460024254642E0009610232A4666
:100BF40018218020FFF77CFF0135EDB23AE0411E59
:100C0400204A02EBC00C1CF803C002EBC10202F83C
:100C140003C00133DBB2072BF1D90130C0B28F28F6
:100C240001D80023F7E7FFF79BFD0135EDB2B5EBE3
:100C3400071F03DA0120F2E70025F8E700251BE08F
:100C440000241DE00130C0B28F280FD80023072BE9
:100C5400F8D8411E0B4A02EBC00C1CF803C002EB8F
:100C6400C10202F803C00133DBB2F0E7FFF778FDFD
:100C7400002CBAD04545DFD00134E4B2102CDFD0CB
:100C84000120E1E7680C00202DE9F04F85B00190C8
:100C94000D4693469DF83C8013F0070218BF0122CD
:100CA40002EBD303039300910746002302939A4671
:100CB40036E0B8FA88F2520929463846FFF7F4FDBF
:100CC40076080135EDB20134E4B2072C08D816F0E9
:100CD400010FEED0424629463846FFF7E5FDEFE71F
:100CE4000137FFB2019BFB1A5B450FD009F10109E3
:100CF4005FFA89F9009DD9450ED20E9B13F80A605C
:100D04000AF1010A1FFA8AFA0024DEE7009B08337D
:100D1400DBB20093019FE9E7029B0133DBB202934C
:100D2400029B039A934202D24FF00009E3E705B015
:100D3400BDE8F08F08B50E480E4B03604FF4827384
:100D4400436000238360C360036143614FF4007216
:100D540082610822C2610362436283620A23C3621E
:100D640001F02CF900B908BDFFF752FBFBE700BF07
:100D7400701100200038004070B586B00023029343
:100D840003930493059302682E4B9A4201D006B054
:100D940070BD044603F5EC33DA6942F48042DA614B
:100DA400DA6902F480420092009A9A6942F00802D9
:100DB4009A619B6903F008030193019B4FF420435C
:100DC400029302230393032305931F4E02A9304683
:100DD40000F020FC4FF48043029300250395049512
:100DE40002A9304600F016FC1848194B0360456010
:100DF40085608023C360056145618561C56100F03C
:100E04000DFAC0B9114BE3645C621248124B0360E3
:100E140010234360002383608022C2600361436126
:100E240083614FF40053C36100F0F8F930B9094B02
:100E3400A3645C62ABE7FFF7EBFAE3E7FFF7E8FADA
:100E4400F5E700BF00380040000C0140E810002026
:100E5400440002402C1100205800024082B00A4B8A
:100E64009A6942F001029A619A6902F001020092C1
:100E7400009ADA6942F08052DA61DB6903F0805348
:100E84000193019B02B0704700100240FEE7FEE7A9
:100E9400FEE7FEE7FEE770477047704708B500F0CD
:100EA40015F908BD08B5024800F03EFA08BD00BFB8
:100EB400E810002008B5024800F036FA08BD00BF6B
:100EC4002C11002070B50C461646002506E0AFF341
:100ED4000080214601F8010B01350C46B542F6DBD2
:100EE400304670BD70B50C461646002504E014F873
:100EF400010BFFF77DFA0135B542F8DB304670BDD2
:100F04004FF0FF3070474FF400534B6000207047A0
:100F1400012070470020704710B503460C4A0D4964
:100F24000D48006840B10C4800680344521A9342CB
:100F340006D8094A136010BD0748084C0460F2E75C
:100F440001F076FA0C2303604FF0FF30F3E700BFA3
:100F54000000012000040000C811002060120020DD
:100F64007047000008B50A480A4B03604FF4E133A8
:100F7400436000238360C36003610C224261836188
:100F8400C36101F0B9F900B908BDFFF741FAFBE705
:100F9400CC1100200038014010B586B00023029324
:100FA4000393049305930268174B9A4201D006B049
:100FB40010BD03F558439A6942F480429A619A69D4
:100FC40002F480420092009A9A6942F004029A6103
:100FD4009B6903F004030193019B4FF40073029394
:100FE4000223039303230593084C02A9204600F02F
:100FF40011FB4FF48063029300230393049302A92B
:10100400204600F007FBD2E7003801400008014009
:101014000C480D490D4A002302E0D458C45004334F
:10102400C4188C42F9D30A4A0A4C002301E0136025
:101034000432A242FBD3FFF793FF01F0FFF9FFF75D
:101044001BFA7047000000204C0C0020445D00088F
:101054004C0C00205C120020FEE7000010B5044692
:101064000E4B18784FF47A73B3FBF0F30C4A106804
:10107400B0FBF3F000F0A8F868B90F2C01D90120F7
:101084000AE0002221464FF0FF3000F057F8054BEC
:101094001C60002000E0012010BD00BF04040020FB
:1010A400000400200804002008B5074A136843F030
:1010B40010031360032000F02FF80F20FFF7CEFF7A
:1010C400FFF7CCFE002008BD00200240034A11684F
:1010D400034B1B780B441360704700BF10120020B1
:1010E40004040020014B1868704700BF1012002050
:1010F40038B50446FFF7F6FF0546B4F1FF3F02D0CA
:10110400044B1B781C44FFF7EDFF401BA042FAD3AD
:1011140038BD00BF04040020074AD36823F4E06309
:101124001B041B0C000200F4E060034343F0BF63A4
:1011340043F40033D360704700ED00E000B5194B71
:10114400DB68C3F30223C3F1070CBCF1040F28BF0F
:101154004FF0040C03F1040EBEF1060F18D9033B43
:101164004FF0FF3E0EFA0CFC21EA0C0199400EFAF6
:1011740003F322EA0303194300280BDB0901C9B274
:1011840000F1604000F5614080F800135DF804FB55
:101194000023E5E700F00F000901C9B2024B19541E
:1011A400F4E700BF00ED00E014ED00E0002807DBE9
:1011B40000F01F02400901239340024A42F8203004
:1011C400704700BF00E100E00138B0F1807F0BD22E
:1011D4004FF0E0235861054AF02182F823100020E3
:1011E400986107221A6170470120704700ED00E002
:1011F40030B40124056CAC40C56B6C60046863605A
:101204004368102B05D0036899600368DA6030BC2A
:10121400704703689A600368D960F8E700283AD0F9
:1012240010B4024600681D4B984229D81C4B034455
:101234001C49A1FB03131B099B0013641A4BD363C2
:10124400022382F82130016821F47F5121F030011A
:10125400536894682343D46823431469234354692B
:10126400234394692343D46923430B43036000203D
:101274009063012382F8213082F8200010BC70476B
:101284000A4B03440749A1FB03131B099B00136486
:10129400074BD363D4E70120704700BF0704024023
:1012A400F8FFFDBFCDCCCCCC00000240F8FBFDBF65
:1012B4000004024038B5044690F82000012831D0DB
:1012C400012084F8200094F82100012804D0002390
:1012D40084F82030022038BD022084F82100002048
:1012E400A0632568286820F0010028602046FFF7E5
:1012F4007FFFE36A5BB12268136843F00E03136057
:101304002268136843F0010313600020E3E72268B6
:10131400136823F0040313602268136843F00A037C
:101324001360EDE70220D6E738B5C36B1A6804688A
:101334002568016C04238B40134200F09B8015F058
:10134400040F00F09780236813F0200F03D1236863
:1013540023F00403236003689A4A934246D9783AF7
:10136400934224D01432934228D01432934227D08B
:101374001432934227D01432934227D0143293422A
:1013840027D01432934227D002F56272934226D0BA
:101394001432934225D01432934224D0143293420F
:1013A40002D04FF4802203E04FF4804200E0042294
:1013B400854B5A60C36A03B1984738BD4022F7E7AA
:1013C4004FF48062F4E74FF48042F1E74FF4802257
:1013D400EEE74FF48002EBE74FF08062E8E7042287
:1013E400E6E74022E4E74FF48062E1E7774A93427C
:1013F40024D01432934225D01432934224D0143290
:10140400934224D01432934224D01432934224D0F1
:101414001432934224D002F56272934223D01432E0
:10142400934222D01432934221D01432934202D0F8
:101434004FF4802203E04FF4804200E00422644B26
:101444005A60B7E74022FAE74FF48062F7E74FF4B7
:101454008042F4E74FF48022F1E74FF48002EEE794
:101464004FF08062EBE70422E9E74022E7E74FF41C
:101474008062E4E702238B40134200F0AB8015F056
:10148400020F00F0A780236813F0200F06D1236811
:1014940023F00A032360012380F821300368494ABA
:1014A40093424BD9783A934224D0143293422DD0AC
:1014B400143293422CD0143293422CD014329342DF
:1014C4002CD0143293422CD0143293422CD002F5F7
:1014D400627293422BD0143293422AD01432934234
:1014E40029D01432934202D04FF4003203E04FF477
:1014F400005200E00222344B5A60002380F820306E
:10150400836A002B3FF459AF984756E72022F2E74D
:101514004FF40072EFE74FF40052ECE74FF400325F
:10152400E9E74FF40012E6E74FF00072E3E7022226
:10153400E1E72022DFE74FF40072DCE7234A93421D
:1015440024D01432934225D01432934224D014323E
:10155400934224D01432934224D01432934224D0A0
:101564001432934224D002F56272934223D014328F
:10157400934222D01432934221D01432934202D0A7
:101584004FF4003203E04FF4005200E00222104B0B
:101594005A60B2E72022FAE74FF40072F7E74FF4FB
:1015A4000052F4E74FF40032F1E74FF40012EEE793
:1015B4004FF00072EBE70222E9E72022E7E74FF45D
:1015C4000072E4E780000240000402400800024088
:1015D40000000240082303FA01F111423FF4EDAE8A
:1015E40015F0080F3FF4E9AE236823F00E032360DF
:1015F400026CC16B012303FA02F24A60836380F830
:101604002130002380F82030036B002B3FF4D5AE4B
:101614009847D2E670B582B00024A446B0E0874D66
:10162400AA4210D007D9864DAA420CD005F58035C0
:10163400AA4208D013E0A5F58015AA4203D005F507
:101644007025AA4207D18A68002A62D0012A5BD099
:101654004361082403E0A5F58015AA42F3D0BEF146
:10166400FF0F58D80646BEF1FF0F56D84FEA8C023A
:1016740033680F25954023EA050304FA02F2134365
:1016840033604B6813F0805F78D06E4B9A6942F0F8
:1016940001029A619B6903F001030193019B4FEAE4
:1016A4009C02951C684B53F825600CF003039D00C5
:1016B4000F23AB4026EA0306644B984233D003F56C
:1016C4008063984200F0988003F58063984200F0AC
:1016D400958003F58063984200F0928003F580635F
:1016E400984200F08F8003F58063984219D0062356
:1016F4001AE0CC68B3E7CC680434B0E7CC680834AB
:10170400ADE7CC680C34AAE703610824A7E70024FA
:10171400A5E70424A3E7061DA5E7ACF1080292009F
:10172400A6E7052300E00023AB4033430232464DD5
:1017340045F822304B6813F4803F65D0444A13685F
:1017440043EA0E0313604B6813F4003F62D0404A2F
:10175400536843EA0E0353604B6813F4801F5FD051
:101764003B4A936843EA0E0393604B6813F4001FEB
:101774005CD0374AD36843EA0E03D3600CF1010C02
:101784000A6832FA0CF357D0012303FA0CF302EA85
:10179400030E33EA0202F1D14A68122A3FF63FAF40
:1017A400122A3FF65CAF01A555F822F04B1600084B
:1017B400F71600080117000813170008631600083D
:1017C4006316000863160008631600086316000811
:1017D4006316000863160008631600086316000801
:1017E40063160008631600086316000863160008F1
:1017F400FB16000807170008012395E7022393E767
:10180400032391E704238FE7114A136823EA0E03A5
:10181400136098E70E4A536823EA0E0353609BE76C
:101824000B4A936823EA0E0393609EE7084AD36841
:1018340023EA0E03D360A1E702B070BD00002210BA
:101844000000311000100240000001400008014077
:10185400000401400AB10161704709040161704745
:1018640082B0084B1B68084AA2FB03235B0A00FBF7
:1018740003F3019300BF019B5A1E0192002BF9D17F
:1018840002B0704700040020D34D6210002800F01D
:10189400F18170B582B00446036813F0010F2CD0B7
:1018A400994B5B6803F00C03042B1DD0964B5B68CB
:1018B40003F00C03082B12D06368B3F5803F41D0CA
:1018C400002B55D103F1804303F504331A6822F445
:1018D40080321A601A6822F480221A6037E08A4B38
:1018E4005B6813F4803FE7D0874B1B6813F4003F19
:1018F40003D06368002B00F0BF81236813F0020F4C
:1019040075D0814B5B6813F00C0F5FD07E4B5B6826
:1019140003F00C03082B54D02369002B00F08A80B9
:101924007A4B01221A60FFF7DDFB0546764B1B68F4
:1019340013F0020F75D1FFF7D5FB401B0228F5D930
:1019440003209EE1704A136843F480331360636894
:1019540043B3FFF7C7FB05466B4B1B6813F4003F0B
:10196400CBD1FFF7BFFB401B6428F5D9032088E1E6
:10197400B3F5A02F09D0644B1A6822F480321A60A0
:101984001A6822F480221A60E1E703F18043A3F588
:101994003C331A6842F480221A601A6842F4803296
:1019A4001A60D4E7FFF79EFB0546574B1B6813F4F8
:1019B400003FA2D0FFF796FB401B6428F5D9032013
:1019C4005FE1514B5B6813F4803FA5D14E4B1B681C
:1019D40013F0020F03D02369012B40F04F814A4AD0
:1019E400136823F0F803616943EAC10313602368B1
:1019F40013F0080F33D0A369002B5CD0434B0122B2
:101A0400C3F88024FFF76EFB05463F4B5B6A13F077
:101A1400020F21D1FFF766FB401B0228F5D90320F2
:101A24002FE1394A136823F0F803616943EAC103DB
:101A34001360DCE7354B00221A60FFF753FB0546C1
:101A4400314B1B6813F0020FD1D0FFF74BFB401B47
:101A54000228F5D9032014E10120FFF701FF2368D0
:101A640013F0040F00F09680274BDB6913F0805FBE
:101A740034D1254BDA6942F08052DA61DB6903F034
:101A840080530193019B0125214B1B6813F4807F34
:101A940026D0E368012B3DD0002B53D103F18043C2
:101AA40003F504331A6A22F001021A621A6A22F058
:101AB40004021A6233E0154B0022C3F88024FFF7B6
:101AC40011FB0546104B5B6A13F0020FC7D0FFF7FA
:101AD40009FB401B0228F5D90320D2E00025D3E7F7
:101AE4000B4A136843F480731360FFF7FBFA06464E
:101AF400074B1B6813F4807FCBD1FFF7F3FA801BED
:101B04006428F5D90320BCE00010024000004242E2
:101B1400007000405F4A136A43F001031362E368F4
:101B240033B3FFF7DFFA06465A4B1B6A13F0020F72
:101B34002FD1FFF7D7FA801B41F288339842F3D9AB
:101B440003209EE0052B09D0524B1A6A22F00102B1
:101B54001A621A6A22F004021A62E0E74D4B1A6A0A
:101B640042F004021A621A6A42F001021A62D6E7CB
:101B7400FFF7B8FA0646474B1B6A13F0020F08D06A
:101B8400FFF7B0FA801B41F288339842F3D903205F
:101B940077E0E5B9E369002B72D03E4A526802F05F
:101BA4000C02082A56D0022B17D03B4B00221A668F
:101BB400FFF798FA0446374B1B6813F0007F47D0B1
:101BC400FFF790FA001B0228F5D9032059E0314AA7
:101BD400D36923F08053D361DCE72F4B00221A66CC
:101BE400FFF780FA05462B4B1B6813F0007F06D0E5
:101BF400FFF778FA401B0228F5D9032041E0236A55
:101C0400B3F5803F1AD023494B6823F47413226A36
:101C1400606A024313434B601F4B01221A66FFF7AD
:101C240061FA04461B4B1B6813F0007F0ED1FFF7CB
:101C340059FA001B0228F5D9032022E0154A5368FB
:101C440023F40033A1680B435360DCE7002018E061
:101C5400002016E0012B16D00E4B5B6803F4803194
:101C6400226A914211D103F47013626A93420ED135
:101C7400002006E001207047012002E0012000E07E
:101C8400002002B070BD0120FBE70120F9E701202C
:101C9400F7E700BF001002400000424286B0174B35
:101CA4000FCB0DF1180C0CE90F0040F20123ADF835
:101CB4000430134B5B6803F00C02082A02D011486D
:101CC40006B07047C3F3834218326A4412F8100C0A
:101CD40013F4803F0DD00A4B5B68C3F340431833C1
:101CE4006B4413F8143C074A02FB00F0B0FBF3F01A
:101CF400E6E7054B03FB00F0E2E700BF1C5D0008CC
:101D04000010024000127A0000093D00002800F093
:101D1400A08070B50D460446524B1B6803F00703C0
:101D24008B420BD24F4A136823F007030B43136013
:101D3400136803F007038B4240F08D80236813F08F
:101D4400020F17D013F0040F04D0474A536843F42A
:101D5400E0635360236813F0080F04D0424A5368C9
:101D640043F460535360404A536823F0F003A1687E
:101D74000B435360236813F0010F31D06368012BC8
:101D840020D0022B25D0384A126812F0020F64D0FA
:101D940035494A6822F0030213434B60FFF7A2F966
:101DA4000646314B5B6803F00C036268B3EB820FA9
:101DB40016D0FFF797F9801B41F288339842F0D987
:101DC400032045E0284A126812F4003FE0D10120C4
:101DD4003EE0254A126812F0007FD9D1012037E095
:101DE400204B1B6803F00703AB420AD91D4A136852
:101DF40023F007032B431360136803F00703AB427C
:101E04002DD1236813F0040F06D0174A536823F426
:101E1400E063E1680B435360236813F0080F07D0B5
:101E2400114A536823F46053216943EAC1035360A0
:101E3400FFF734FF0C4B5B68C3F303130B4AD35C0B
:101E4400D8400B4B18600B4B1868FFF707F90020BC
:101E540070BD012070470120FAE70120F8E7012056
:101E6400F6E700BF0020024000100240045D0008B5
:101E74000004002008040020014B1868704700BFCC
:101E84000004002008B5FFF7F7FF044B5B68C3F3B9
:101E94000223034AD35CD84008BD00BF00100240AF
:101EA400145D000808B5FFF7E7FF044B5B68C3F354
:101EB400C223034AD35CD84008BD00BF00100240CF
:101EC400145D00082DE9F04782B0054688461746A0
:101ED4001E46FFF707F90A9B1B1A03EB0609FFF7D7
:101EE40001F982462B4B1B68C3F3CB3309FB03F385
:101EF40001932B689C6838EA04030CBF4FF0010C73
:101F04004FF0000CBC4540D0B6F1FF3FF1D0FFF7D5
:101F1400E9F8A0EB0A0048450AD2B9F1000F07D04E
:101F2400019A02B14A46019B013B01939146E0E7C5
:101F34002A68536823F0E00353606B68B3F5827F2B
:101F44000BD0AB6AB3F5005F14D0012385F8513090
:101F5400002385F85030032018E0AB68B3F5004F38
:101F640002D0B3F5806FECD12A68136823F04003E4
:101F74001360E6E72A68136823F4005313602A68A1
:101F8400136843F400531360DFE7002002B0BDE898
:101F9400F08700BF0004002010B582B004460B4651
:101FA400009200228021FFF78DFF08B902B010BD16
:101FB400636D43F0200363650320F7E7002856D0E0
:101FC40010B50446436A33B94368B3F5827F05D03C
:101FD4000023C36102E00023036143610023A36281
:101FE40094F85130002B3CD0022384F851302268FD
:101FF400136823F040031360636803F48273A268D8
:1020040002F404421343E26802F4006213432269B7
:1020140002F002021343626902F001021343A2694F
:1020240002F400721343E26902F038021343226A95
:1020340002F080021343A26A02F40052216813439F
:102044000B60638B226803F0040353602268D36936
:1020540023F40063D36100206065012384F85130C8
:1020640010BD84F850302046FEF786FEBCE7012000
:102074007047000038B590F85030012B61D0044609
:10208400012380F8503090F85150EDB29D4252D166
:10209400002951D0002A4FD0032380F85130002367
:1020A400436501638286C2868363436403648387D2
:1020B400C3878368B3F5004F2AD0A36C224ADA623F
:1020C400A36C224A9A62A36C214A1A63A36C00226D
:1020D4005A632268E38E9BB20C32216BA06CFFF72B
:1020E400E9F80146F8B923681A6812F0400F03D1E1
:1020F4001A6842F040021A602268536843F02003D1
:1021040053602268536843F0020353600D4613E0A2
:102114000268136823F0400313600268136843F4F1
:1021240080431360C9E7636D43F0100363650123C3
:1021340084F8513000E00225002384F8503028460A
:1021440038BD0225FBE700BF5D2100088B21000894
:10215400692100087047704708B5406AFFF7FBFF24
:1021640008BD704708B5406A0268536823F003034A
:102174005360436D43F010034365012380F85130ED
:10218400FFF7EFFF08BD30B583B00546446AFEF79C
:10219400A9FF2B681B6813F0200F23D10246216886
:1021A4004B6823F020034B6021684B6823F0020343
:1021B4004B6064212046FFF7EFFE18B1636D43F0D6
:1021C40020036365A36833B901932368DA68019235
:1021D4009B680193019B0023E386012384F851301B
:1021E400636D23B92046FFF7B5FF03B030BD204629
:1021F400FFF7B7FFF9E7000010B50446026813695A
:1022040023F44053C1680B43136183680269134389
:1022140042691A430168CB6823F4B05323F00C03DA
:102224001343CB600268536923F4407381690B4301
:1022340053610268134B9A4220D0FFF723FE0246F3
:1022440002EB820202EB820263689B00B2FBF3F2B0
:102254000D48A0FB02314909642303FB11231B0130
:102264003233A0FB03235B0903F0F00202EB0112FB
:1022740003F00F03216813448B6010BDFFF712FEB7
:102284000246DDE7003801401F85EB512DE9F84394
:1022940005460F4616469946DDF820802C682468CA
:1022A40037EA04030CBF4FF0010C4FF0000CB445A7
:1022B4001FD1B8F1FF3FF1D0B8F1000F05D0FEF700
:1022C40011FFA0EB09004045E8D92A68D36823F43C
:1022D400D073D3602A68536923F001035361202328
:1022E40085F83D3085F83E30002385F83C300320E6
:1022F40000E00020BDE8F88358B310B5044690F818
:102304003D300BB3242384F83D302268D36823F492
:102314000053D3602046FFF76FFF2268136923F44C
:10232400904313612268536923F02A03536122689E
:10233400D36843F40053D36000202064202384F83E
:102344003D3084F83E3010BD80F83C30FEF724FE6A
:10235400D8E7012070472DE9F04182B01E4690F87D
:102364003D30DBB2202B54D104460D469046002963
:1023740053D0002A53D090F83C30012B51D0012384
:1023840080F83C3000230364212380F83D30FEF7BD
:10239400A9FE0746A4F82480A4F82680A368B3F510
:1023A400805F05D04FF00008002384F83C3012E031
:1023B400236913B14FF00008F6E7A8460025F3E7B8
:1023C40038F8023B2268C3F308035360E28C92B2EC
:1023D400013A92B2E284E38C9BB273B100963B461D
:1023E400002280212046FFF751FFE0B9002DE7D0FD
:1023F40015F8012B23685A60E8E700963B46002253
:1024040040212046FFF742FF78B9202384F83D306D
:1024140000E0022002B0BDE8F0810120FAE70120CB
:10242400F8E70220F6E70320F4E70320F2E70000D0
:10243400014B1868704700BF0C04002070B50D4EA6
:102444000D4D761BB61006D0002455F8043B01341C
:102454009847A642F9D1094E094D01F01DFD761B9E
:10246400B61006D0002455F8043B01349847A64220
:10247400F9D170BD385D0008385D0008405D000882
:10248400385D0008830730B548D0541E002A3FD079
:102494000346CAB201E0013C3AD303F8012B9D077D
:1024A400F9D1032C2DD9CDB245EA05250F2C45EAE7
:1024B400054536D9A4F1100222F00F0C03F1200EC9
:1024C400E6444FEA121C03F1100242E9045542E9C2
:1024D400025510327245F8D10CF1010214F00C0FC0
:1024E40003EB021204F00F0C13D0ACF1040323F03D
:1024F40003030433134442F8045B9342FBD10CF00E
:1025040003042CB1CAB21C4403F8012B9C42FBD136
:1025140030BD64461346002CF4D1F9E70346144653
:10252400BFE71A46A446E0E730B5054689B0084639
:102534000C4600F04FF801210223214A049406922C
:10254400AA6B04AC0590084401940791AC6802930B
:10255400039022B3636E13F0010FB4F90C309AB2F6
:1025640001D1980525D5910406D4626E43F4005335
:1025740022F40052A3816266284601AA214600F093
:1025840015F9636E002814BF4FF0FF350A25DA07EA
:1025940002D4A3899B0506D5284609B030BD284638
:1025A40000F05CF8D6E7A06D00F0A2FA284609B066
:1025B40030BDA06D00F09AFAB4F90C309AB2D2E7AB
:1025C400345D0008024B01461868FFF7ADBF00BF39
:1025D4000C04002020F0030110F00300C0F10000FF
:1025E40051F8043B00F1040C4FEACC0C6FF00002EC
:1025F4001CBF22FA0CF213434FF0010C4CEA0C2CD2
:102604004CEA0C4CA3EB0C0222EA030212EACC12B1
:1026140004BF51F8043B0430F4D0C2F1000102EAD3
:102624000102B2FA82F2C2F11F0200EBD20070473B
:10263400024B13B1024800F005B8704700000000D7
:1026440085270008002301461A46184601F094B86D
:10265400014900F023BA00BF2D3800082DE9F047E6
:102664008246394800F042FADAF83840002C66D144
:10267400042303223549DAF80450CAF83C10DFF881
:10268400D090DFF8D080344F344E0AF53B71CAE95C
:10269400B921CAF8E0422146EB600822C5E90044AA
:1026A400C5E904446C66AC60AC6105F15C00FFF7FD
:1026B400E9FEC5E90759C5E90987EE6205F1580045
:1026C40000F010FADAF80850254B2146EB60082296
:1026D400C5E90044C5E904446C66AC60AC6105F12D
:1026E4005C00FFF7CFFEC5E90759C5E90987EE622B
:1026F40005F1580000F0F6F9DAF80C50194B2146B0
:10270400EB600822C5E90044C5E904446C66AC608A
:10271400AC6105F15C00FFF7B5FE05F15800C5E9B1
:102724000759C5E90A76C5F8248000F0DBF90123CE
:102734000548CAF83830BDE8F04700F0D9B9024876
:10274400BDE8F04700F0D4B9201200205526000857
:10275400F1350008153600085536000875360008AE
:102764000900010012000200014800F0BFB900BFD7
:102774001C120020014800F0BBB900BF1C1200204D
:1027840038B5084B084D5B1B9C1007D0043B1D4417
:10279400013C55F804399847002CF9D1BDE838407C
:1027A40001F080BB445D0008405D00089368002B85
:1027B40000F0B7802DE9F04FB1F90C300C46190741
:1027C4008046174683B098B225D523691BB310F011
:1027D40002033D682DD04FF0000B5E46DFF8B8A22F
:1027E400002E00F08B80564533465A4628BF534688
:1027F4004046E169D4F824C0E047002840F38780CC
:10280400BB6883441B1A361ABB60002BE8D1002036
:1028140003B0BDE8F08F2146404600F043FF002896
:1028240040F03681B4F90C303D6898B210F00203E0
:10283400D1D110F0010976D14E46002E5AD082052E
:10284400D4F808B040F1B580B3455A4600F2CD80C3
:1028540010F4906F00F0CB8023682169A3EB010B87
:10286400636903EB430A0AEBDA7A0BF101034FEADB
:102874006A0A33445345524684BF9A465246430536
:1028840040F1EA801146404600F034F9002800F097
:10289400F9805A4621690190FDF7C2FCA289019B87
:1028A40022F4906242F08002A28103EB0B002361C8
:1028B4003246AAEB0B03B346C4F814A0A36020600D
:1028C400B24600264946019200F008FCA36821683C
:1028D400019AA3EB0B030A44A3602260B868D144B5
:1028E400A0EB0A00B860002891D0B4F90C0080B2C3
:1028F400002EA4D1D5E9009608359EE7D5E900B6A7
:1029040008356DE72146404601F086F880B3B4F9F6
:102914000C304FF0FF3043F04003A38103B0BDE817
:10292400F08F002070471E46AA46994618461D4659
:1029340056B3002832D04A4620682169B24228BFE3
:1029440032468842636904D9A16803EB010B5A45F6
:1029540074DC934265DC2A464046E169D4F824C01D
:10296400E047B0F1000BD2DDB9EB0B09CAD001206E
:10297400BB685D44A3EB0B03A6EB0B06BB60002B0B
:102984003FF445AF002ED4D10AF1080353F8046C88
:102994009A4653F8085C0833002EF7D032460A21D1
:1029A400284600F053FB002869D00130A0EB05094C
:1029B400C1E72068236998421BD86369B34218D8D9
:1029C4006FF0004CB44528BFB4469CFBF3FC4A4668
:1029D40003FB0CF34046E169D4F824C0E047B0F1AE
:1029E400000A94DDA6EB0A0678E7B346324620686F
:1029F40066E7B345DA4628BFB2464946524600F078
:102A04006DFBA3682268A3EB0A035244A36022600F
:102A1400002BE7D12146404600F0FEFF0028E1D01C
:102A240075E729469346019200F058FBA368019A82
:102A34009B1AA36023681A44226095E729465A46E4
:102A440000F04CFB236821465B444046236000F0C1
:102A5400E3FF002888D05AE7404600F0C7FB03464E
:102A640000287FF422AF4046216901F053F80C227C
:102A7400B4F90C30C8F8002023F0800349E7721C35
:102A8400914659E70C22B4F90C30C8F8002040E70D
:102A94004FF0FF30BCE600BF00FCFF7F2DE9F84398
:102AA4004FF000090746884600F53876D6E9015408
:102AB400013D10D4A389013D012B08D9B4F90E308E
:102AC400013304D021463846C04749EA00096B1C4B
:102AD40004F16804EED13668002EE7D14846BDE81B
:102AE400F88300BF704700BF704700BF704700BF46
:102AF400704700BF2DE9F04F01F10B05162D064676
:102B040083B025D8102900F2B88000F063FB1025AB
:102B140018224FF0020CB54F3A445368A2F1080151
:102B24008B4200F0B7805A68D96822F003021A4435
:102B34009C683046E1608C60516803F1080441F000
:102B44000101516000F04CFB204603B0BDE8F08F5A
:102B540035F0070500F19180A94200F28E8000F063
:102B640039FBB5F5FC7FC0F094816B0A00F08C80D2
:102B7400042B00F26A81AB0903F1390C03F1380428
:102B84004FEACC00994F384443680838984206D13C
:102B94000CE0002980F22681DB68984206D05A684E
:102BA40022F00302511B0F29F3DDA4463C69DFF830
:102BB40040E274457AD0626822F00302531B0F2B63
:102BC40000F37681002BC7E904EE80F26781B2F549
:102BD400007F80F019810121D30852090B449140F0
:102BE4007A6857F833000A4307EBC3010839A06039
:102BF400E1607A6047F83340C46001214FEAAC03D6
:102C04009940914259D8114206D12CF0030C490045
:102C140011420CF1040CFAD007EBCC094846644687
:102C2400D0F80C80404508D11CE1002B80F22181B2
:102C3400D8F80C80404500F01581D8F8042022F023
:102C44000302531B0F2BF0DD08EB050145F00105D2
:102C5400C8F804503046D8E90264F460A66043F032
:102C64000104C7E904114C60C1E902EE48F80230DE
:102C740000F0B6FA08F1080402E00C2300243360E3
:102C8400204603B0BDE8F08F4FF400704FF0400CC5
:102C94003F2477E7D3689A4208BF0CF1020C7FF413
:102CA40042AF3C69DFF848E1744584D101217A6878
:102CB4004FEAAC0399409142A5D9BC68636823F0FC
:102CC40003094D4503D8A9EB05030F2B7ADCDFF884
:102CD40024B1494BDBF800201B6801322B4404EB80
:102CE400090A00F02F8103F580530F3323F47F6822
:102CF40028F00F084146304600F066FC411C0246AD
:102D040000F0EF80824500F2EA803C4B19684144B0
:102D14000846196000F04981DBF800100193013185
:102D24001BBFA2EB0A0A5044CBF80020186012F033
:102D3400070B00F01181CBF108010A44CBF5805157
:102D440090440831A1EB0801C1F30B0A5146304607
:102D5400009200F039FC421CDDE9002300F04B81B5
:102D6400801A00EB0A08196848F001005144BC427B
:102D7400BA601960506000F02481B9F10F0F40F27D
:102D840022814FF0050E6068A9F10C0C2CF0070CA1
:102D940000F0010040EA0C006060BCF10F0F04EB8E
:102DA4000C00C0E901EE00F22E8114465068144B69
:102DB4001A688A4238BF1960124B1A688A4238BFAF
:102DC400196090E0621943F0010345F00105656064
:102DD4003046BA600834536000F002FA204603B06B
:102DE400BDE8F08FD9681A44A2E600BF3C08002071
:102DF40044080020440C0020541200202412002017
:102E04004C12002050120020B2F5206F4FEA5223DA
:102E14005FD3142B00F2B18003F15C01C9005B3372
:102E2400781879580838884200F08F804B6823F06E
:102E34000303934202D989688842F7D1C8687A6843
:102E4400C4E902108460CC60D7E6142B59D9542B02
:102E540000F29B802B0B03F16F0C03F16E044FEA1D
:102E6400CC008FE60134A30700F108007FF4D8AE4C
:102E740053E0444642445368D8F80C1043F001032D
:102E8400536054F8083F3046D9608B6000F0A8F9CD
:102E9400F6E64FEAD50C05F108023CE622445368F5
:102EA400304643F00103536000F09AF90834E7E632
:102EB400611945F00105656043F00105C7E9041196
:102EC4003046C1E902EE4D60A35000F089F90834A0
:102ED400D6E6930903F13901C9003833A0E7BC42AF
:102EE4005ED0BC68606820F003084545A8EB050384
:102EF40002D80F2B3FF766AF304600F071F900247B
:102F0400BEE603F15C0C03F15B044FEACC0039E646
:102F140059F808394B4540F095801CF0030F0CF12B
:102F2400FF3CF5D17B6823EA01037B6049009942A9
:102F34003FF6C3AE11B9C0E6490004341942FBD0D0
:102F4400A44669E603F11008D4E601229B109A40D6
:102F54007B681A437A6073E702EB08014942C1F3C4
:102F64000B0A51463046009200F02EFB431CDDE96B
:102F740000237FF4F5AEDA46F5E6542B26D8130B7E
:102F840003F16F01C9006E334AE7B3F5AA7F26D86F
:102F9400EB0B03F1780C03F177044FEACC00F1E575
:102FA400294B186840441860B6E6CAF30B0CBCF110
:102FB400000F7FF4B1AEBC68C84448F00100606003
:102FC400F5E61446F3E60123536095E7B3F5AA7FCB
:102FD40024D8D30B03F17801C900773320E740F2FA
:102FE4005452934224D8AB0C03F17D0C03F17C04BE
:102FF4004FEACC00C6E5ABF1080BD8444FF0000A09
:10300400A8EB0208AFE604F108013046009300F093
:1030140081FDBC68009B60681968C8E640F25451A1
:103024008B420BD8930C03F17D01C9007C33F7E686
:103034004FF47E704FF07F0C7E24A3E54FF47E7135
:103044007E23EDE67B6871E7241200205FFA81FCA1
:10305400810710D00346511E2AB90AE09A07184680
:103064000AD0013905D3184613F8012B6245F5D16E
:10307400704700207047114603290CD80029F8D066
:103084000346014401E08B42F3D0184613F8012BA8
:103094006245F8D1ECE7024610B54CEA0C2444EA48
:1030A40004441046036804326340A3F1013E2EEA4F
:1030B400030313F0803F04D1043903291046F0D8E8
:1030C40051B10346014401E08B4205D0184613F880
:1030D400012B6245F8D110BD002010BD88420DD9E6
:1030E4008B1883420AD900EB020CBAB1624613F87A
:1030F40001CD994202F801CDF9D170470F2A0ED8BB
:10310400034602F1FF3C4AB10CF1010C013B8C4433
:1031140011F8012B614503F8012FF9D1704740EAFA
:1031240001039B074FD1A2F1100370B501F1200CEC
:1031340023F00F0501F1100E00F11004AC441B093B
:103144005EF8105C0EF1100E44F8105C5EF81C5C26
:10315400103444F81C5C5EF8185C44F8185C5EF8A3
:10316400145CE64544F8145CEAD1013312F00C0F08
:1031740001EB031102F00F0400EB031327D08E467A
:10318400043C24F003064FEA940C1E441C1F5EF812
:10319400045B44F8045FB442F9D10CF1010402F079
:1031A400030203EB840301EB840102F1FF3C4AB107
:1031B4000CF1010C013B8C4411F8012B614503F81F
:1031C400012FF9D170BD034602F1FF3C9CE7224672
:1031D400EBE700BF0148FFF789BC00BF18120020CD
:1031E4000148FFF785BC00BF181200202DE9F84FF5
:1031F4001646002900F0988006F10B0580460C461F
:10320400FFF7E8FF162D5DD810252A46AE425ED89A
:1032140054F8041CA4F1080921F00307974262DA68
:10322400BC4B09EB0700D3F808C0844500F0978035
:10323400D0F804C02CF0010303445B68DB0768D4B6
:103244002CF0030C07EB0C03934247DACB0710D4A2
:1032540054F8083CA9EB030ADAF8043023F003011C
:103264008C44BC44944580F211817B18934280F2D3
:10327400E88031464046FFF73DFC0646E0B154F88D
:10328400043CA0F1080223F001034B44934200F0F4
:10329400D2803A1F242A00F2F580132A00F2AC806F
:1032A40003462246116819605168596092689A6011
:1032B4002146404600F02EFC4046FFF791FF304681
:1032C400BDE8F88F25F00705002D2A469EDA0C2369
:1032D4000026C8F800303046BDE8F88F1F46D0E914
:1032E4000223D3609A607B1B0F2B22D8D9F80430B9
:1032F40003F001033B43C9F804304F447B6843F0B7
:1033040001037B6026464046FFF76AFF3046BDE86E
:10331400F88FC907ADD454F8083CA9EB030ADAF8CE
:10332400041021F00301A0E71146BDE8F84FFFF7B0
:10333400E1BBD9F8041043F0010301F00101294372
:10334400C9F8041009EB05014B604F447B68404603
:1033540043F0010308317B6000F0DCFBD2E7DCF8CA
:10336400040020F0030B07EB0B0C05F1100084455F
:103374004DDAC9073FF57DAF54F8081CA9EB010AE3
:10338400DAF8041021F003018B44BB4458453FF79D
:103394006CAF5646DAF80C1056F8080F3A1F242A78
:1033A400C160886000F2DB80132A40F2D680216875
:1033B4001B2ACAF808106168CAF80C1000F2E080F1
:1033C40008340AF110022168116061685160A16833
:1033D4009160ABEB05020AEB050142F00102996032
:1033E4004A60DAF80430404603F001031D43CAF88A
:1033F4000450FFF7F5FE6EE723681B2A0360636839
:10340400436068D804F1080200F108034AE709EBB5
:103414000502ACEB050C9A604CF00103536054F8C0
:10342400043C404603F001031D4344F8045CFFF7E9
:10343400D7FE26464FE750F8043C23F003031F440D
:1034440051E75646DAF80C1056F8080F3A1F242AAA
:10345400C16088604CD8132A48D921681B2ACAF84D
:1034640008106168CAF80C1056D808340AF1100222
:103474001F462368D146136063685360A3683446CB
:10348400936030E72146FFF729FE11E75646D0E95D
:103494000213CB60996056F8081FDAF80C303A1F13
:1034A400242ACB6099602DD8132A29D923681B2A92
:1034B400CAF808306368CAF80C3042D808340AF1F4
:1034C4001003226867461A606268D1465A60A2688F
:1034D40034469A6007E7A368242A8360E368C360DC
:1034E40026D004F1100200F11003DBE63246BFE7F8
:1034F400214630461F46D146FFF7F0FD3446F2E63A
:103504003346DEE7214630466746D146FFF7E6FDFF
:103514003446E8E63C080020A168242ACAF81010C2
:10352400E168CAF8141020D010340AF118029FE799
:10353400236904F1180203616369436100F118030C
:10354400B0E6A368242ACAF81030E368CAF8143035
:1035540022D010340AF11803B3E7324633E7214688
:103564003046FFF7BBFD174B33E722691834CAF81E
:10357400182054F8042CCAF81C200AF1200277E71A
:10358400A168242ACAF81010E168CAF814100ED0F1
:1035940010340AF1180216E723691834CAF81830EF
:1035A40054F8043CCAF81C300AF1200389E7226964
:1035B4001834CAF8182054F8042CCAF81C200AF14C
:1035C400200200E73C080020002238B5064D0446DE
:1035D40008462A60FDF7A0FC431C00D038BD2B68C8
:1035E400002BFBD0236038BD5812002010B50C46C8
:1035F400B1F90E1000F014FC002803DB236D034422
:10360400236510BDA38923F48053A38110BD00BF9B
:103614002DE9F0410C46B1F90C101F46CB050546C7
:1036240016460BD421F48051A1813B4632462846EC
:10363400B4F90E10BDE8F04100F01EB8B4F90E1054
:103644000223002200F066FBB4F90C10EAE700BF85
:1036540010B50C46B1F90E1000F05CFBA389421CB6
:103664000EBF23F4805343F480532065A38110BD1F
:10367400B1F90E1000F0C6B838B50C461146002258
:103684008446074D20462A601A466446FDF72AFC04
:10369400431C00D038BD2B68002BFBD0236038BD01
:1036A4005812002038B5334B05461B680C460BB145
:1036B4009A6B12B3B4F90C3018079AB225D5216964
:1036C40000292DD012F0010007D000256069A56003
:1036D4004042A06139B1002038BD950758BF6069E8
:1036E400A0600029F7D1120658BF0846F4D543F06C
:1036F40040034FF0FF30A38138BD1846FEF7AEFFFC
:10370400B4F90C3018079AB2D9D4D1062AD5520785
:1037140014D4216943F00803A3819AB20029D1D1BA
:1037240002F42070B0F5007FCCD02146284600F08A
:1037340007FBB4F90C3021699AB2C3E7216B51B18C
:1037440004F14002914204D0284600F0E3F9B4F9B0
:103754000C30002222630022216923F02403C4E9EF
:103764000012D7E7092243F040032A604FF0FF30EC
:10377400A38138BD0C0400202DE9F047DFF87CA0BC
:103784000646DAF8000098460F469146FFF7AEF970
:103794001B4B1B68D3F8484124B365681F2D26DCF6
:1037A4005EB96B1C0235DAF80000636044F82570DA
:1037B400FFF79EF90020BDE8F087012304EB8501A3
:1037C400C1F88890D4F88821AB401A43022EC4F87B
:1037D4008821C1F80881E4D1D4F88C211343C4F8BA
:1037E4008C31DEE703F5A674C3F84841D5E7DAF86F
:1037F4000000FFF77DF94FF0FF30DCE738080020C8
:10380400305D0008002238B5064D044608462A609B
:10381400FDF776FB431C00D038BD2B68002BFBD092
:10382400236038BD5812002070B500294BD00646DD
:103834000C4610B1836B002B48D0636ED80734D587
:10384400B4F90C30002B3ED02146304600F052F83B
:10385400E36A054633B13046E16998470028B8BFAA
:103864004FF0FF35A3891A063BD4216B41B104F113
:103874004003994202D0304600F04CF90023236300
:10388400616C21B1304600F045F900236364FEF712
:103894006BFF0022636EA281DB0727D5A06DFFF7C3
:1038A40023F9FEF767FF284670BDA3899905CBD499
:1038B400A06DFFF71BF9B4F90C30002BC4D1656E71
:1038C40015F0010508D00025284670BDFEF7C6FE98
:1038D400636ED807B4D4E8E7A06DFFF709F928466A
:1038E40070BD3046216900F015F9BEE7A06DFFF701
:1038F400FFF8D3E7B1F90C20F8B50C4611070746D9
:1039040043D4636842F40062002BA2815BDDA56AA4
:10391400002D56D000233E683B6093B212F48052CF
:1039240055D101233846E169A847421C65D0A389D3
:10393400A56A5B0705D56368C01A236B0BB1E36BFB
:10394400C01A0246E16900233846A847411C40D109
:103954003B68002B3DD01D2B01D0162B54D10022E7
:10396400A38923F40063A3812369C4E90032216B92
:103974003E6031B304F14003994202D0384600F06E
:10398400C9F8002318462363F8BD2669CEB193B263
:103994009A0718BF0023256808BF63692660AD1B1A
:1039A400A3600CE02B463246D4F824C03846E169C3
:1039B400E047B0F1000CA5EB0C05664416DD002DC4
:1039C400F0DC0020F8BDE36B002BA0DCF9E7206DF0
:1039D400AFE70022B4F90C30626023F4006322697B
:1039E400A381DB042260C2D52065C0E7A3894FF020
:1039F400FF3043F04003A381F8BD3B68002B96D011
:103A04001D2B06D0162B04D0A38943F04003A381B9
:103A1400F8BD00203E60F8BD38B505460C4608B137
:103A2400836BA3B1B4F90C00B8B1636EDB0701D4A6
:103A3400810515D528462146FFF75CFF636E0546D0
:103A4400DA0702D4A3899B050ED5284638BDFEF7B4
:103A540005FEB4F90C000028E7D10546284638BD18
:103A6400A06DFFF743F8E5E7A06DFFF741F828469E
:103A740038BD00BFF8B50C46234F0646FFF7AAFB36
:103A8400BB685D68C4F57E6325F003050F332B44E2
:103A940023F47F6323F00F03A3F58054B4F5805F10
:103AA40007DB00213046FFF78FFDBB682B449842AB
:103AB40004D03046FFF794FB0020F8BD3046614245
:103AC400FFF782FD01300DD0104ABB682D1B45F075
:103AD40001055D60136830461B1B1360FFF780FB14
:103AE4000120F8BD00213046FFF76EFDBA68831A45
:103AF4000F2BDEDD43F001035360054B03491B68C4
:103B0400C01A0860D5E700BF3C080020241200203A
:103B1400440C002000295ED0F8B50C460646FFF799
:103B240059FB54F8042C784FA4F1080522F0010144
:103B34006818D7F808C04368844523F0030300F0ED
:103B44008780D207436034D454F8082C07F1080462
:103B5400AD1A1144AA68A24268D000EB030CDCF849
:103B640004E0D5F80CC01EF0010FC2F80CC0CCF86C
:103B7400082000F0918041F001036B600160B1F511
:103B8400007F31D24A09CB08012191407A68013380
:103B94001143796007EBC30257F83310083AC5E9BB
:103BA400021247F83350CD603046BDE8F840FFF7C5
:103BB40017BBC2185268D2070ED4194407F108047F
:103BC4008368A34270D0C268DA60936041F0010355
:103BD4006B606950D3E7704741F00103B1F5007F92
:103BE40044F8043C0160CDD3B1F5206F4FEA512372
:103BF40047D28B0903F1390003F13802C300F818E6
:103C0400FB580838984258D05A6822F003028A4276
:103C140002D99B689842F7D1D868C5E9023085601B
:103C24003046DD60BDE8F840FFF7DABAC2185268E2
:103C3400D20763D40B44D0E90212CA60916043F006
:103C440001026A603046EB50BDE8F840FFF7C8BA9D
:103C54000B44D10707D454F8082CAD1A1344D5E902
:103C64000212CA60916043F001026A60274ABD6093
:103C740012689A4298D8264B30461968FFF7FAFE24
:103C840092E7142B0AD9542B1FD80B0B03F16F00A6
:103C940003F16E02C300B2E7194491E703F15C003B
:103CA40003F15B02C300AAE741F00103C7E904552D
:103CB400C5E902446B60695076E70121921001FA6C
:103CC40002F279680A437A60A7E7B3F5AA7F06D8B7
:103CD400CB0B03F1780003F17702C3008FE740F2C6
:103CE4005452934206D88B0C03F17D0003F17C02FD
:103CF400C30084E74FF47E737E2280E741F0010322
:103D04006B60016050E700BF3C080020480C0020B5
:103D14005412002038B50C46114600228446074D43
:103D240020462A601A466446FDF7F4F8431C00D086
:103D340038BD2B68002BFBD0236038BD58120020FF
:103D44002DE9F0418B890C46990796B008D50122DC
:103D540004F14303C4E90432236016B0BDE8F081E2
:103D6400B4F90E100646002927DB6A4600F06EF807
:103D7400002821DB019D4FF4806805F47045A5F50A
:103D84000055B5FA85F54FF400676D094146304694
:103D9400FEF7B0FEB4F90C30F0B1204A43F08003D2
:103DA400F263C4F81480A3812060206135BB3B43D7
:103DB400A38116B0BDE8F081A38913F0800519D062
:103DC4004FF04008304641460025FEF793FE2F464B
:103DD400B4F90C300028E0D19A05BED4012123F0B7
:103DE400030304F1430243F00203C4E90421A38161
:103DF4002260B2E74FF480682F46C7E73046B4F933
:103E04000E1000F037F810B9B4F90C30CFE7A389DD
:103E140023F0030343F001031BB2C8E7552600084F
:103E240038B50C46114600228446074D20462A60C8
:103E34001A466446FDF746F8431C00D038BD2B688B
:103E4400002BFBD0236038BD5812002070B500262B
:103E5400074D0446084611462E60FDF754F8431CEE
:103E640000D070BD2B68002BFBD0236070BD00BF59
:103E740058120020002238B5064D044608462A6030
:103E8400FDF746F8431C00D038BD2B68002BFBD04F
:103E9400236038BD58120020F8B500BFF8BC08BC38
:103EA4009E467047F8B500BFF8BC08BC9E467047F4
:103EB4009000FF00535049B2E2CAD4C0FDB3CC0015
:103EC4005A484F4E474A494E475955414E00000003
:103ED400323031342F30352F3031000041534349D3
:103EE400493A0000434F44453A0000004142430030
:103EF4000000F010101010FF10101010F00000005F
:103F040000000F04040404FF040404040F00000070
:103F14004040405F555555755555555F40404000EC
:103F24000040200F094989790909090F2040000040
:103F340000FE02424ACA4A4ACA4A4A4202FE0000F3
:103F440000FF40504C4340404F50505C40FF000045
:103F54000000F888888888FF88888888F80000002E
:103F640000001F080808087F888888889F80F00060
:103F740080828282828282E2A2928A868280800009
:103F8400000000000040807F0000000000000000EE
:103F9400101010FF109008888888FF88888808000F
:103FA4000444827F01808040432C10284681800095
:103FB4000010101010D030FF30D0121C1010000070
:103FC40010080402010000FF0000010204081000B0
:103FD40004040484E43C2724242424E40404040086
:103FE40004020100FF0909090949897F0000000052
:103FF40000FE225A8600FE9292929292FE000000E7
:1040040000FF04080700FF4020030C142241400075
:10401400008040201806800007182040800000001F
:10402400010020702826212020243860000101008E
:10403400001012929292929292121202FE000000CA
:104044000000003F101010103F0040807F0000006F
:10405400000000C080808080808080FC848080801C
:10406400808080C0C0000000000000FF7F4040400E
:10407400404040FF40404040404040FF7F0000003F
:1040840000000000000000000000007F700000003D
:10409400000000000000000000000000000000001C
:1040A40000000000000000FCF80000000000000018
:1040B400000000000000000000000000FFFE0202FB
:1040C40002020202020202FFFF02020202020202D2
:1040D4000202FF0300000000000000001F1F040490
:1040E40004040404040404FFFF0404040404040496
:1040F40004041F0000000000000000000000000095
:10410400000000000000007F3F00000000000000ED
:10411400000000000000000000000000000000009B
:10412400000000000000000000000000000000008B
:104134000000000000F8F8F0F0702000000000001B
:10414400000000000000000000000000000000006B
:10415400000000000000000000000000000000005B
:1041640080000000000000000000000000000000CB
:104174000000000000FFFFFFFF000000000000003F
:10418400000000000000000000000000808000002B
:10419400000000000000000000000000000000001B
:1041A40000FFFFFE060606060606060606060606C7
:1041B4000606060606FFFFFFFF06060606060606B7
:1041C4000606060606060606060606FFFFFFFF07A6
:1041D40002000000000000000000000000000000D9
:1041E40000FFFFFF000000000000000000000000CE
:1041F4000000000000FFFFFFFF00000000000000BF
:104204000000000000000000000000FFFFFFFF00AE
:10421400000000000000000000000000000000009A
:1042240000FFFFFF1818181818181818181818186D
:104234001818181818FFFFFFFF181818181818185E
:104244001818181818181818181818FFFFFFFF0066
:10425400000000000000000000000000000000005A
:104264000201010000000000000000000000000046
:104274000000000000FFFFFFFF000000000000003E
:104284000000000000000000000000010100000028
:10429400000000000000000000000000000000001A
:1042A400000000000000000000000000000000000A
:1042B4000000000000FFFFFFFF00000000000000FE
:1042C40000000000000000000000000000000000EA
:1042D40000000000000000000000000000000000DA
:1042E40000000000000000000000000000000000CA
:1042F40000000000001F1F0F0F000000000000005E
:1043040000000000000000000000000000000000A9
:104314000000000000000000000000000000000099
:10432400002F000000000700070000147F147F1412
:1043340000242A7F2A120062640813230036495598
:10434400225000000503000000001C224100000070
:1043540041221C000014083E08140008083E080806
:10436400000000A060000008080808080000606061
:104374000000002010080402003E5149453E0000A0
:10438400427F4000004261514946002141454B3182
:10439400001814127F10002745454539003C4A494E
:1043A40049300001710905030036494949360006C0
:1043B4004949291E00003636000000005636000028
:1043C40000081422410000141414141400004122A3
:1043D400140800020151090600324959513E007C7B
:1043E4001211127C007F49494936003E4141412265
:1043F400007F4141221C007F49494941007F09094E
:104404000901003E4149497A007F0808087F0000FD
:10441400417F4100002040413F01007F08142241B8
:10442400007F40404040007F020C027F007F040870
:10443400107F003E4141413E007F09090906003ECC
:104444004151215E007F09192946004649494931F5
:104454000001017F0101003F4040403F001F204018
:10446400201F003F4038403F0063140814630007D6
:104474000870080700615149454300007F4141002D
:1044840000552A552A55000041417F0000040201CD
:1044940002040040404040400000010204000020AB
:1044A40054545478007F48444438003844444420E9
:1044B40000384444487F00385454541800087E0996
:1044C40001020018A4A4A47C007F0804047800005E
:1044D400447D4000004080847D00007F102844001B
:1044E4000000417F4000007C04180478007C08042C
:1044F400047800384444443800FC24242418001868
:10450400242418FC007C0804040800485454542053
:1045140000043F444020003C4040207C001C2040DC
:10452400201C003C4030403C004428102844001C1F
:10453400A0A0A07C004464544C4414141414141417
:104544000000000000000000000000000000FC006B
:104554000000000002000000000C020C0200000039
:104564000000000090D0BCD0BC9000030003000009
:104574001824FE448C000302070201001824D8B05A
:104584004C80000300010201C038E438E00001025D
:104594000201020208060000000000000000000002
:1045A400000000F80402000000010204000204F804
:1045B40000000004020100009060F8609000000018
:1045C400010000002020FC20200000000100000069
:1045D4000000000000000806000000002020202049
:1045E40020000000000000000000000000000002A5
:1045F400000000000080601C0200040300000000B2
:10460400F8040404F8000102020201000008FC009E
:10461400000000020302000018844424180003026E
:104624000202020008042424D8000102020201004C
:1046340040B088FC80000000000302003C242424D5
:10464400C400010202020100F824242CC00001026B
:10465400020201000C04E41C04000000030000003A
:10466400D8242424D800010202020100384444441E
:10467400F800000302020100000010000000000026
:1046840002000000000020000000000006000000FE
:1046940000205088040200000000010290909090D5
:1046A4009000000000000000000204885020000276
:1046B400010000001804C4241800000002000000D7
:1046C400F804E494F80001020202020000E09CF005
:1046D400800002030000030204FC2424D800020327
:1046E40002020100F80404040C00010202020100A9
:1046F40004FC0404F80002030202010004FC247414
:104704000C0002030202030004FC24740C000203E4
:1047140002000000F0080444CC4000010202010041
:1047240004FC2020FC040203000003020404FC0433
:104734000400020203020200000404FC0404060450
:104744000403000004FC24D00C040203020003024E
:1047540004FC04000000020302020203FC3CC03C0F
:10476400FC0003000300030004FC30C4FC04020347
:1047740002000300F8040404F8000102020201002C
:1047840004FC24241800020302000000F8848404BA
:10479400F80001020207050004FC246498000203E7
:1047A40002000302182424448C00030202020100C4
:1047B4000C04FC040C0000020302000004FC0000D2
:1047C400FC04000102020100047C80E01C040000DF
:1047D400030000001CE03CE01C0000030003000098
:1047E400049C609C0400020300030200041CE01CFF
:1047F40004000002030200000C84641C0400020391
:10480400020203000000FE0202000000070404008C
:10481400000E30C00000000000010200000202FE91
:10482400000000040407000000040204000000006B
:104834000000000000000000000008080808080844
:104844000000020000000000000000000040A0A0E2
:10485400C00000010202030204FC2020C000000387
:104864000202010000C020206000000102020200D8
:1048740000C02024FC0000010202030200C0A0A02A
:10488400C0000001020202000020F82424040002F7
:10489400030202000040A0A0602000070A0A0A04E4
:1048A40004FC2020C0000203020003020020E400F4
:1048B4000000000203020000000020E400000808D9
:1048C4000807000004FC80E0202002030200030229
:1048D4000404FC000000020203020200E020E020C5
:1048E400C00003000300030020E02020C0000203F6
:1048F4000200030200C02020C000000102020100E7
:1049040020E02020C000080F0A02010000C020207F
:10491400E0000001020A0F0820E04020200002030A
:10492400020000000060A0A02000000202020300B8
:104934000020F820000000000102020020E0002016
:10494400E00000010202030220E020806020000059
:10495400030100006080E0806000000300030000A9
:1049640020608060200002030003020020E0208019
:1049740060200808070100000020A0602000000259
:1049840003020200000020DE020000000007040011
:10499400000000FF00000000000F00000002DE2005
:1049A40000000004070000000201020404020000E9
:1049B40000000000000000000000000000000000F3
:1049C40000000000000000F80000000000000033B8
:1049D4003000000000100C06100C0600000000005F
:1049E4000000000040C07840C0784000043F040448
:1049F4003F040400007088FC08300000001820FF09
:104A0400211E0000F008F000E018000000211C0343
:104A14001E211E0000F00888700000001E212324BF
:104A24001927211010160E000000000000000000DD
:104A340000000000000000E018040200000000076D
:104A44001820400000020418E00000000040201874
:104A540007000000404080F0804040000202010F47
:104A640001020200000000F0000000000101011F2B
:104A740001010100000000000000000080B070008F
:104A8400000000000000000000000000000101011F
:104A940001010101000000000000000000303000AE
:104AA4000000000000000000806018040060180688
:104AB4000100000000E010080810E000000F1020C2
:104AC40020100F00001010F8000000000020203F0C
:104AD4002020000000700808088870000030282496
:104AE4002221300000300888884830000018202037
:104AF40020110E000000C02010F80000000704245C
:104B0400243F240000F808888808080000192120A0
:104B140020110E0000E0108888180000000F1120FA
:104B240020110E0000380808C83808000000003FB3
:104B3400000000000070880808887000001C222112
:104B440021221C0000E010080810E00000003122BF
:104B540022110F00000000C0C0000000000000305F
:104B640030000000000000800000000000008060B1
:104B74000000000000008040201008000001020432
:104B84000810200040404040404040000404040419
:104B940004040400000810204080000000201008D5
:104BA40004020100007048080808F000000000300A
:104BB40036010000C030C828E810E0000718272498
:104BC40023140B000000C038E0000000203C230246
:104BD4000227382008F8888888700000203F2020A9
:104BE40020110E00C03008080808380007182020DB
:104BF4002010080008F808080810E000203F2020D2
:104C040020100F0008F88888E8081000203F2020B2
:104C14002320180008F88888E8081000203F2000A6
:104C240003000000C03008080838000007182020DE
:104C3400221E020008F808000008F808203F21019D
:104C440001213F20000808F8080800000020203F48
:104C54002020000000000808F8080800C0808080B8
:104C64007F00000008F888C028180800203F2001B1
:104C74002638200008F8080000000000203F20200B
:104C84002020300008F8F800F8F80800203F003F22
:104C9400003F200008F830C00008F808203F20003A
:104CA40007183F00E01008080810E0000F1020204B
:104CB40020100F0008F808080808F000203F210120
:104CC40001010000E01008080810E0000F18242477
:104CD40038504F0008F8888888887000203F2000EA
:104CE400030C3020007088080808380000382021A0
:104CF40021221C00180808F8080818000000203FAA
:104D04002000000008F808000008F808001F202010
:104D140020201F000878880000C8380800000738E1
:104D24000E010000F80800F80008F800033C070032
:104D3400073C0300081868808068180820302C039A
:104D4400032C30200838C800C83808000000203F71
:104D54002000000010080808C83808002038262160
:104D640020201800000000FE020202000000007F64
:104D740040404000000C30C0000000000000000172
:104D84000638C00000020202FE000000004040405D
:104D94007F00000000000402020204000000000082
:104DA40000000000000000000000000080808080FF
:104DB40080808080000202040000000000000000E7
:104DC4000000000000008080808000000019242280
:104DD40022223F2008F8008080000000003F1120BC
:104DE40020110E000000008080800000000E1120C1
:104DF40020201100000000808088F800000E11209F
:104E040020103F200000808080800000001F2222AC
:104E140022221300008080F0888888180020203F18
:104E2400202000000000808080808000006B94942B
:104E34009493600008F8008080800000203F2100E7
:104E440000203F2000809898000000000020203FB0
:104E540020200000000000809898000000C080809E
:104E6400807F000008F8000080808000203F24023A
:104E74002D302000000808F8000000000020203F2A
:104E8400202000008080808080808000203F2000DF
:104E94003F20003F8080008080800000203F210070
:104EA40000203F200000808080800000001F202020
:104EB40020201F00808000808000000080FFA1204F
:104EC40020110E000000008080808000000E112060
:104ED40020A0FF80808080008080800020203F21EF
:104EE40020000100000080808080800000332424A2
:104EF40024241900008080E0808000000000001F4E
:104F0400202000008080000000808000001F2020FE
:104F140020103F20808080000080808000010E30BF
:104F24000806010080800080008080800F300C0320
:104F34000C300F0000808000808080000020312E23
:104F44000E312000808080000080808080818E70FF
:104F54001806010000808080808080000021302CB1
:104F64002221300000000000807C020200000000CA
:104F7400003F404000000000FF000000000000006F
:104F8400FF0000000002027C800000000040403F5F
:104F940000000000000601010202040400000000F9
:104FA40000000000000000000000000000000000FD
:104FB40000000000000000000000000000000000ED
:104FC40000000000000000000000000000F0F0F00D
:104FD400000000000000000000017F01000000004C
:104FE40000000000001C1C1C000000000000806089
:104FF400301C8C60301C0C0000000000000000001D
:10500400000000000000000000000000000000009C
:10501400000000E00000000000E000000086E69FC1
:1050240086868686E69F860000011F010101010134
:105034001F010100000080C06020F820E0C00000D3
:10504400000003070C18FF70E18100000000070F47
:1050540010107F100F0700008060206080000000A7
:10506400E02000000F3020309F70DC371030C0008B
:105074000000100E03000718101807000000C020DD
:1050840020E0C0000000000080E01F38E88703C46F
:105094003C040000070F1810100B070D1010080037
:1050A40000808C4C3800000000000000000000006C
:1050B40000000000000000000000000000000000EC
:1050C4000000000000000000000080E03008040040
:1050D4000000000000FEFF010000000000000000CE
:1050E4000000030F1820400000040830E080000096
:1050F400000000000000000001FFFE0000000000AE
:10510400004020180F030000000000000000000011
:105114000000C00000000000004266663C18FF1852
:105124003C6666420000000000000300000000002E
:1051340000000000000080000000000000101010BB
:105144001010FF10101010100000000000000300E9
:10515400000000000000000000000000000000004B
:1051640000000000000000000000000000808C4CE3
:1051740038000000000000000000000000000000F3
:10518400000000000010101010101010101010007B
:10519400000000000000000000000000000000000B
:1051A40000000000000000000000000000000000FB
:1051B4000000000000001C1C1C0000000000000097
:1051C4000000000000000000E0380C0000000000B7
:1051D40080701C03000000000060380E0100000015
:1051E40000000000000080C060202060C08000003B
:1051F40000FEFF010000000001FFFE000001070E99
:10520400181010180E0701000000808080C0E00014
:10521400000000000000000000FFFF00000000008C
:1052240000001010101F1F101010000000804020FC
:1052340020202060C080000000030300804020384C
:105244001F070000001C1A1918181818181F00004E
:105254000080C020202060C0800000000003030004
:105264001010182FE780000000070F1010101018FE
:105274000F070000000000000000C0E0F000000084
:1052840000C0B088868180FFFF808000000000009D
:105294000010101F1F1010000000E06060606060CC
:1052A4006060000000003F1008080818F0E00000EB
:1052B40000070B101010101C0F030000000080C02A
:1052C40040202020E0C0000000FCFF211008080856
:1052D40018F0E0000001070C18101010080F03006C
:1052E4000000C0E06060606060E0600000000300F7
:1052F4000000E0180700000000000000001F1F006D
:10530400000000000080C0602020202060C08000D9
:105314000087EF2C1818303068CF830000070F087F
:1053240010101010180F07000000C0C0202020200B
:10533400C0800000001F3F604040402010FFFE007E
:1053440000000C1C101010080F03000000000000E7
:10535400000000000000000000000000000E0E0E1F
:105364000000000000000000001C1C1C00000000E5
:105374000000000000000000000000000000000029
:10538400000C0C0000000000000000000058380071
:105394000000000000000000000000804020100019
:1053A40000001028448201000000000000000000FA
:1053B40000000102040810000000000000000000CA
:1053C40000000000008484848484848484848400B1
:1053D4000000000000000000000000000000102099
:1053E4004080000000000000000000000000018276
:1053F400442810000000100804020100000000000E
:1054040000C020201010101030E0C0000003030082
:1054140000F010080C070300000000001C1C1C0016
:1054240000000000000000C0406020202040C000B8
:1054340000FCFF01F00E03C1FE03807F0001070E94
:1054440008111110110904020000000080E0E000BE
:10545400000000000000807C4340477FF88000008B
:1054640010181F1000000000131F1C1020E0E02083
:1054740020202060C080000000FFFF1010101018D2
:105484002FE78000101F1F1010101010180F0700B6
:10549400000080C0402020202060E00000FCFF01CC
:1054A40000000000000001000001070E1810101099
:1054B4000804030020E0E02020202040C0800000F9
:1054C40000FFFF000000000001FFFE00101F1F107E
:1054D400101018080E07010020E0E02020202020F2
:1054E4002060800000FFFF101010107C00000000FE
:1054F400101F1F10101010101018060020E0E020DC
:10550400202020206060800000FFFF101010107C1D
:1055140000000100101F1F10000000000000000028
:10552400000080C06020202040E0000000FCFF015B
:1055340000004040C0C140400001070E1810101088
:105544000F0F000020E0E0200000000020E0E02039
:1055540000FFFF101010101010FFFF00101F1F108D
:1055640000000000101F1F100000202020E0E02099
:10557400202000000000000000FFFF0000000000E9
:1055840000001010101F1F10101000000000000079
:10559400202020E0E020202000000000000000FF88
:1055A400FF0000000060E0808080C07F3F000000BA
:1055B40020E0E020000020A06020200000FFFF3059
:1055C400187CE3C000000000101F1F10000001132E
:1055D4001F1C181020E0E020000000000000000064
:1055E40000FFFF000000000000000000101F1F105B
:1055F400101010101018060020E0E0E00000000079
:10560400E0E0E02000FF013FFEC0E01E01FFFF00DC
:10561400101F1000031F0300101F1F1020E0E0C024
:10562400000000000020E02000FF0003071C78E0D9
:105634008000FF00101F100000000000030F1F0077
:10564400000080C060202060C080000000FEFF01D8
:105654000000000000FFFE000001070E18101018E3
:105664000C07010020E0E0202020202060C0800002
:1056740000FFFF2020202020301F0F00101F1F10CC
:105684000000000000000000000080C060202060D6
:10569400C080000000FEFF010000000000FFFE00CB
:1056A4000001070E1111133C7C67210020E0E0206B
:1056B4002020202060C0800000FFFF101030F0D0B8
:1056C400080F0700101F1F10000000030F1C10100C
:1056D4000080C060202020204040E00000070F0C24
:1056E4001818303060E08100001F0C0810101010F2
:1056F400180F07008060202020E0E0202020608038
:105704000100000000FFFF00000000010000000095
:10571400101F1F100000000020E0E0200000000027
:105724000020E02000FFFF00000000000000FF0058
:1057340000070F1810101010100807002060E0E098
:105744002000000020E060200000077FF880008037
:105754007C03000000000000071F1C07000000007D
:1057640020E0E02000E0E0200020E0200007FFF837
:10577400E01FFFFCE01F00000000031F0300011FE7
:1057840003000000002060E0A0000020E060200092
:10579400000000038F7CF8C6010000000010181EF2
:1057A400130001171F1810002060E0E02000000023
:1057B40020E06020000001073EF8E0180700000028
:1057C40000000010101F1F10100000000080602057
:1057D400202020A0E0E0200000000000C0F03E0FE8
:1057E4000300000000101C1F1710101010180600F2
:1057F4000000000000FC0404040404000000000095
:1058040000FF00000000000000000000007F404096
:1058140040404000000010E00000000000000000D4
:1058240000000000031C6080000000000000000075
:10583400000000030C70800000000404040404FC55
:105844000000000000000000000000FF0000000055
:10585400000040404040407F000000000000001075
:10586400080C040C081000000000000000000000F8
:105874000000000000000000000000000000000024
:105884000000000000000000000000000000000014
:105894000000000000000000808080808080808004
:1058A40080808080000000040408080000000000DC
:1058B40000000000000000000000000000000000E4
:1058C40000000000000000000000000000000000D4
:1058D40000000000000098D844642424FCF8000070
:1058E400000F1F18101010081F1F10180020E0F0E0
:1058F40000000000000000000000FFFF180804047E
:105904000CF8F00000001F0F18101010180F0300FF
:1059140000000000000000000000000000E0F81893
:105924000404043C3800000000030F0C1010101095
:10593400080600000000000000000020E0F0000065
:1059440000E0F81C04040408FFFF000000030F1823
:10595400101010081F0F08000000000000000000D5
:10596400000000000000E0F8484444444C78700013
:105974000000030F0C1810101008040000000000B1
:1059840080C0602020E0C00000040404FFFF040481
:1059940004040000000010101F1F1010100000006D
:1059A400000000000000000000000000000070F88B
:1059B4008C04048CF874040C007076CF8D8D8D8962
:1059C400C87870000020E0F0000000000000000033
:1059D4000000FFFF08040404FCF8000000101F1F6F
:1059E400100000101F1F1000000000000060600085
:1059F400000000000000040404FCFC00000000009F
:105A040000001010101F1F101010000000000000F4
:105A1400000000606000000000000000040404FCBA
:105A2400FC0000000000C0C08080C07F3F00000078
:105A34000020E0F000000000000000000000FFFF74
:105A440080C0F41C0404000000101F1F1100031F79
:105A54001C1010000000202020E0F00000000000D6
:105A64000000000000FFFF00000000000000101014
:105A7400101F1F10101000000000000000000000A4
:105A84000000000004FCFC0804FCFC0804FCFC000E
:105A9400101F1F10001F1F10001F1F100000000008
:105AA40000000000000000000004FCFC08080404DE
:105AB400FCF8000000101F1F100000101F1F100032
:105AC40000000000000000000000000000E0F018EA
