:020000040800F2
:10000000000002202D0C00087D0A00087F0A00086D
:10001000810A0008830A0008850A00080000000021
:10002000000000000000000000000000870A000837
:10003000890A0008000000008B0A00088D0A0008E9
:100040007D0C00087D0C00087D0C00087D0C00086C
:100050007D0C00087D0C00087D0C00087D0C00085C
:100060007D0C00087D0C00087D0C00087D0C00084C
:100070007D0C00087D0C00087D0C00087D0C00083C
:100080007D0C00087D0C00087D0C00087D0C00082C
:100090007D0C00087D0C00087D0C00087D0C00081C
:1000A0007D0C00087D0C00087D0C00087D0C00080C
:1000B0007D0C00087D0C00087D0C00087D0C0008FC
:1000C0007D0C00087D0C00087D0C00087D0C0008EC
:1000D0007D0C00087D0C00087D0C00087D0C0008DC
:1000E000950A00087D0C00087D0C00087D0C0008B6
:1000F0007D0C00087D0C00087D0C00087D0C0008BC
:100100007D0C00087D0C00087D0C00087D0C0008AB
:100110007D0C00087D0C00087D0C00087D0C00089B
:100120007D0C00087D0C00087D0C00087D0C00088B
:100130007D0C00087D0C00087D0C00087D0C00087B
:100140007D0C00087D0C00087D0C00087D0C00086B
:100150007D0C00087D0C00087D0C00087D0C00085B
:100160007D0C00087D0C00087D0C00087D0C00084B
:100170007D0C00087D0C00087D0C00087D0C00083B
:100180007D0C00087D0C00087D0C00087D0C00082B
:100190007D0C0008000000007D0C00087D0C0008AC
:1001A0007D0C00087D0C00087D0C00087D0C00080B
:1001B0007D0C00087D0C00087D0C00087D0C0008FB
:1001C0007D0C00087D0C00087D0C00087D0C0008EB
:0801D0007D0C00087D0C000805
:1002000010B5054C237833B9044B13B10448AFF350
:1002100000800123237010BD4C0800200000000066
:10022000444B000808B5034B1BB103490348AFF327
:10023000008008BD0000000050080020444B00086A
:1002400053B94AB9002908BF00281CBF4FF0FF313D
:100250004FF0FF3000F074B9ADF1080C6DE904CE39
:1002600000F006F8DDF804E0DDE9022304B0704791
:100270002DE9F047089E0D4604468846002B4DD1D7
:100280008A42944668D9B2FA82F252B101FA02F374
:10029000C2F1200120FA01F10CFA02FC41EA030844
:1002A00094404FEA1C45210CB8FBF5FE1FFA8CF771
:1002B00005FB1E8341EA03430EFB07F199420BD96C
:1002C0001CEB03030EF1FF3080F01E81994240F2D7
:1002D0001B81AEF1020E63445B1AA4B2B3FBF5F0CE
:1002E00005FB103344EA034400FB07F7A7420AD991
:1002F0001CEB040400F1FF3380F00881A74240F2B8
:10030000058164440238E41B40EA0E4000211EB11E
:10031000D4400023C6E90043BDE8F0878B4208D9EA
:10032000002E00F0EE800021C6E900050846BDE879
:10033000F087B3FA83F100294AD1AB4202D382425B
:1003400000F2F980841A65EB030301209846002E21
:10035000E2D0C6E90048DFE702B9FFDEB2FA82F276
:10036000002A40F09180A1EB0C054FEA1C471FFAD0
:100370008CFE0121B5FBF7F307FB1350250C45EA72
:1003800000450EFB03F0A84208D91CEB050503F15C
:10039000FF3802D2A84200F2CB8043462D1AA4B205
:1003A000B5FBF7F007FB105544EA05440EFB00FED1
:1003B000A64508D91CEB040400F1FF3502D2A6457E
:1003C00000F2BB802846A4EB0E0440EA03409EE7FF
:1003D000C1F120078B4022FA07FC4CEA030C20FAFB
:1003E00007F405FA01F31C43FD404FEA1C4900FAEB
:1003F00001F3B5FBF9F8200C1FFA8CFE09FB185528
:1004000040EA054508FB0EF0A84202FA01F20BD9BA
:100410001CEB050508F1FF3A80F08880A84240F205
:100420008580A8F1020865442D1AA4B2B5FBF9F045
:1004300009FB105544EA054500FB0EFEAE4508D900
:100440001CEB050500F1FF346CD2AE456AD90238C9
:10045000654440EA0840A0FB0294A5EB0E05A542C6
:10046000C846A64656D353D05EB1B3EB080265EB3F
:100470000E0505FA07F722FA01F3CD401F43C6E93E
:1004800000750021BDE8F087C2F1200320FA03F1D6
:100490000CFA02FC25FA03F395400D434FEA1C4782
:1004A0001FFA8CFEB3FBF7F107FB11302B0C43EA6C
:1004B000004301FB0EF0984204FA02F408D91CEB49
:1004C000030301F1FF382FD298422DD9023963443A
:1004D0001B1AADB2B3FBF7F007FB103345EA034537
:1004E00000FB0EF3AB4208D91CEB050500F1FF3809
:1004F00016D2AB4214D902386544ED1A40EA0141E4
:1005000038E73146304607E78646E5E61846FAE61C
:100510004B45A9D2B9EB020864EB0C0E0138A3E7F6
:100520004046EAE7204694E74146D1E7D0467BE7DC
:10053000023B654432E7084609E76444023842E773
:10054000704700BF00000000000000000000000035
:10055000000000000000000000000000000000009B
:10056000000000000000000000000000000000008B
:10057000000000000000000000000000000000007B
:1005800090F800F06DE9024520F007016FF0000CD3
:1005900010F0070491F820F040F049804FF000047B
:1005A0006FF00700D1E9002391F840F000F1080056
:1005B00082FA4CF2A4FA8CF283FA4CF3A2FA8CF38E
:1005C0004BBBD1E9022382FA4CF200F10800A4FAF5
:1005D0008CF283FA4CF3A2FA8CF3E3B9D1E9042349
:1005E00082FA4CF200F10800A4FA8CF283FA4CF380
:1005F000A2FA8CF37BB9D1E9062301F1200182FA3A
:100600004CF200F10800A4FA8CF283FA4CF3A2FA3F
:100610008CF3002BC6D0002A04BF04301A4612BA4D
:10062000B2FA82F2FDE8024500EBD2007047D1E950
:10063000002304F00305C4F100004FEAC50514F0DF
:10064000040F91F840F00CFA05F562EA05021CBFB0
:1006500063EA050362464FF00004A9E700000000CA
:1006600001F0FF01102A2BDB10F0070F08D010F863
:10067000013B013A8B422DD010F0070F42B3F6D167
:10068000F0B441EA012141EA014122F007047FF080
:1006900000070023F0E80256083C85EA010586EAD7
:1006A000010685FA47F5A3FA87F586FA47F6A5FA13
:1006B00087F68EB9EED1F0BC01F0FF0102F007021F
:1006C00032B110F8013B013A83EA010313B1F8D1CA
:1006D0000020704701387047002D06BF35460338AB
:1006E000073815F0010F07D1013015F4807F02BFE4
:1006F000013015F4C03F0130F0BC0138704700BF35
:10070000844641EA000313F003036DD1403A41D31C
:1007100051F8043B40F8043B51F8043B40F8043BDB
:1007200051F8043B40F8043B51F8043B40F8043BCB
:1007300051F8043B40F8043B51F8043B40F8043BBB
:1007400051F8043B40F8043B51F8043B40F8043BAB
:1007500051F8043B40F8043B51F8043B40F8043B9B
:1007600051F8043B40F8043B51F8043B40F8043B8B
:1007700051F8043B40F8043B51F8043B40F8043B7B
:1007800051F8043B40F8043B51F8043B40F8043B6B
:10079000403ABDD2303211D351F8043B40F8043B0B
:1007A00051F8043B40F8043B51F8043B40F8043B4B
:1007B00051F8043B40F8043B103AEDD20C3205D31B
:1007C00051F8043B40F8043B043AF9D2043208D013
:1007D000D2071CBF11F8013B00F8013B01D30B8885
:1007E00003806046704700BF082A13D38B078DD063
:1007F00010F003038AD0C3F10403D21ADB071CBF35
:1008000011F8013B00F8013B80D331F8023B20F89E
:10081000023B7BE7043AD9D3013A11F8013B00F8D7
:10082000013BF9D20B7803704B7843708B7883705F
:10083000604670472DE9F0418AB000240594069483
:10084000079408940994424BDA6C42F00402DA648B
:10085000DA6C02F004020192019ADA6C42F0200292
:10086000DA64DA6C02F020020292029ADA6C42F048
:100870000102DA64DA6C02F001020392039ADA6C84
:1008800042F00202DA64DB6C03F002030493049B7F
:10089000224620214FF0904000F0AAFBDFF8B48000
:1008A00022461021404600F0A3FB2B4D22464AF27F
:1008B0000201284600F09CFB01220421284600F09A
:1008C00097FB4FF4005305934FF488130693079456
:1008D00005A9404600F09EFA2023059301260696BE
:1008E0000794089405A94FF0904000F093FA102364
:1008F0000593069607940227089705A9404600F03D
:1009000089FA059706960794089705A9284600F0E6
:1009100081FA0423059306960794089405A92846AE
:1009200000F078FA4FF420430593069607940323CA
:10093000089305A9284600F06DFA22462146282092
:1009400000F00EFA282000F043FA0AB0BDE8F0816A
:1009500000100240000800480004004800B583B0C1
:1009600001904FF6FF73012201A9034801F03FFCFB
:10097000019803B05DF804FB6C08002072B6FEE736
:1009800000B595B03822002106A802F043FC0020F3
:100990000190029003900490059000F03DFB02232B
:1009A00006934FF48072099240220A920D930E939F
:1009B00004220F925522109211931293139306A8BA
:1009C00000F0E4FB80B90F2301930323029300237B
:1009D00003930493059304210DEB010000F08EFEB8
:1009E00020B915B05DF804FBFFF7C8FFFFF7C6FF9D
:1009F00000B5A9B000F06CF9FFF7C2FFFFF71AFFCE
:100A000000F09EF80D4802F0A5FC03A801F0A4FD3B
:100A10000B4802F09FFC03A801F083FE072301931B
:100A2000162300931E230F225A2103A801F0ACFDC8
:100A300003A801F083FE0028F0D1ECE75C4B00082E
:100A4000644B000800B583B00B4B1A6E42F00102F4
:100A50001A661A6E02F001020092009A9A6D42F034
:100A600080529A659B6D03F080530193019B00F0C7
:100A700059FB03B05DF804FB00100240FEE7FEE7FF
:100A8000FEE7FEE7FEE770477047704708B500F0E5
:100A90002FF908BD08B54FF4005000F0AFFA08BDBB
:100AA00070B50C461646002506E0AFF300802146DF
:100AB00001F8010B01350C46B542F6DB304670BD3E
:100AC00070B50C461646002504E014F8010BFFF73C
:100AD00045FF0135B542F8DB304670BD4FF0FF30C1
:100AE00070474FF400534B6000207047012070475F
:100AF0000020704710B503460C4A0D490D480068A8
:100B000040B10C4800680344521A934206D8094A7F
:100B1000136010BD0748084C0460F2E702F050FB78
:100B20000C2303604FF0FF30F3E700BF000002200A
:100B30000004000068080020480D002070470000F5
:100B400008B51748174B03604FF4E13343600023A7
:100B50008360C36003610C2242618361036243626C
:100B6000836201F0EDFB70B900210D4801F061FCDA
:100B700060B900210A4801F081FC50B9084801F031
:100B800039FC48B908BDFFF7F9FEEDE7FFF7F6FEBF
:100B9000EFE7FFF7F3FEF1E7FFF7F0FEF2E700BF44
:100BA0006C0800200080004010B59CB00446002175
:100BB0001791189119911A911B91542202A802F0D1
:100BC00029FB2268174B9A4201D01CB010BD20238C
:100BD000029302A800F0B8FE00BB134BDA6D42F09E
:100BE0000102DA65DA6D02F001020092009ADA6C15
:100BF00042F00102DA64DB6C03F001030193019B14
:100C00000C23179302221892002219921A921B9316
:100C100017A94FF0904000F0FDF8D6E7FFF7AEFEC1
:100C2000DBE700BF00800040001002400D48854611
:100C30000D480E490E4A002302E0D458C450043334
:100C4000C4188C42F9D30B4A0B4C002301E013600B
:100C50000432A242FBD3FFF771FF02F0B7FAFFF7AD
:100C6000C7FEFEE700000220000000204C08002024
:100C7000504C00084C080020480D0020FEE7000002
:100C8000104B1B680BB90120704710B504464FF498
:100C90007A70B0FBF3F30C4A1068B0FBF3F000F08D
:100CA000A5F868B90F2C01D901200AE000222146DD
:100CB0004FF0FF3000F054F8044B1C60002000E0BF
:100CC000012010BD040000200000002008000020CA
:100CD00010B5032000F032F80020FFF7D1FF10B16B
:100CE0000124204610BD0446FFF7ACFEF9E70000E2
:100CF000034A1368034909680B441360704700BF37
:100D0000FC08002004000020014B1868704700BF59
:100D1000FC08002038B50446FFF7F6FF0546B4F19D
:100D2000FF3F02D0044B1B681C44FFF7EDFF401B44
:100D3000A042FAD338BD00BF04000020074AD368A0
:100D400023F4E0631B041B0C000200F4E060034387
:100D500043F0BF6343F40033D360704700ED00E01D
:100D600000B5194BDB68C3F30223C3F1070CBCF1D8
:100D7000040F28BF4FF0040C03F1040EBEF1060F60
:100D800018D9033B4FF0FF3E0EFA0CFC21EA0C0190
:100D900099400EFA03F322EA0303194300280BDB00
:100DA0000901C9B200F1604000F5614080F800130C
:100DB0005DF804FB0023E5E700F00F000901C9B26C
:100DC000024B1954F4E700BF00ED00E014ED00E021
:100DD000002807DB00F01F02400901239340024A6C
:100DE00042F82030704700BF00E100E00138B0F168
:100DF000807F0BD24FF0E0235861054AF02182F842
:100E000023100020986107221A6170470120704763
:100E100000ED00E070B582B0002365E085685E00FB
:100E20000324B44025EA0405CC68B4402C43846014
:100E3000446824EA0C0C4C68C4F300149C4044EA57
:100E40000C04446061E0DD08083550F8256003F0CB
:100E500007044FEA840C0F2404FA0CF426EA040E6B
:100E60000C6904FA0CF444EA0E0440F8254063E0EF
:100E7000052400E0002404FA0EF42C430CF1020CCB
:100E8000574D45F82C40574CA568D44325EA020637
:100E9000D1F804C01CF4801F01D042EA0506514D70
:100EA000AE60ED6804EA0506D1F804C01CF4001F2A
:100EB00001D042EA05064B4DEE606D6804EA050676
:100EC000D1F804C01CF4003F01D042EA0506454DAC
:100ED0006E602D682C404E6816F4803F01D042EAC7
:100EE0000504404A146001330A6832FA03F474D0EE
:100EF0004FF0010C0CFA03FC1CEA0202F3D04C6820
:100F000004F00304013C012C88D94C6804F003046C
:100F1000032C0CD0C4685D004FF0030C0CFA05FCE8
:100F200024EA0C0C8C68AC4044EA0C04C4604C68A5
:100F300004F00304022C86D004684FEA430E4FF0FD
:100F4000030C0CFA0EFC24EA0C0C4C6804F00304AD
:100F500004FA0EF444EA0C0404604C6814F4403FB4
:100F6000C1D0214C256E45F001052566246E04F0A4
:100F700001040194019C4FEA930C0CF10205184CFA
:100F800054F8255003F003044FEA840E0F2404FAAA
:100F90000EF425EA0405B0F1904F3FF46BAF134C0B
:100FA000A04212D004F58064A04210D004F5806401
:100FB000A0420ED004F58064A0420CD004F58064F9
:100FC000A0423FF455AF062455E7012453E702241D
:100FD00051E703244FE704244DE702B070BD00BF82
:100FE00000000140000401400010024000040048DD
:100FF0000AB18161704781627047704708B5054B3F
:101000005B69034200D108BD024B5861FFF7F5FF51
:10101000F9E700BF00040140002836D13E4B1B68B1
:1010200003F4C063B3F5806F08D03B4AD2F8803038
:1010300023F48073C2F8803000207047364AD2F81B
:10104000803023F48073C2F88030136823F4C063C7
:1010500043F400731360314B1B68322202FB03F32D
:101060002F4AA2FB03239B0C013300E0013B2A4AD9
:10107000526912F4806F01D0002BF7D1264B5B69C7
:1010800013F4806F44D100207047B0F5007F08D082
:10109000214A136823F4C06343F480631360002083
:1010A00070471D4B1B6803F4C063B3F5806F08D015
:1010B000194AD2F8803043F48073C2F8803000209F
:1010C0007047154AD2F8803043F48073C2F88030FC
:1010D000136823F4C06343F4007313600F4B1B6861
:1010E000322202FB03F30E4AA2FB03239B0C0133C3
:1010F00000E0013B084A526912F4806F01D0002BD6
:10110000F7D1054B5B6913F4806F03D10020704762
:10111000032070470320704700700040000000204B
:1011200083DE1B43024A936843F480439360704715
:1011300000700040124BDA6802F00302D868C0F376
:101140000310431C032A11D00E48B0FBF3F00C4BE4
:10115000DB68C3F3062303FB00F0094BDB68C3F332
:10116000416301335B00B0FBF3F070470648B0FB0E
:10117000F3F0034BDB68C3F3062303FB00F0ECE75B
:10118000001002400024F40000366E01002800F038
:10119000548270B582B00446036813F0010F37D053
:1011A000A44A936803F00C03D26802F003020C2BEC
:1011B00023D0082B23D06368B3F5803F4ED0B3F51E
:1011C000A02F51D09B4B1A6822F480321A601A6803
:1011D00022F480221A606368002B52D0FFF794FD3E
:1011E0000546944B1B6813F4003F11D1FFF78CFDAB
:1011F000401B6428F5D9032028E2032AD9D18D4B5E
:101200001B6813F4003F03D06368002B00F01782C3
:10121000236813F0020F5DD0864A936803F00C0335
:10122000D26802F003020C2B3AD0042B3AD0E368C8
:10123000002B75D07F4A136843F480731360FFF767
:1012400063FD05467B4B1B6813F4806F5FD1FFF78E
:101250005BFD401B0228F5D90320F7E1754A1368AE
:1012600043F480331360B6E703F18043A3F53C33C6
:101270001A6842F480221A601A6842F480321A60B6
:10128000A9E7FFF741FD05466A4B1B6813F4003FD1
:10129000BED0FFF739FD401B6428F5D90320D5E106
:1012A000022AC2D1634B1B6813F4806F03D0E3683A
:1012B000002B00F0C6815F4A536823F0FE4321698A
:1012C00043EA016353605C4B1868FFF7D9FC0028C0
:1012D00040F0B981236813F0080F4CD063699BB3C9
:1012E000544AD2F8943043F00103C2F89430FFF727
:1012F0000BFD05464F4BD3F8943013F0020F3AD153
:10130000FFF702FD401B0228F4D903209EE1494A61
:10131000536823F0FE43216943EA01635360D9E730
:10132000444A136823F480731360FFF7EDFC05460D
:10133000404B1B6813F4806FCCD0FFF7E5FC401BDB
:101340000228F5D9032081E13A4AD2F8943023F0FB
:101350000103C2F89430FFF7D7FC0546354BD3F8AC
:10136000943013F0020F06D0FFF7CEFC401B02288A
:10137000F4D903206AE1236813F0040F00F08180A0
:101380002C4B9B6D13F0805F36D12A4B9A6D42F047
:1013900080529A659B6D03F080530193019B012558
:1013A000264B1B6813F4807F28D0A368012B39D00B
:1013B000052B45D01F4BD3F8902022F00102C3F833
:1013C0009020D3F8902022F00402C3F89020A36864
:1013D000002B43D0FFF798FC0646164BD3F890300D
:1013E00013F0020F4CD1FFF78FFC801B41F28833C2
:1013F0009842F2D9032029E10025D1E70F4A13686A
:1014000043F480731360FFF77FFC06460B4B1B68A9
:1014100013F4807FC9D1FFF777FC801B0228F5D930
:10142000032013E1034AD2F8903043F00103C2F8DD
:101430009030CCE70010024008000020007000400F
:101440008A4BD3F8902042F00402C3F89020D3F8DE
:10145000902042F00102C3F89020B8E7FFF754FC57
:101460000646824BD3F8903013F0020F08D0FFF7F6
:101470004BFC801B41F288339842F2D90320E5E00F
:10148000E5B9236813F0200F35D0A369E3B1774A9B
:10149000D2F8983043F00103C2F89830FFF734FCDB
:1014A0000546724BD3F8983013F0020F23D1FFF7A3
:1014B0002BFC401B0228F4D90320C7E06B4A936D34
:1014C00023F080539365DCE7684AD2F8983023F024
:1014D0000103C2F89830FFF717FC0546634BD3F8B9
:1014E000983013F0020F06D0FFF70EFC401B0228C5
:1014F000F4D90320AAE0E369002B00F0A6805B4A40
:10150000926802F00C020C2A69D0022B1DD0574BB6
:101510001A6822F080721A60DA6822F00302DA6038
:10152000DA6822F0887222F48032DA60FFF7ECFB8E
:1015300004464E4B1B6813F0007F4ED0FFF7E4FBD0
:10154000001B0228F5D9032080E0484A136823F0E5
:1015500080731360FFF7D8FB0546444B1B6813F0FC
:10156000007F06D0FFF7D0FB401B0228F5D90320EF
:101570006CE03E4AD3683E491940236A606A0138EC
:1015800043EA0013A06A43EA0023206B40080138B5
:1015900043EA4053606B4008013843EA4063E06A25
:1015A00043EAC0630B43D360136843F08073136056
:1015B000D36843F08073D360FFF7A6FB04462B4B40
:1015C0001B6813F0007F06D1FFF79EFB001B02286B
:1015D000F5D903203AE0002038E0002036E0012B66
:1015E00036D0224BDB6803F00301226A914231D1ED
:1015F00003F0F002616A0139B2EB011F2CD103F450
:10160000FE42A16AB2EB012F28D103F07842E16AD1
:10161000B2EBC16F24D103F4C001226B5208013A2E
:10162000B1EB425F1ED103F0C063626B5208013A16
:10163000B3EB426F18D1002008E001207047012071
:1016400004E0012002E0012000E0002002B070BDB3
:101650000120FBE70120F9E70120F7E70120F5E78A
:101660000120F3E70120F1E70120EFE7001002403D
:101670000C809F011E4B9B6803F00C03042B33D09E
:101680001B4B9B6803F00C03082B2FD0184B9B6857
:1016900003F00C030C2B01D000207047144BDA68C8
:1016A00002F00302D868C0F30310431C032A11D0D0
:1016B0001048B0FBF3F00E4BDB68C3F3062303FBCB
:1016C00000F00B4BDB68C3F3416301335B00B0FBFD
:1016D000F3F070470848B0FBF3F0054BDB68C3F349
:1016E000062303FB00F0ECE702487047024870470E
:1016F000001002400024F40000366E01002800F0C3
:10170000E680F8B50C460546744B1B6803F00F03E2
:101710008B420BD2714A136823F00F030B43136003
:10172000136803F00F038B4240F0D3802E6816F04D
:1017300001065FD06B68032B2FD0022B4DD0684B76
:101740001B6813F4806F00F0C680FFF793FF654BB2
:1017500098424DD9624A936823F0F00343F0800326
:10176000936080265E4A936823F0030369680B4305
:101770009360FFF7C9FA0746594B9B6803F00C03C7
:101780006A68B3EB820F35D0FFF7BEFAC01B41F297
:1017900088339842F0D9032078E0514B1B6813F04E
:1017A000007F01D1012071E0FFF7C4FC4D4B98424E
:1017B0001AD94B4B9B6813F0F00F05D02E6816F02A
:1017C0000206CFD0AB688BB9454A936823F0F0038B
:1017D00043F0800393608026C4E7414B1B6813F4F9
:1017E000003FB2D1012051E00026BBE70026B9E757
:1017F0000026B7E72B6813F0020F48D013F0040F50
:1018000004D0374A936843F4E06393602B6813F085
:10181000080F06D0324A936823F47C5343F4E06304
:1018200093602F4A936823F0F003A9680B439360F9
:101830002A4B1B6803F00F03A34230D82B6813F028
:10184000040F06D0264A936823F4E063E9680B434B
:1018500093602B6813F0080F07D0214A936823F494
:101860006053296943EAC1039360FFF703FF1C4BF0
:101870009B68C3F303131C4AD35C03F01F03D840D7
:101880001A4B18601A4B1868FFF7FAF9F8BD802E4A
:10189000CED1134A936823F0F0039360C8E70F4A50
:1018A000136823F00F0323431360FFF72DFA064656
:1018B0000A4B1B6803F00F03A342BFD0FFF724FAC3
:1018C000801B41F288339842F2D90320DEE70120E1
:1018D00070470120DAE70120D8E700BF002002406E
:1018E0000010024000B4C404784B0008000000203F
:1018F00008000020014B1868704700BF000000205E
:1019000008B5FFF7F7FF054B9B68C3F30223044AB2
:10191000D35C03F01F03D84008BD00BF0010024095
:10192000884B000808B5FFF7E5FF054B9B68C3F33C
:10193000C223044AD35C03F01F03D84008BD00BF94
:1019400000100240884B0008F0B583B004460368DD
:1019500013F4002F6ED0354B9B6D13F0805F1ED1BA
:10196000324B9A6D42F080529A659B6D03F0805322
:101970000193019B01262E4A136843F48073136080
:10198000FFF7C2F905462A4B1B6813F4807F08D184
:10199000FFF7BAF9401B0228F5D9032502E000261B
:1019A000E9E7002545BB214BD3F8903013F4407391
:1019B00015D0226D9A4212D01C4AD2F8903023F4EE
:1019C0004073D2F8901041F48031C2F89010D2F8F0
:1019D000901021F48031C2F89010C2F8903013F0CA
:1019E000010F10D145B9114AD2F8903023F4407359
:1019F000216D0B43C2F89030EEB10C4A936D23F089
:101A00008053936517E0FFF77FF90746074BD3F83C
:101A1000903013F0020FE5D1FFF776F9C01B41F2C9
:101A200088339842F2D90325DCE700BF001002405A
:101A3000007000400025236813F0010F08D09F4A72
:101A4000D2F8883023F0030361680B43C2F8883072
:101A5000236813F0020F08D0984AD2F8883023F098
:101A60000C03A1680B43C2F88830236813F0040FFD
:101A700008D0924AD2F8883023F03003E1680B4353
:101A8000C2F88830236813F0080F08D08B4AD2F8C8
:101A9000883023F0C00321690B43C2F888302368E3
:101AA00013F0100F08D0854AD2F8883023F4407321
:101AB00061690B43C2F88830236813F0200F08D007
:101AC0007E4AD2F8883023F44063A1690B43C2F800
:101AD0008830236813F0400F08D0784AD2F8883055
:101AE00023F44053E1690B43C2F88830236813F0B4
:101AF000800F08D0714AD2F8883023F44043216A1D
:101B00000B43C2F88830236813F4807F08D06B4AF7
:101B1000D2F8883023F44033616A0B43C2F888302E
:101B2000236813F4003F08D0644AD2F89C3023F0B5
:101B30000303A16A0B43C2F89C30236813F4007FAF
:101B400008D05E4AD2F8883023F44023E16A0B4380
:101B5000C2F88830236813F4806F0CD0574AD2F84B
:101B6000883023F44013216B0B43C2F88830236B79
:101B7000B3F5801F79D0236813F4006F0CD04F4A5F
:101B8000D2F8883023F44003616B0B43C2F88830ED
:101B9000636BB3F5800F6DD0236813F4805F0CD0B6
:101BA000464AD2F8883023F04073A16B0B43C2F849
:101BB0008830A36BB3F1807F61D0236813F4005F9A
:101BC0000CD03E4AD2F8883023F04063E16B0B43DF
:101BD000C2F88830E36BB3F1006F55D0236813F47B
:101BE000804F0CD0354AD2F8883023F04063216C06
:101BF0000B43C2F88830236CB3F1006F49D02368DF
:101C000013F4004F0CD02D4AD2F8883023F0405303
:101C1000616C0B43C2F88830636CB3F1805F3DD0D8
:101C2000236813F4803F0CD0244AD2F8883023F084
:101C30004043A16C0B43C2F88830A36CB3F1804FD2
:101C400031D0236813F4802F0CD01C4AD2F89C307A
:101C500023F44013E16C0B43C2F89C30E36CB3F502
:101C6000001F25D0284603B0F0BDD36843F480138D
:101C7000D36080E7D36843F48013D3608CE7D368E4
:101C800043F48013D36098E7D36843F48013D360A0
:101C9000A4E7D36843F48013D360B0E7D36843F478
:101CA0008033D360BCE7D36843F48033D360C8E7A4
:101CB000D36843F48013D360D4E700BF0010024020
:101CC00070B504460168836802691343426913438F
:101CD000C26913430868964A024013430B602268A6
:101CE000536823F44053E1680B435360A1692268B1
:101CF000904B9A4201D0236A1943936823F06E43B4
:101D000023F430630B4393602268D36A23F00F03FC
:101D1000616A0B43D3622368874A934210D0874A93
:101D2000934221D0864A934237D0864A93425CD070
:101D3000854A93426BD07F4A93427DD010223AE08D
:101D400002F55842D2F8882002F00302032A09D88B
:101D5000DFE802F00204870601222CE004222AE0D8
:101D6000082228E0102226E002F5E632D2F8882088
:101D700002F00C020C2A0ED8DFE802F0070D0D0D60
:101D8000090D0D0D750D0D0D0B00002213E0042241
:101D900011E008220FE010220DE002F5E432D2F843
:101DA000882002F03002202A5FD01AD8002A5ED0A4
:101DB000102A5ED104225F498B4276D0E069B0F5EB
:101DC000004F00F0C980082A00F23481DFE812F0E9
:101DD000F7001901F50032011C0132013201320114
:101DE0001F01302A47D10822E5E702F5E232D2F896
:101DF000882002F0C002802A3FD004D8FAB3402ADB
:101E00003FD10422D7E7C02A3DD10822D3E702F50B
:101E1000E032D2F8882002F44072B2F5007F34D06C
:101E200005D8A2B3B2F5807F33D10422C3E7B2F55F
:101E3000407F30D10822BEE702F5C832D2F88820B0
:101E400002F44062B2F5006F27D005D83AB3B2F57C
:101E5000806F26D10422AEE7B2F5406F23D108226D
:101E6000A9E70222A7E70222A5E70222A3E70022B0
:101E7000A1E710229FE710229DE702229BE70022A4
:101E800099E7102297E7102295E7022293E70022B4
:101E900091E710228FE710228DE702228BE70022C4
:101EA00089E7102287E7102285E7082A00F2B2802E
:101EB000DFE802F008B03BB038B0B0B005004FF436
:101EC000004004E0FFF71CFD002800F0A580626AD6
:101ED0001E4B33F81220B0FBF2F3656805EB4501A9
:101EE000994200F29B80B3EB053F00F299800026F7
:101EF00033463146FEF7A4F9090241EA10610002B7
:101F00006B08C0182A46334641F10001FEF798F9E4
:101F1000A0F540720E4B9A4200F284802368D8608C
:101F2000304665E0FFF7A6FBCEE70A48CFE700BFE3
:101F3000F369FFCF008000400038014000440040BA
:101F400000480040004C004000500040904B00080A
:101F5000FFFC0F000024F400082A65D8DFE802F037
:101F6000072705642A6464640B00354803E0FFF723
:101F7000C7FC00285AD0626A324B33F81230B0FBEB
:101F8000F3F06268530803EB4000B0FBF2F0A0F1FD
:101F900010024FF6EF739A424AD883B223F00F0330
:101FA000C0F3420018432368D860002020E0FFF708
:101FB000B9FCDEE7FFF75EFBDBE7214803E0FFF754
:101FC0009FFC002838D0626A1E4B33F81230B0FBF9
:101FD000F3F0636800EB5300B0FBF3F0A0F11002E4
:101FE0004FF6EF739A4229D8236880B2D860002058
:101FF0000123A4F86A30A4F86830002323676367DC
:1020000070BDFFF78FFCDCE7FFF734FBD9E74FF437
:102010000040D8E70120EBE70020E9E70120E7E7EF
:102020000120E5E70120E3E70120E1E70020DFE709
:102030000120DDE70120DBE70020D9E70120D7E719
:102040000024F400904B0008836A13F0010F06D0BF
:102050000268536823F40033C16A0B435360836AF8
:1020600013F0020F06D00268536823F48033016B2B
:102070000B435360836A13F0040F06D00268536861
:1020800023F48023416B0B435360836A13F0080FE2
:1020900006D00268536823F40043816B0B435360FE
:1020A000836A13F0100F06D00268936823F48053FC
:1020B000C16B0B439360836A13F0200F06D0026854
:1020C000936823F40053016C0B439360836A13F00D
:1020D000400F0AD00268536823F48013416C0B430D
:1020E0005360436CB3F5801F0BD0836A13F0800FED
:1020F00006D00268536823F40023C16C0B4353607D
:1021000070470268536823F4C003816C0B4353602B
:10211000EBE72DE9F84305460F4616469946DDF8EC
:1021200020802C68E46937EA04030CBF4FF0010CEF
:102130004FF0000CB44557D1B8F1FF3FF1D0FEF796
:10214000E3FDA0EB090040452FD8B8F1000F2CD0DB
:102150002B681A6812F0040FE3D0DA6912F4006FEA
:10216000DFD04FF400621A622A6852E8003F23F47D
:10217000D07342E800310029F6D12A6802F1080341
:1021800053E8003F23F00103083242E80031002900
:10219000F3D12023C5F88430C5F88830C5F88C30D9
:1021A000002385F8803003201FE02A6852E8003FB2
:1021B00023F4D07342E800310029F6D12A6802F1F5
:1021C000080353E8003F23F00103083242E80031DE
:1021D0000029F3D12023C5F88430C5F888300023C6
:1021E00085F88030032000E00020BDE8F8832DE969
:1021F000F04182B01E46D0F88430202B58D10446DE
:102200000D469046002957D0002A57D090F88030CC
:10221000012B55D0012380F880300023C0F88C308A
:102220002123C0F88430FEF76FFD0746A4F85480E0
:10223000A4F85680A368B3F5805F05D04FF000087E
:10224000002384F8803014E0236913B14FF00008B4
:10225000F6E7A8460025F3E738F8023B2268C3F307
:1022600008039362B4F8562092B2013A92B2A4F8ED
:102270005620B4F856309BB273B100963B4600220C
:1022800080212046FFF745FFE0B9002DE4D015F886
:10229000012B23689A62E5E700963B460022402125
:1022A0002046FFF736FF78B92023C4F8843000E0D9
:1022B000022002B0BDE8F0810120FAE70120F8E732
:1022C0000220F6E70320F4E70320F2E730B583B0FD
:1022D00004460023C0F88C30FEF716FD0546226840
:1022E000126812F0080F0FD123681B6813F0040F57
:1022F00018D12023C4F88430C4F888300020E06668
:1023000084F8800003B030BD6FF07E430093034635
:1023100000224FF400112046FFF7FBFE0028E3D017
:102320000320EFE76FF07E4300932B4600224FF42B
:1023300080012046FFF7EDFE0028DAD00320E1E718
:1023400078B310B50446D0F884300BB32423C4F816
:1023500084302268136823F0010313602046FFF7DE
:10236000AFFC012813D0A36ABBB92268536823F4D9
:10237000904353602268936823F02A039360226895
:10238000136843F0010313602046FFF79FFF10BD61
:1023900080F88030FEF708FCD8E72046FFF754FEAF
:1023A000E3E7012070470000436E2BB90123A0F83A
:1023B0006A30A0F86830704730B403689A68C2F396
:1023C00042629968490F094D6B5CDB00084C615C07
:1023D00093FBF1F3A0F86A30AB5CDB00A25C93FBEB
:1023E000F2F3A0F8683030BC704700BFB04B000873
:1023F000A84B000890F88030012B18D0012380F8FA
:1024000080302423C0F8843003681A68196821F0EA
:102410000101196022F000520023436601680A603E
:102420002022C0F8842080F88030184670470220AF
:10243000704738B590F88030012B1DD00446012339
:1024400080F880302423C0F8843003681D681A683F
:1024500022F001021A600268936823F06043194376
:102460009160FFF7A1FF23681D602023C4F884302A
:10247000002084F8800038BD0220FCE738B590F8D1
:102480008030012B1DD00446012380F880302423A6
:10249000C0F8843003681D681A6822F001021A60CF
:1024A0000268936823F0606319439160FFF77CFF33
:1024B00023681D602023C4F88430002084F8800045
:1024C00038BD0220FCE7000008B52839232913D8BD
:1024D000DFE801F03C143C1912121212121212120F
:1024E0001212121212121212121212121C231212B1
:1024F00012121212122A3036002008BD1046FEF7C2
:1025000009FC0120F9E700BF0120F6E74FF4005174
:102510000F48FEF76DFD0120EFE74FF400410C4836
:10252000FEF766FD0120E8E702210948FEF760FD9D
:102530000120E2E710210748FEF75AFD0120DCE701
:1025400004210348FEF754FD0120D6E70120D4E71B
:10255000000400480008004810B50446074B084A2C
:10256000084900F0CFF9204600F0EAFD002120469E
:1025700000F0EDFD204600F0BBF810BDC9240008B6
:102580006D2D0008B84B00082DE9F04F85B00746C7
:102590000C469046BDF838B0BDF83C6002910393FC
:1025A0001C44A4B202EB0B05ADB20095234600F02B
:1025B000A7FA10B905B0BDE8F08F029A02EB060A3F
:1025C0001FFA8AFA08EB06091FFA89F9A41BA4B2BC
:1025D000013CA4B2AD1BADB2013DADB202230093EC
:1025E00033464A465146384600F061F901230093CC
:1025F00033464A462146384600F059F904230093F1
:1026000033462A465146384600F051F908230093D4
:1026100033462A462146384600F049F9039B9C1B65
:10262000A4B2A41BA4B2ABEB06039BB29E1BB6B232
:102630000AF1010A1FFA8AFA09F101091FFA89F958
:10264000022C16D8022EB5D9023EB6B2039B5C1EF0
:10265000A4B233464A46029D2946384600F017FA8E
:102660002946214433464A4689B2384600F00FFADB
:10267000A0E7023CA4B20BF1FF3B1FFA8BFB234601
:1026800042465146384600F0FAF908EB0B02234661
:1026900092B25146384600F0F2F9D3E710B582B055
:1026A00003681B7C446B03FB01F1C90089B2214420
:1026B0000091002100F02CFD02B010BD2DE9F04189
:1026C000064690F8387090F83950036893F81180F6
:1026D00000242A4621463046FFF7E0FF0134E4B2E9
:1026E0000135EDB2A74201D9A845F2D8BDE8F08185
:1026F00008B503681B7C90F8382003FB02F2D20077
:102700000021406B00F086FD08BD10B5044680F83E
:102710003910036B1B689847236B5B68204698470A
:1027200010BD10B5044690F8933023B9002120461F
:10273000FFF7EBFF10BDFFF7DBFFF7E738B5044607
:10274000FFF7BCFF94F8393094F838501D44EDB2CF
:1027500023685B7CAB4208D994F8933053B929467F
:102760002046FFF7D2FF012038BD204600F0F6FCDE
:102770000020F9E72046FFF7BBFFF0E72DE9F8431B
:1027800080460F4691461C46BDF820609DF82450B7
:1027900015F0010F0AD115F0020F16D115F0080F30
:1027A00024D115F0040F32D1BDE8F883B21A5918BC
:1027B00092B289B200F073F9F21B04EB090192B2F4
:1027C00089B2404600F06BF9E5E7A6EB0902E11B90
:1027D00092B289B2404600F062F9F21BA4EB090103
:1027E00092B289B2404600F05AF9D7E706EB0902E7
:1027F000E11992B289B2404600F051F9BA1904EBDE
:10280000090192B289B2404600F049F9C9E706EBE6
:102810000902E11B92B289B2404600F040F9BA19B0
:10282000A4EB090192B289B2404600F038F9BBE747
:102830002DE9F04F85B00390894692461E469DF8DB
:1028400038B0C3F1010424B2C3EBC3384FEA4808DF
:102850000FFA88F8CDF804B000920B4632460021FA
:10286000FFF78CFF0025012719E0013EB6B208F101
:1028700002030FFA83F814FA83F424B20135ADB2DF
:10288000BB1C1FB214FA83F424B2CDF804B0CDF807
:1028900000A04B46324629460398FFF76FFFB5422A
:1028A00002D2002CE1DAE9E705B0BDE8F08F2DE9AE
:1028B000F04182B080460E4617461D46CB189BB2AB
:1028C000AC18A4B20133521B491B0134A4B20094CA
:1028D0009BB292B289B200F013F910B902B0BDE810
:1028E000F0819DF8203000932B463A463146404611
:1028F000FFF79EFFF2E700000823037000487047CF
:102900000009002030B585B004460D4600931346FB
:10291000084A094900F044FC0DF10F00FFF7ECFFF5
:1029200001460095054B9DF80F20204600F0E2F986
:1029300005B030BD232F0008653000082D2B00089E
:1029400000207047014BC365704700BF4129000854
:1029500000B5B0F800E0B1F800C0F4441FFA8CFCF8
:10296000E64505D99E4513D203F1FF3C1FFA8CFCC6
:102970009E450FD294450FD9964500D372469C458B
:1029800000D8634602809B1A0B8001205DF804FB8F
:102990009646EDE70020F9E70020F7E730B583B071
:1029A000C48F121BC46A9DF81850009592B2A047BC
:1029B00003B030BD70B584B004469DF82000ADF87A
:1029C0000E10ADF80C20ADF80A3094F88C305BB3E3
:1029D000BDF80A3043B3012B03D9022826D00328BF
:1029E0002DD010F0010534D1B4F84C20BDF80C30D6
:1029F0009A4219D8B4F84E20934215D2B4F84A300E
:102A0000B4F848200DF10A010DF10E00FFF7A0FF08
:102A100050B1236B9E680095BDF80A30BDF80C20BC
:102A2000BDF80E102046B04704B070BD8AB2D31A6C
:102A30009BB2ADF80E300133ADF80E30D1E7BDF8E2
:102A40000C20D31A9BB2ADF80C300133ADF80C302A
:102A5000C7E7B4F84820BDF80E309A42E4D8B4F87D
:102A60004A209342E0D2B4F84E30B4F84C200DF135
:102A70000A0103A8FFF76CFF0028CAD1D4E710B5FC
:102A800082B000240094FFF795FF02B010BD10B58E
:102A900082B001240094FFF78DFF02B010BDB0F8A2
:102AA0004C3093420BD8B0F84E30934207D9B0F86F
:102AB00048308B4203D8B0F84A308B4200D8704778
:102AC00000B583B0002300930123FFF773FF03B029
:102AD0005DF804FB8A4205D2834209D89A4209D99B
:102AE00001207047834207D99A4207D901207047D5
:102AF0000120704700207047002070470020704779
:102B000070B504460D461E46BDF81030B0F84E10A4
:102B1000B0F84C00FFF7DEFF38B133462A46B4F870
:102B20004A10B4F84800FFF7D5FF70BD70B59DF8A6
:102B3000105002F0070E4FF0010C0CFA0EFC5FFA79
:102B40008CFC90F89260012E1BD90024012E1AD023
:102B500022F0070292B20668367C16FB02F292B2AD
:102B60000A44416B1144DDB90A782243D2B20A709B
:102B700082EA0C0201F8012B013B9BB2002BF3D13E
:102B800070BD6446E2E74FF0000CE1E701241BE072
:102B90006400E4B24FEA4C0C5FFA8CFC002BEFD0DF
:102BA0000A782243D2B20A7082EA0C020A700EF14D
:102BB0000102013B9BB212F0070EE9D1428F114492
:102BC00090F89220012AE1D9012AE7D04FF0010CB8
:102BD000E4E710B5046890F838108AB2CB00838718
:102BE000237CDB00438790F839C01FFA8CFE4FEA44
:102BF000CC03C387614494F811C0614502DDACEB9E
:102C00000E0292B2D20092B2A0F84030A0F8423048
:102C10001344A0F84230A38AA0F84430E38AA0F815
:102C2000463010BD08B5FFF7D4FF08BD10B582B01F
:102C30000446B0F856300093B0F85230B0F8542043
:102C4000B0F85010FFF75CFF20B9002384F88C30F7
:102C500002B010BD012384F88C30B4F84820B4F8D9
:102C600050309A4201D2A4F84830B4F84A20B4F85F
:102C700052309A4201D9A4F84A30B4F84C20B4F842
:102C800054309A4201D2A4F84C30B4F84E20B4F833
:102C900056309A42DCD9A4F84E30D9E708B5002264
:102CA000A0F84820B0F84420A0F84A20B0F840200E
:102CB000A0F84C20B0F84220A0F84E20FFF7B6FF55
:102CC00008BD10B582B09DF810400094FFF766FE75
:102CD00002B010BD08B50022A0F85020A0F8542082
:102CE0004FF6FF72A0F85220A0F85620036B5B68E5
:102CF000984708BD70B50446049E00258565C362EB
:102D0000416380F8382080F8395080F86D5080F8A1
:102D1000915080F88D50012380F8923080F89330E4
:102D20000663336898472046FFF7D4FF2046FFF735
:102D300009FE84F8705070BD10B50A46046900237E
:102D40002021A04710BD10B5134604690A4617217B
:102D5000A04710BD00B583B08DF807100DF1070234
:102D60000121FFF7F0FF03B05DF804FB2DE9F04708
:102D7000044691469A460268177B07F0010787F0E0
:102D8000010814390C296DD8DFE801F03E6C6C3174
:102D9000525F6C6C6C6C6C6C4C00002241212046C4
:102DA00000F0E3F97600F6B242464021204600F0FA
:102DB000DCF923689A792C21204600F0D6F93A46AE
:102DC0004021204600F0D1F92368DA792C212046F1
:102DD00000F0CBF90135EDB2072D08D816F0800FC1
:102DE000DBD001224121204600F0BFF9DAE7B9F13A
:102DF000000F07D01AF8016B09F1FF395FFA89F962
:102E00000025E9E701202EE05278492100F0ADF9D4
:102E100023681A7B02F001024021204600F0A5F948
:102E2000012020E04A464A2100F09FF901201AE0E3
:102E30001278492100F099F9656922680023927897
:102E40002C212046A84701200DE045690023D278B7
:102E50002C21A84723685A784921204600F085F99B
:102E6000012000E00020BDE8F08710B50A46C468E4
:102E700000231521A04710BD10B50A46C4680023E1
:102E80001621A04710BD10B51346C4680A46172185
:102E9000A04710BD10B5C46800231A461821A047EA
:102EA00010BD10B5C46800231A461921A04710BDF3
:102EB00070B582B006460D4616E015290CD202B058
:102EC00070BDFE29FBD122788DF8072029213046DC
:102ED00000F04BF9023507E022788DF80720F468FE
:102EE00000233046A04702352C4614F8011B19294F
:102EF000E7D818290ED21629DFD91729DFD1237870
:102F00008DF807300DF1070201213046FFF7BBFFB6
:102F10000235E9E7F56800231A463046A8472546FA
:102F2000E2E72DE9F04104460D4616461F46A1F1A1
:102F30001403052B22D8DFE803F018030C1518182A
:102F40000021FFF7F9FE31462046FFF703FF01207D
:102F500012E00021FFF7F0FE31462046FFF7FAFEAF
:102F6000012009E00121FFF7E7FED4F810803B467D
:102F7000324629462046C047BDE8F0810020FBE7E5
:102F8000F8B5064615461C460B39042960D8DFE81B
:102F900001F0035F0E21300022B92E49FFF788FFB0
:102FA000012025E02C49FFF783FF012020E042B9F2
:102FB0002A49FFF77DFF33689B7C86F82230012089
:102FC00016E02749FFF774FF3368DB7C86F8223070
:102FD00001200DE0FFF75EFF81213046FFF745FF3E
:102FE00029463046FFF748FF3046FFF75AFF0120D9
:102FF000F8BDFFF74FFF6779FF00FBB296F822702C
:103000001F44FFB240213046FFF72FFF390941F03E
:1030100010013046FFF729FF07F00F013046FFF798
:103020002BFFA17941F0B0013046FFF725FF217950
:10303000C900226801F0F8013046FFF724FF6A1E3C
:1030400012F0FF05F3D13046FFF72BFF0120CFE749
:103050000020CDE70C4C0008144C0008C44B0008BD
:10306000CC4B000838B505460C46FFF789FF90B9F0
:10307000092C0AD00A2C0FD1284600F018F807496D
:103080002846FFF715FF012006E00549284600F015
:1030900009F8012000E0012038BD00BFD44B000832
:1030A0001C4C000801608B7C80F82230704710B502
:1030B000044600231A462821D0F814C0E047002314
:1030C0001A4614212046D4F80CC0E04701224B21B7
:1030D000204600F04AF823681A792921204600F09A
:1030E00044F800224B21204600F03FF823681A796B
:1030F0002921204600F039F801224B21204600F01A
:1031000034F823685A792921204600F02EF810BDA2
:1031100010B582B08DF805108DF806208DF80430BA
:10312000049B009384686B4601220F21A04702B0E4
:1031300010BD10B5846800231A460921A04710BDB0
:1031400010B5846800231A460A21A04710BD10B5A7
:103150000A46846800230B21A04710BD10B584687F
:1031600000231A461021A04710BD10B54469002362
:10317000A04710BD0020704700230360074A82600B
:10318000C2600261426180F8233080F8263083619A
:10319000FF2380F8243080F828307047753100080C
:1031A000F8B504460F4616461D46FFF7E5FFA76033
:1031B000E6602561069B63612046FFF7BAFFF8BD14
:1031C000014B1868704700BF0C00002070B50D4E11
:1031D0000D4D761BB61006D0002455F8043B013483
:1031E0009847A642F9D1094E094D761B01F0AAFC79
:1031F000B61006D0002455F8043B01349847A64287
:10320000F9D170BD444C0008444C00084C4C0008F7
:10321000444C0008830730B548D0541E002A3FD0E4
:10322000CAB2034601E0013C3AD303F8012B9D07E3
:10323000F9D1032C2DD9CDB245EA05250F2C45EA4D
:10324000054536D9A4F1100222F00F0C03F1200E2F
:10325000E6444FEA121C03F1100242E9045542E928
:10326000025510327245F8D10CF1010214F00C0F26
:1032700003EB021204F00F0C13D0ACF1040323F0A3
:1032800003030433134442F8045B9342FBD10CF074
:1032900003042CB1CAB21C4403F8012B9C42FBD19D
:1032A00030BD64461346002CF4D1F9E703461446BA
:1032B000BFE71A46A446E0E770B5054688B0084661
:1032C0000C46FDF75DF9224EAA6B059001214318CB
:1032D000CDE9066104A8022104940393AC6801902F
:1032E000029122B3636E13F0010FB4F90C309AB25D
:1032F00001D1980525D5910406D4626E43F400539C
:1033000022F40052A3816266284601AA214600F0F9
:10331000E7F8636E002814BF4FF0FF350A25DA077F
:1033200002D4A3899B0506D5284608B070BD28465F
:1033300000F02EF8D6E7A06D00F070FA284608B02D
:1033400070BDA06D00F068FAB4F90C309AB2D2E703
:10335000384C0008024B01461868FFF7ADBF00BFAC
:103360000C000020024B13B1024800F005B8704772
:1033700000000000B5340008002301461A46184634
:1033800001F04AB8014900F01FBA00BFC944000863
:103390002DE9F0478246394800F03EFADAF8384025
:1033A000002C66D1DAF80450354ACAF83C200323D1
:1033B000CAE9B843DFF8CC90DFF8CC80334F344E05
:1033C00004230AF53B72CAF8E8222146C5E9024304
:1033D000C5E90044C5E904446C660822AC6105F106
:1033E0005C00FFF717FFC5E90759C5E90987EE62D9
:1033F00005F1580000F00CFADAF80850254BEB60A4
:103400002146C5E90044C5E904446C66AC60AC6182
:10341000082205F15C00FFF7FDFEC5E90759C5E983
:103420000987EE6205F1580000F0F2F9DAF80C5065
:10343000194BEB602146C5E90044C5E904446C66BC
:10344000AC60AC61082205F15C00FFF7E3FE05F11A
:103450005800C5E90759C5E90A76C5F8248000F087
:10346000D7F90123CAF838300448BDE8F04700F026
:10347000D5B9BDE8F047014800F0D0B90C0D0020E7
:10348000853300088D420008B1420008F14200086F
:10349000114300080900010012000200014800F079
:1034A000BBB900BF080D0020014800F0B7B900BF4C
:1034B000080D002038B5084B084D5B1B9C1007D049
:1034C000043B1D44013C55F804399847002CF9D1C0
:1034D000BDE8384001F03CBB504C00084C4C0008A3
:1034E0009368002B00F081802DE9F04FB1F90C308A
:1034F0000C461907804683B0174698B223D5236936
:103500000BB310F002033D682BD04FF0000ADFF838
:10351000B4B256465E453346524628BF5B464046E7
:10352000002E4FD0E169D4F824C0E047002852DDD6
:10353000BB681B1A8244361ABB60002BEAD10020FC
:1035400003B0BDE8F08F2146404600F0FBFE0028A6
:1035500040F03481B4F90C303D6898B210F00203A9
:10356000D3D110F0010942D14E463EB38205D4F8C2
:1035700008B040F18180B3455A4600F2B18010F4A2
:10358000906F40F0BE8020680192494600F0F8FB41
:10359000A3682168019AA3EB0B030A44B246A36017
:1035A00022600026B868A0EB0A00D144B860002869
:1035B000C5D0B4F90C0080B2002ED7D1D5E9009661
:1035C0000835D2E7D5E900A60835A3E721464046ED
:1035D00001F070F880B3B4F90C3043F040034FF0C1
:1035E000FF30A38103B0BDE8F08F002070471E4676
:1035F000AA46994618461D4656B388B34A46D4E9AA
:1036000004132068B24228BF3246884205D9A16817
:1036100003EB010B5A4500F3A780934264DCE16998
:10362000D4F824C02A464046E047B0F1000BD2DD72
:10363000B9EB0B09CAD00120BB68A3EB0B035D44B7
:10364000A6EB0B06BB60002B3FF479AF002ED4D164
:103650000AF1080353E902569A460833002EF9D0BE
:1036600032460A212846FCF7FBFF002800F09D8027
:103670000130A0EB0509C1E720682369984217D8FB
:103680006369B34214D86FF00042B24228BF324699
:10369000E16992FBF3F2D4F824C002FB03F3404645
:1036A0004A46E047B0F1000A95DDA6EB0A0679E745
:1036B000B345DA4628BFB2465246494600F060FBA1
:1036C000A3682268A3EB0A035244A3602260002B84
:1036D000EBD12146404600F0EDFF0028E5D07AE727
:1036E0002068B34632464FE72946019200F048FB76
:1036F000019AA3689B1AA36023681344236093462E
:1037000096E723682169A3EB010B636903EB430A86
:103710000AEBDA7A0BF101034FEA6A0A33445345A4
:10372000524684BF9A46524643052CD51146404620
:1037300000F076F800283BD05A4621690190FCF74A
:10374000DFFFA289019B22F4906242F08002A281F5
:1037500003EB0B002361AAEB0B03C4F814A0A360D6
:103760002060B34632460FE729465A4600F008FB70
:1037700023685B4423602146404600F09BFF0028FD
:103780003FF456AF27E7404600F082FB034600288F
:10379000DED12169404601F00BF8B4F90C300C225F
:1037A00023F08003C8F8002017E7721C914626E733
:1037B0000C22B4F90C30C8F800200EE74FF0FF30AF
:1037C000BEE600BF00FCFF7F2DE9F84307468846B0
:1037D00000F538764FF00009D6E90154013D11D4C7
:1037E000A389012B05F1FF3508D9B4F90E30013357
:1037F000214603D03846C04749EA00096B1C04F152
:103800006804EDD13668002EE6D14846BDE8F8835D
:10381000704700BF704700BF704700BF704700BFD0
:103820002DE9F04F01F10B06162E83B0044624D883
:10383000102900F2BA8000F01FFB10261822022087
:10384000B54F3A44A2F1080153688B4200F0BA80A8
:103850005A68D96822F003021A449D68E9608D60B5
:10386000516841F001012046516003F1080500F064
:1038700009FB284603B0BDE8F08F36F0070600F1DB
:103880009480B14200F2918000F0F6FAB6F5FC7F28
:10389000C0F09A81730A00F08F80042B00F26F81D0
:1038A000B30903F1390003F1380CC3009A4F3B44CC
:1038B000A3F108055B689D4206D10CE0002980F267
:1038C0002781DB689D4206D05A6822F00302911BD3
:1038D0000F29F3DD60463D69DFF840C265457CD0C5
:1038E0006A6822F00302931B0F2B00F37B81002BED
:1038F000C7E904CC80F26C81B2F5007F80F01A81B8
:10390000D308796801334FEA521E012202FA0EF2FF
:103910000A4357F833E0C5F808E007EBC30108395C
:10392000E9607A6047F83350CEF80C5083100121DB
:103930009940914257D8114206D120F00300490026
:10394000114200F10400FAD007EBC0094D4686464B
:10395000D5F80C80454508D11DE1002B80F224816B
:10396000D8F80C80454500F01681D8F8042022F0E4
:103970000302931B0F2BF0DD2046D8E9025408EB1D
:10398000060146F00106C8F80460EC60A56043F04B
:103990000104C7E90411C1E902CC4C6048F80230C7
:1039A00000F070FA08F1080502E00C2323600025FE
:1039B000284603B0BDE8F08F4FF4007340204FF06D
:1039C0003F0C73E7D3689A4208BF02307FF440AFE0
:1039D0003D69DFF848C1654582D17A6883100121CD
:1039E00099409142A7D9BD686B6823F003094E4501
:1039F00003D8A9EB06030F2B7ADCDFF824B1494B7F
:103A0000DBF800201B680132334405EB090A00F0A3
:103A1000338103F580530F3323F47F6828F00F08B8
:103A20004146204600F020FC411C024600F0F38095
:103A3000824500F2EE803C4B19684144196008460B
:103A400000F04E81DBF80010019301311BBFA2EBA7
:103A50000A0A5044CBF80020186012F0070B00F05F
:103A60001781CBF108010A44CBF58051904408310D
:103A7000A1EB0801C1F30B0A51462046009200F069
:103A8000F3FB421CDDE9002300F04F81801A00EBBC
:103A90000A081968BA6048F001005144BD425060FC
:103AA000196000F02981B9F10F0F40F22781686891
:103AB000A9F10C0C2CF0070C00F0010040EA0C00FE
:103AC00068604FF0050E05EB0C00BCF10F0FC0E96C
:103AD00001EE00F2328150681546144B1A688A4292
:103AE00038BF1960124B1A688A4238BF196094E0D7
:103AF000AA1943F0010346F001066E602046BA6041
:103B0000536000F0BFF90835284603B0BDE8F08FD8
:103B1000D9681A44A1E600BF3C04002044040020F8
:103B200044080020400D0020100D0020380D00201A
:103B30003C0D0020B2F5206F4FEA522363D3142BC3
:103B400000F2B78003F15C01C9005B3307EB010EA3
:103B50007958AEF1080E8E4500F091804B6823F045
:103B60000303934202D989688E45F7D1D1F80CE05E
:103B70007A68C5E9021ECEF80850CD60D6E6142B4F
:103B800059D9542B00F29D80330B03F16F0003F1E0
:103B90006E0CC3008AE60EF1010E1EF0030F05F154
:103BA00008057FF4D5AE51E0424445465368D8F845
:103BB0000C1043F00103536055F8083F2046D960CC
:103BC0008B6000F05FF9F3E6F00806F1080237E6D3
:103BD0002A442046536843F001035360083500F03F
:103BE00051F9E5E6A919204646F0010643F0010423
:103BF0006E60C7E90411C1E902CC4C60AB5000F023
:103C000041F90835D4E6930903F13901C900383385
:103C10009CE7BD425FD0BD68686820F00308464558
:103C2000A8EB060302D80F2B3FF762AF204600F047
:103C300029F90025BCE603F15C0003F15B0CC3002D
:103C400034E659F808394B4540F0968010F0030FE0
:103C500000F1FF30F5D17B6823EA01037B60490066
:103C600099423FF6C0AE19B9BDE649000EF1040E07
:103C70001942FAD0704667E603F11008D0E69A10B0
:103C80004FF001087B6808FA02F21A437A6070E785
:103C900002EB08014942C1F30B0A5146204600924B
:103CA00000F0E2FA431CDDE900237FF4EFAEDA46D0
:103CB000EFE6542B25D8130B03F16F01C9006E33C7
:103CC00044E7B3F5AA7F25D8F30B03F1780003F19D
:103CD000770CC300EAE5294B186840441860B1E648
:103CE000CAF30B0CBCF1000F7FF4ACAEBD68C84446
:103CF00048F001006860F0E61546EEE601235360E7
:103D000094E7B3F5AA7F23D8D30B03F17801C90058
:103D100077331BE740F25452934223D8B30C03F19C
:103D20007D0003F17C0CC300C0E5ABF1080BD84467
:103D3000A8EB02084FF0000AABE605F108012046A7
:103D4000009300F035FDBD68009B68681968C4E603
:103D500040F254518B420BD8930C03F17D01C90002
:103D60007C33F3E64FF47E737F204FF07E0C9DE5AD
:103D70004FF47E717E23E9E67B6870E7100D00202A
:103D800088420DD98B1883420AD900EB020CBAB1D4
:103D9000624613F801CD02F801CD9942F9D170477E
:103DA0000F2A0ED8034602F1FF3C4AB10CF1010C78
:103DB000013B8C4411F8012B03F8012F6145F9D127
:103DC000704740EA01039B0750D1A2F1100370B580
:103DD00001F1200C23F00F0501F1100E00F1100489
:103DE000AC441B095EF8105C44F8105C5EF80C5C97
:103DF00044F80C5C5EF8085C44F8085C5EF8045C0F
:103E000044F8045C0EF1100EE64504F11004E9D10B
:103E1000013312F00C0F01EB031102F00F0400EB61
:103E2000031327D0043C24F003064FEA940C1E44ED
:103E30001C1F8E465EF8045B44F8045FB442F9D15F
:103E40000CF1010402F0030203EB840301EB840193
:103E500002F1FF3C4AB10CF1010C013B8C4411F81A
:103E6000012B03F8012F6145F9D170BD02F1FF3C30
:103E700003469BE72246EBE70148FFF7CDBC00BFB6
:103E8000040D00200148FFF7C9BC00BF040D00204D
:103E90002DE9F84F1746002900F0988007F10B052F
:103EA00080460C46FFF7E8FF162D5DD810252A4600
:103EB000AF425ED854F8041C21F003069642A4F1E8
:103EC000080962DABC4BD3F808C009EB0600844548
:103ED00000F09780D0F804C02CF0010303445B6825
:103EE000DB0768D42CF0030C06EB0C03934247DA93
:103EF000CB0710D454F8083CA9EB030ADAF80430D5
:103F000023F003018C44B444944580F2118173186A
:103F1000934280F2E88039464046FFF781FC07462D
:103F2000E0B154F8043C23F001034B44A0F1080233
:103F3000934200F0D280321F242A00F2F580132A27
:103F400000F2AC800346224611681960516859603E
:103F500092689A602146404600F02AFC4046FFF7EE
:103F600091FF3846BDE8F88F25F00705002D2A4659
:103F70009EDA0C23C8F8003000273846BDE8F88FD9
:103F80001E46D0E90223D3609A60731B0F2B22D800
:103F9000D9F8043003F0010333434E44C9F8043028
:103FA000736843F00103736040462746FFF76AFFDA
:103FB0003846BDE8F88FC907ADD454F8083CA9EBE2
:103FC000030ADAF8041021F00301A0E7BDE8F84F76
:103FD0001146FFF725BCD9F8041001F0010129436F
:103FE000C9F8041009EB05014E4443F001034B608E
:103FF000736843F0010308317360404600F0D8FB5A
:10400000D2E7DCF8040020F0030B06EB0B0C05F103
:10401000100084454DDAC9073FF57DAF54F8081C00
:10402000A9EB010ADAF8041021F003018B44B34430
:1040300058453FF76CAF5746DAF80C1057F8080FA1
:10404000321F242AC160886000F2DB80132A40F20C
:10405000D6802168CAF808106168CAF80C101B2ABB
:1040600000F2DF8008340AF11002216811606168F3
:104070005160A16891600AEB0501ABEB050242F0CB
:10408000010299604A60DAF8043003F001031D432D
:104090004046CAF80450FFF7F5FE6EE72368036058
:1040A000636843601B2A68D804F1080200F1080322
:1040B0004AE709EB05029A60ACEB050343F0010304
:1040C000536054F8043C03F001031D43404644F898
:1040D000045CFFF7D7FE27464FE750F8043C23F077
:1040E00003031E4451E75746DAF80C1057F8080F3F
:1040F000321F242AC16088604CD8132A48D921680D
:10410000CAF808106168CAF80C101B2A56D808347F
:104110000AF110021E462368136063685360A368A7
:104120009360D1463C4630E72146FFF729FE11E770
:10413000D0E902135746CB60996057F8081FDAF8A8
:104140000C30CB60321F242A99602DD8132A29D92C
:104150002368CAF808306368CAF80C301B2A42D8B2
:1041600008340AF1100322681A6062685A60A26873
:104170009A606646D1463C4607E7A3688360E368D9
:10418000C360242A26D004F1100200F11003DBE6FC
:104190003A46BFE7214638461E46D146FFF7F0FDB6
:1041A0003C46F2E63B46DEE7214638466646D146C7
:1041B000FFF7E6FD3C46E8E63C040020A168CAF8AB
:1041C0001010E168CAF81410242A20D010340AF123
:1041D00018029FE7236903616169416104F11802D4
:1041E00000F11803B0E6A368CAF81030E368CAF813
:1041F0001430242A21D010340AF11803B3E73A46C8
:1042000033E721463846FFF7BBFD164B33E72269FB
:10421000CAF818206269CAF81C2018340AF1200272
:1042200078E7A168CAF81010E168CAF81410242AC7
:104230000DD010340AF1180217E72369CAF81830B4
:104240006369CAF81C3018340AF120038BE722692D
:10425000CAF818206269CAF81C2018340AF1200232
:1042600003E700BF3C04002038B5074D0022044698
:1042700008462A60FCF73EFC431C00D038BD2B6882
:10428000002BFBD0236038BD440D002010B50C4638
:10429000B1F90E1000F018FC002803DB236D034475
:1042A000236510BDA38923F48053A38110BD00BFF3
:1042B0002DE9F0410C46B1F90C101F46CB0505461F
:1042C00016460BD421F48051A1813B46B4F90E105F
:1042D00032462846BDE8F04100F01EB8B4F90E1091
:1042E0000223002200F06AFBB4F90C10EAE700BFD9
:1042F00010B50C46B1F90E1000F060FBA389421C0A
:104300000EBF23F4805343F480532065A38110BD76
:10431000B1F90E1000F0C6B838B50C46084D844609
:10432000114620461A4600232B606446FCF7C8FB62
:10433000431C00D038BD2B68002BFBD0236038BD58
:10434000440D002038B5334B1B6805460C460BB1B5
:104350009A6B12B3B4F90C3018079AB225D52169BB
:1043600000292DD012F0010007D00020A060606964
:104370004042A06139B1002038BD950758BF60693F
:10438000A0600029F7D1120658BF0846F4D543F0C3
:104390004003A3814FF0FF3038BD1846FEF7F8FF09
:1043A000B4F90C3018079AB2D9D4D1062AD55207DD
:1043B00014D4216943F00803A3819AB20029D1D112
:1043C00002F42070B0F5007FCCD02146284600F0E2
:1043D0000BFBB4F90C3021699AB2C3E7216B51B1E0
:1043E00004F14002914204D0284600F0E1F9B4F90A
:1043F0000C300022226321690022C4E9001223F05C
:104400002403D7E7092243F040032A604FF0FF302E
:10441000A38138BD0C0000202DE9F047DFF87CA017
:104420000646DAF8000098460F469146FFF7F4F981
:104430001B4B1B68D3F8484124B365681F2D26DC4D
:104440005EB96B1C0235DAF80000636044F8257031
:10445000FFF7E4F90020BDE8F08704EB85010123B4
:10446000C1F88890D4F88821AB401A43022EC4F8D2
:104470008821C1F80881E4D1D4F88C211343C4F811
:104480008C31DEE703F5A674C3F84841D5E7DAF8C6
:104490000000FFF7C3F94FF0FF30DCE738040020DD
:1044A000344C000838B5074D0022044608462A60FF
:1044B000FCF714FB431C00D038BD2B68002BFBD04D
:1044C000236038BD440D002070B500294BD006464E
:1044D0000C4610B1836B002B48D0636ED80734D5DF
:1044E000B4F90C30002B3ED02146304600F052F893
:1044F000E36A054633B1E169304698470028B8BF02
:104500004FF0FF35A3891A063BD4216B41B104F16A
:104510004003994202D0304600F04AF90023236359
:10452000616C21B1304600F043F900236364FEF76B
:10453000B5FF636E0022DB07A28127D5A06DFFF7D0
:1045400069F9FEF7B1FF284670BDA3899905CBD460
:10455000A06DFFF761F9B4F90C30002BC4D1656E82
:1045600015F0010508D00025284670BDFEF710FFA4
:10457000636ED807B4D4E8E7A06DFFF74FF928467B
:1045800070BD2169304600F013F9BEE7A06DFFF75A
:1045900045F9D3E7B1F90C20F8B50C4611070746E9
:1045A00042D4636842F40062002BA28159DDA56AFF
:1045B000002D54D000233E683B6093B212F4805229
:1045C00053D1E16901233846A847421C63D0A3892F
:1045D000A56A5B0705D56368C01A236B0BB1E36B53
:1045E000C01AE169024600233846A847411C3ED163
:1045F0003B68002B3BD01D2B01D0162B52D1A38939
:104600002269226023F4006300216160A381216B91
:104610003E6021B304F14003994202D0384600F0D5
:10462000C7F800202063F8BD2669C6B193B225689B
:1046300026609A070CBF63690023AD1BA3600CE0E2
:10464000D4F824C0E1692B4632463846E047B0F141
:10465000000CA5EB0C05664416DD002DF0DC0020F7
:10466000F8BDE36B002BA2DCF9E7206DB1E7B4F9EC
:104670000C302269226023F40063A3810022DB0452
:104680006260C4D52065C2E7A38943F040034FF0C0
:10469000FF30A381F8BD3B68002B98D01D2B06D0BE
:1046A000162B04D0A38943F04003A381F8BD3E60DC
:1046B000D5E700BF38B50C46054608B1836BA3B1FA
:1046C000B4F90C00B8B1636EDB0701D4810515D5D0
:1046D00028462146FFF75EFF636EDA07054602D4DF
:1046E000A3899B050ED5284638BDFEF751FEB4F9C7
:1046F0000C000028E7D10546284638BDA06DFFF71D
:104700008BF8E5E7A06DFFF789F8284638BD00BFB4
:10471000F8B5244F0C460646FFF7AEFBBA6855685D
:10472000C4F57E630F3325F003052B4423F47F6328
:1047300023F00F03A3F58054B4F5805F07DB00215D
:104740003046FFF791FDBB682B44984204D03046B9
:10475000FFF798FB0020F8BD61423046FFF784FD6B
:1047600001300DD0104ABB682D1B45F001055D607E
:10477000136830461B1B1360FFF784FB0120F8BD54
:1047800000213046FFF770FDBA68831A0F2BDEDD7B
:1047900043F001035360054B03491B68C01A0860CE
:1047A000D5E700BF3C040020100D00204408002085
:1047B000002961D0F8B50C460646FFF75DFB54F8BA
:1047C000042C7B4FA4F1080522F0010105EB010C3C
:1047D000B868DCF80430604523F0030300F08B80F8
:1047E000D207CCF8043032D454F8082CAD1A114456
:1047F000AA6807F1080082426AD00CEB0304D4F8DF
:1048000004E0EC68D4601EF0010FA26000F0978015
:1048100041F001036B60CCF80010B1F5007F35D298
:104820007A68CB084809012101338140114379603E
:1048300007EBC30257F83310083AC5E9021247F8EC
:104840003350CD603046BDE8F840FFF71BBB0CEBA2
:1048500003025268D00710D4194407F10800DCF8AD
:104860000830834273D0DCF80C20DA60936041F0AA
:1048700001036B606950D0E7704741F00103B1F567
:10488000007F44F8043CCCF80010C9D3B1F5206F88
:104890004FEA512348D28B0903F1390003F1380262
:1048A000C300F818FB580838984259D05A6822F0CB
:1048B00003028A4202D99B689842F7D1D868C5E9B9
:1048C00002308560DD603046BDE8F840FFF7DABAB7
:1048D0000CEB03025268D20763D40B44DCE90212EA
:1048E000CA60916043F001026A603046EB50BDE857
:1048F000F840FFF7C7BA0B44D10707D454F8082C87
:10490000AD1A1344D5E90212CA60916043F0010266
:104910006A60284ABD6012689A4293D8264B304696
:104920001968FFF7F5FE8DE7142B0AD9542B1FD811
:104930000B0B03F16F0003F16E02C300B1E71944E2
:104940008DE703F15C0003F15B02C300A9E741F0CE
:104950000103C7E90455C5E902006B60695071E7BE
:1049600079689210012404FA02F20A437A60A6E7F9
:10497000B3F5AA7F06D8CB0B03F1780003F17702D9
:10498000C3008EE740F25452934206D88B0C03F1D9
:104990007D0003F17C02C30083E74FF47E737E2227
:1049A0007FE741F001036B60CCF800104AE700BFDD
:1049B0003C04002048080020400D002038B50C467B
:1049C000084D8446114620461A4600232B60644653
:1049D000FCF78EF8431C00D038BD2B68002BFBD0B1
:1049E000236038BD440D00202DE9F0418B890C4631
:1049F000990796B008D504F143030122C4E90432B3
:104A0000236016B0BDE8F081B4F90E100029064607
:104A100027DB6A4600F06EF8002821DB019D05F4D3
:104A20007045A5F50055B5FA85F54FF480686D0918
:104A30004FF4006741463046FEF7F2FEB4F90C3001
:104A4000F0B1204AF26343F08003C4F81480A381DC
:104A50002060206135BB3B43A38116B0BDE8F081E7
:104A6000A38913F0800519D04FF040084146304625
:104A7000FEF7D6FE0025B4F90C302F460028E0D111
:104A80009A05BED423F0030304F1430243F002036A
:104A90000121C4E90421A3812260B2E74FF48068B8
:104AA0002F46C7E7B4F90E10304600F039F810B9B8
:104AB000B4F90C30CFE7A38923F0030343F00103DB
:104AC0001BB2C8E78533000838B50C46084D84464C
:104AD000114620461A4600232B606446FBF7E0FF90
:104AE000431C00D038BD2B68002BFBD0236038BDA1
:104AF000440D002070B50C46084D034600262046A4
:104B000011461C462E60FBF7ECFF431C00D070BD25
:104B10002B68002BFBD0236070BD00BF440D00202C
:104B200038B5074D0022044608462A60FBF7DEFF31
:104B3000431C00D038BD2B68002BFBD0236038BD50
:104B4000440D0020F8B500BFF8BC08BC9E46704775
:0C4B5000F8B500BFF8BC08BC9E467047DA
:104B5C005374617274000000496E6974205375635C
:104B6C006365737366756C21000000000000000023
:104B7C000000000001020304060708090000000001
:104B8C0001020304010002000400060008000A00F0
:104B9C000C001000200040008000000108040204FA
:104BAC00080101010101010307010000252C000887
:104BBC009D2C0008C32C00081815A115C819FF005E
:104BCC001815A015C019FF001815AE15D5168015AF
:104BDC00A8163F15D316001540158D161415201662
:104BEC000015A115C815DA1612158116CF15D91690
:104BFC00F115DB1640152E15A415A619FF000000A3
:104C0C001815AF19FF0000001815AE19FF000000B1
:104C1C000001140A6464323200127A0000042896EF
:104C2C001008000080004000100000200A00000066
:084C3C0034B6FF7F0100000007
:084C4400653300082502000899
:044C4C000102000859
:104C50000024F400010000001000000010000020FB
:104C600000000000FC02002064030020CC030020B0
:104C70000000000000000000000000000000000034
:104C80000000000000000000000000000000000024
:104C90000000000000000000000000000000000014
:104CA0000000000000000000000000000000000004
:104CB00000000000000000000000000000000000F4
:104CC00000000000000000000000000000000000E4
:104CD00000000000000000000000000000000000D4
:104CE00000000000000000000000000000000000C4
:104CF00000000000000000000000000000000000B4
:104D000000000000000000000100000000000000A2
:104D10000E33CDAB34126DE6ECDE05000B00000067
:104D20000000000000000000000000000000000083
:104D30000000000000000000000000000000000073
:104D40000000000000000000000000000000000063
:104D50000000000000000000000000000000000053
:105080000000000000000000000D002000000000F3
:10509000000000003C0400203C04002044040020E8
:1050A000440400204C0400204C0400205404002040
:1050B000540400205C0400205C04002064040020F0
:1050C000640400206C0400206C04002074040020A0
:1050D000740400207C0400207C0400208404002050
:1050E000840400208C0400208C0400209404002000
:1050F000940400209C0400209C040020A4040020B0
:10510000A4040020AC040020AC040020B40400205F
:10511000B4040020BC040020BC040020C40400200F
:10512000C4040020CC040020CC040020D4040020BF
:10513000D4040020DC040020DC040020E40400206F
:10514000E4040020EC040020EC040020F40400201F
:10515000F4040020FC040020FC04002004050020CE
:10516000040500200C0500200C050020140500207B
:10517000140500201C0500201C050020240500202B
:10518000240500202C0500202C05002034050020DB
:10519000340500203C0500203C050020440500208B
:1051A000440500204C0500204C050020540500203B
:1051B000540500205C0500205C05002064050020EB
:1051C000640500206C0500206C050020740500209B
:1051D000740500207C0500207C050020840500204B
:1051E000840500208C0500208C05002094050020FB
:1051F000940500209C0500209C050020A4050020AB
:10520000A4050020AC050020AC050020B40500205A
:10521000B4050020BC050020BC050020C40500200A
:10522000C4050020CC050020CC050020D4050020BA
:10523000D4050020DC050020DC050020E40500206A
:10524000E4050020EC050020EC050020F40500201A
:10525000F4050020FC050020FC05002004060020C9
:10526000040600200C0600200C0600201406002076
:10527000140600201C0600201C0600202406002026
:10528000240600202C0600202C06002034060020D6
:10529000340600203C0600203C0600204406002086
:1052A000440600204C0600204C0600205406002036
:1052B000540600205C0600205C06002064060020E6
:1052C000640600206C0600206C0600207406002096
:1052D000740600207C0600207C0600208406002046
:1052E000840600208C0600208C06002094060020F6
:1052F000940600209C0600209C060020A4060020A6
:10530000A4060020AC060020AC060020B406002055
:10531000B4060020BC060020BC060020C406002005
:10532000C4060020CC060020CC060020D4060020B5
:10533000D4060020DC060020DC060020E406002065
:10534000E4060020EC060020EC060020F406002015
:10535000F4060020FC060020FC06002004070020C4
:10536000040700200C0700200C0700201407002071
:10537000140700201C0700201C0700202407002021
:10538000240700202C0700202C07002034070020D1
:10539000340700203C0700203C0700204407002081
:1053A000440700204C0700204C0700205407002031
:1053B000540700205C0700205C07002064070020E1
:1053C000640700206C0700206C0700207407002091
:1053D000740700207C0700207C0700208407002041
:1053E000840700208C0700208C07002094070020F1
:1053F000940700209C0700209C070020A4070020A1
:10540000A4070020AC070020AC070020B407002050
:10541000B4070020BC070020BC070020C407002000
:10542000C4070020CC070020CC070020D4070020B0
:10543000D4070020DC070020DC070020E407002060
:10544000E4070020EC070020EC070020F407002010
:10545000F4070020FC070020FC07002004080020BF
:10546000040800200C0800200C080020140800206C
:10547000140800201C0800201C080020240800201C
:10548000240800202C0800202C08002034080020CC
:0C54900034080020FFFFFFFF00000200B6
:0400000508000C2DB6
:00000001FF
