:020000040800F2
:1000000000000120B9060008690400086B0400081C
:100010006D0400086F04000871040008000000006F
:100020000000000000000000000000007304000851
:100030007504000800000000770400087904000837
:100040000107000801070008010700080107000870
:100050000107000801070008010700080107000860
:100060000107000801070008010700080107000850
:100070000107000801070008010700080107000840
:100080008104000891040008010700080107000826
:100090000107000801070008010700080107000820
:1000A0000107000801070008010700080107000810
:1000B0000107000801070008010700080107000800
:1000C00001070008010700080107000801070008F0
:1000D00001070008A1040008010700080107000843
:1000E00001070008010700080107000801070008D0
:1000F00001070008010700080107000801070008C0
:1001000001070008010700080107000801070008AF
:10011000010700080107000801070008010700089F
:10012000010700080107000801070008010700088F
:1001300000000000000000000000000000000000BF
:1001400000000000000000000000000000000000AF
:10015000000000000000000000000000000000009F
:10016000000000000000000000000000000000008F
:10017000000000000000000000000000000000007F
:10018000000000000000000000000000000000006F
:10019000000000000000000000000000000000005F
:1001A000000000000000000000000000000000004F
:1001B000000000000000000000000000000000003F
:1001C000000000000000000000000000000000002F
:1001D000000000000000000000000000000000001F
:0401E0005FF8E0F1F3
:1001E40010B5054C237833B9044B13B10448AFF36D
:1001F40000800123237010BD3C0400200000000097
:10020400E824000808B5034B1BB103490348AFF3C6
:10021400008008BD0000000040040020E82400081D
:1002240000B583B00E4B5A6942F001025A615B6912
:1002340003F001030193019B00221146102000F0FA
:10024400BBFA102000F0F0FA00221146112000F051
:10025400B3FA112000F0E8FA03B05DF804FB00BF24
:100264000010024082B00A4B9A6942F004029A617B
:100274009A6902F004020092009A9A6942F0080214
:100284009A619B6903F008030193019B02B07047D4
:100294000010024008B50B480B4B03600B4B436046
:1002A40000238360C3604FF4804202614361836131
:1002B400C361036200F092FE00B908BD00F070F85B
:1002C400FBE700BFE004002000540040A0860100CA
:1002D40030B587B000230293039304930593026817
:1002E400284B9A4201D007B030BD0446264DAB6975
:1002F40043F00803AB61AB6903F008030093009B70
:10030400C0230293122303930323059302A91F48D6
:1003140000F044FDEB6943F40013EB61EB6903F473
:1003240000130193019B1A481A4B03600023436096
:1003340083608022C2600361436120228261C361C1
:1003440000F094FAB8B9124BA3635C621248134BE1
:10035400036010234360002383608022C260036132
:10036400436120228261C36100F080FA30B90A4BF4
:1003740063635C62B7E700F013F8E4E700F010F899
:10038400F5E700BF0054004000100240000C01409B
:1003940058040020800002409C0400206C000240AD
:1003A40072B6FEE700B591B02822002106A801F03C
:1003B400D7FF00230193029303930493059301222F
:1003C40006924FF4803307930A9202220D920E9301
:1003D4004FF4E0130F9306A800F0F4FE80B90F2346
:1003E400019302210291002303934FF4806204924B
:1003F400059301A801F026F920B911B05DF804FBBA
:10040400FFF7CEFFFFF7CCFF08B500F09FF9FFF729
:10041400C9FFFFF727FFFFF703FFFFF73BFF00F0DC
:100424008FF800F0E9F80421014801F075FCFEE7BB
:100434003405002082B00A4B9A6942F001029A61A5
:100444009A6902F001020092009ADA6942F080523D
:10045400DA61DB6903F080530193019B02B07047BA
:1004640000100240FEE7FEE7FEE7FEE7FEE7704706
:100474007047704708B500F07BF908BD08B502481D
:1004840000F016FB08BD00BF9C04002008B502481C
:1004940000F00EFB08BD00BF5804002008B5024858
:1004A40001F038FE08BD00BF7C0500207047000045
:1004B4000268094B9A4200D0704782B003F50333B7
:1004C400DA6942F00202DA61DB6903F002030193A4
:1004D400019B02B0704700BF0004004000B587B024
:1004E400002302930393049305930268114B9A42E9
:1004F40002D007B05DF804FB03F503339A6942F0B8
:1005040008029A619B6903F008030193019B20236D
:10051400029302230393059302A9074800F03EFCCB
:10052400064A536823F4406343F0E06343F40063F2
:100534005360DEE700040040000C0140000001406D
:1005440000B58FB000230A930B930C930D9308937B
:1005540009930193029303930493059306930793DA
:100564002348244A026040F60F624260836042F2EC
:100574000F72C26003618023836101F04DFA40BBB6
:100584004FF480530A930AA9194801F049FB18BB98
:10059400174801F06DFA10BB00230893099308A9CA
:1005A400134801F033FCE8B96023019341F2883326
:1005B400029300230393059304220DEB02010C48DC
:1005C40001F0BAFA88B90A48FFF788FF0FB05DF85E
:1005D40004FBFFF7E5FED3E7FFF7E2FED8E7FFF7FA
:1005E400DFFED9E7FFF7DCFEDEE7FFF7D9FEEAE737
:1005F400340500200004004008B50A480A4B036093
:100604004FF4E133436000238360C36003610C2231
:1006140042618361C36101F0CBFC00B908BDFFF7FF
:10062400BFFEFBE77C0500200038014030B587B0F1
:100634000023029303930493059302681B4B9A428D
:1006440001D007B030BD03F558439A6942F48042A3
:100654009A619A6902F480420092009A9A6942F07F
:1006640004029A619B6903F004030193019B4FF414
:100674000073029302230393032305930C4D02A9F1
:10068400284600F08BFB4FF480630293002403940C
:10069400049402A9284600F081FB22462146252025
:1006A40000F08AF8252000F0BFF8CAE700380140BE
:1006B400000801400C480D490D4A002302E0D458BB
:1006C400C4500433C4188C42F9D30A4A0A4C002398
:1006D40001E013600432A242FBD3FFF7E7FE01F00E
:1006E4001BFEFFF791FE7047000000203C04002031
:1006F4003C2500083C040020C8050020FEE700005B
:1007040010B504460E4B18784FF47A73B3FBF0F32C
:100714000C4A1068B0FBF3F000F094F868B90F2CA1
:1007240001D901200AE0002221464FF0FF3000F0F9
:1007340043F8054B1C60002000E0012010BD00BF01
:1007440004000020000000200800002008B5074A2B
:10075400136843F010031360032000F01BF80F200C
:10076400FFF7CEFFFFF766FE002008BD0020024021
:10077400034A1168034B1B780B441360704700BF96
:10078400C005002004000020014B1868704700BF1A
:10079400C0050020074AD36823F4E0631B041B0C44
:1007A400000200F4E060034343F0BF6343F400330A
:1007B400D360704700ED00E000B5194BDB68C3F36C
:1007C4000223C3F1070CBCF1040F28BF4FF0040C43
:1007D40003F1040EBEF1060F18D9033B4FF0FF3EA0
:1007E4000EFA0CFC21EA0C0199400EFA03F322EAFA
:1007F4000303194300280BDB0901C9B200F160406F
:1008040000F5614080F800135DF804FB0023E5E780
:1008140000F00F000901C9B2024B1954F4E700BFFC
:1008240000ED00E014ED00E0002807DB00F01F02FB
:10083400400901239340024A42F82030704700BF28
:1008440000E100E00138B0F1807F0BD24FF0E023EB
:100854005861054AF02182F823100020986107228C
:100864001A6170470120704700ED00E000283AD07B
:1008740010B4024600681D4B984229D81C4B03440F
:100884001C49A1FB03131B099B0013641A4BD3637C
:10089400022382F82130016821F47F5121F03001D4
:1008A400536894682343D4682343146923435469E5
:1008B400234394692343D46923430B4303600020F7
:1008C4009063012382F8213082F8200010BC704725
:1008D4000A4B03440749A1FB03131B099B00136440
:1008E400074BD363D4E70120704700BF07040240DD
:1008F400F8FFFDBFCDCCCCCC00000240F8FBFDBF1F
:100904000004024090F82130022B06D004238363B4
:10091400002380F82030012070470268136823F018
:100924000E0313600268136823F001031360036C61
:10093400C16B012202FA03F34B6080F821200023EB
:1009440080F820301846704708B590F82130022B03
:1009540003D004238363012008BD0268136823F0D5
:100964000E0313600268136823F001031360036825
:100974004B4A93424ED9783A934224D0143293424C
:1009840030D0143293422FD0143293422FD01432E9
:1009940093422FD0143293422FD0143293422FD04B
:1009A40002F5627293422ED0143293422DD0143247
:1009B40093422CD01432934202D04FF4803203E09D
:1009C4004FF4805200E00122364B5A60012380F834
:1009D4002130002380F82030436B002B5ED09847F1
:1009E4000020B9E71022EFE74FF48072ECE74FF4F0
:1009F4008052E9E74FF48032E6E74FF48012E3E7F0
:100A04004FF08072E0E70122DEE71022DCE74FF4CA
:100A14008072D9E7244A934224D01432934225D0D9
:100A24001432934224D01432934224D01432934289
:100A340024D01432934224D01432934224D002F5A9
:100A44006272934223D01432934222D014329342DE
:100A540021D01432934202D04FF4803203E04FF499
:100A6400805200E00122114B5A60AFE71022FAE7EE
:100A74004FF48072F7E74FF48052F4E74FF480327A
:100A8400F1E74FF48012EEE74FF08072EBE70122BA
:100A9400E9E71022E7E74FF48072E4E700205BE720
:100AA40080000240000402400800024000000240AE
:100AB40038B5C36B1A6804682568016C04238B403D
:100AC400134200F09B8015F0040F00F09780236818
:100AD40013F0200F03D1236823F004032360036879
:100AE4009A4A934246D9783A934224D01432934294
:100AF40028D01432934227D01432934227D0143290
:100B0400934227D01432934227D01432934227D0F1
:100B140002F56272934226D01432934225D01432E5
:100B2400934224D01432934202D04FF4802203E043
:100B34004FF4804200E00422854B5A60C36A03B13B
:100B4400984738BD4022F7E74FF48062F4E74FF44A
:100B54008042F1E74FF48022EEE74FF48002EBE7A6
:100B64004FF08062E8E70422E6E74022E4E74FF42E
:100B74008062E1E7774A934224D01432934225D02D
:100B84001432934224D01432934224D01432934228
:100B940024D01432934224D01432934224D002F548
:100BA4006272934223D01432934222D0143293427D
:100BB40021D01432934202D04FF4802203E04FF448
:100BC400804200E00422644B5A60B7E74022FAE70F
:100BD4004FF48062F7E74FF48042F4E74FF4802249
:100BE400F1E74FF48002EEE74FF08062EBE7042276
:100BF400E9E74022E7E74FF48062E4E702238B4011
:100C0400134200F0AB8015F0020F00F0A7802368B8
:100C140013F0200F06D1236823F00A032360012375
:100C240080F821300368494A93424BD9783A934279
:100C340024D0143293422DD0143293422CD0143247
:100C440093422CD0143293422CD0143293422CD0A1
:100C5400143293422CD002F5627293422BD0143298
:100C640093422AD01432934229D01432934202D0B0
:100C74004FF4003203E04FF4005200E00222344B00
:100C84005A60002380F82030836A002B3FF459AF68
:100C9400984756E72022F2E74FF40072EFE74FF44B
:100CA4000052ECE74FF40032E9E74FF40012E6E7B4
:100CB4004FF00072E3E70222E1E72022DFE74FF47E
:100CC4000072DCE7234A934224D01432934225D0A5
:100CD4001432934224D01432934224D014329342D7
:100CE40024D01432934224D01432934224D002F5F7
:100CF4006272934223D01432934222D0143293422C
:100D040021D01432934202D04FF4003203E04FF466
:100D1400005200E00222104B5A60B2E72022FAE7A8
:100D24004FF40072F7E74FF40052F4E74FF4003247
:100D3400F1E74FF40012EEE74FF00072EBE7022206
:100D4400E9E72022E7E74FF40072E4E7800002407D
:100D5400000402400800024000000240082303FA95
:100D640001F111423FF4EDAE15F0080F3FF4E9AE86
:100D7400236823F00E032360026CC16B012303FA82
:100D840002F24A60836380F82130002380F8203027
:100D9400036B002B3FF4D5AE9847D2E670B582B012
:100DA4000024A446B0E0874DAA4210D007D9864D4E
:100DB400AA420CD005F58035AA4208D013E0A5F567
:100DC4008015AA4203D005F57025AA4207D18A6886
:100DD400002A62D0012A5BD04361082403E0A5F510
:100DE4008015AA42F3D0BEF1FF0F58D80646BEF1D3
:100DF400FF0F56D84FEA8C0233680F25954023EA3B
:100E0400050304FA02F2134333604B6813F0805F66
:100E140078D06E4B9A6942F001029A619B6903F0A3
:100E240001030193019B4FEA9C02951C684B53F804
:100E340025600CF003039D000F23AB4026EA030654
:100E4400644B984233D003F58063984200F0988055
:100E540003F58063984200F0958003F5806398421F
:100E640000F0928003F58063984200F08F8003F5D0
:100E74008063984219D006231AE0CC68B3E7CC68A3
:100E84000434B0E7CC680834ADE7CC680C34AAE786
:100E940003610824A7E70024A5E70424A3E7061DAB
:100EA400A5E7ACF108029200A6E7052300E00023C1
:100EB400AB4033430232464D45F822304B6813F4BD
:100EC400803F65D0444A136843EA0E0313604B68BD
:100ED40013F4003F62D0404A536843EA0E03536060
:100EE4004B6813F4801F5FD03B4A936843EA0E03B8
:100EF40093604B6813F4001F5CD0374AD36843EA0D
:100F04000E03D3600CF1010C0A6832FA0CF357D0CB
:100F1400012303FA0CF302EA030E33EA0202F1D1CD
:100F24004A68122A3FF63FAF122A3FF65CAF01A58A
:100F340055F822F0D30D00087F0E0008890E000832
:100F44009B0E0008EB0D0008EB0D0008EB0D0008EC
:100F5400EB0D0008EB0D0008EB0D0008EB0D00088D
:100F6400EB0D0008EB0D0008EB0D0008EB0D00087D
:100F7400EB0D0008EB0D0008830E00088F0E00082F
:100F8400012395E7022393E7032391E704238FE7E3
:100F9400114A136823EA0E03136098E70E4A536854
:100FA40023EA0E0353609BE70B4A936823EA0E037C
:100FB40093609EE7084AD36823EA0E03D360A1E74F
:100FC40002B070BD00002210000031100010024079
:100FD400000001400008014000040140002800F026
:100FE400CC8070B5044690F83D30002B77D0242394
:100FF40084F83D302268136823F0010313602268EB
:10100400136843F4004313602268136823F4004315
:10101400136000F0D3FB62685A4B9A4264D85A4B6F
:1010240098428CBF00230123002B40F0A88057492D
:10103400A1FB00318B0C25686A6822F03F0242EA6A
:1010440091426A6021680A6A22F03F0266684D4D47
:10105400AE424FD8013313430B622168CA6922F4AC
:101064004F4222F0FF026668464B9E424CD8431E14
:101074007600B3FBF6F3013340F6FC70034278D0FC
:10108400C3F30B031343CB6121680B6823F0C00344
:10109400E269206A024313430B6021688B6823F4DE
:1010A400034323F0FF032269E068024313438B6088
:1010B4002168CB6823F0FF036269A06902431343EC
:1010C400CB602268136843F001031360002020649E
:1010D400202384F83D30206384F83E0070BD80F8FE
:1010E4003C30FFF7F5F882E7294B98428CBF002388
:1010F400012399E74FF4967505FB03F3254DA5FBF2
:1011040003539B090133A6E7A368BBB9451E06EB4D
:10111400460CB5FBFCF50135C5F30B05B5FA85F5B1
:101124006D0945BBC3B9013806EB4603B0FBF3F3C5
:101134000133C3F30B0343F40043A3E7451E06EB5B
:10114400860C0CEB8C0CB5FBFCF50135C5F30B05DB
:10115400B5FA85F56D09E4E7013806EB860303EB80
:101164008303B0FBF3F30133C3F30B0343F44043B2
:1011740088E7042386E7012384E7012070470120E0
:10118400ACE700BFA08601007F841E0083DE1B4302
:10119400FF083D00D34D621082B0084B1B68084A1B
:1011A400A2FB03235B0A00FB03F3019300BF019B33
:1011B4005A1E0192002BF9D102B0704700000020A2
:1011C400D34D6210002800F0F18170B582B004465E
:1011D400036813F0010F2CD0994B5B6803F00C03E8
:1011E400042B1DD0964B5B6803F00C03082B12D024
:1011F4006368B3F5803F41D0002B55D103F18043A0
:1012040003F504331A6822F480321A601A6822F44F
:1012140080221A6037E08A4B5B6813F4803FE7D082
:10122400874B1B6813F4003F03D06368002B00F066
:10123400BF81236813F0020F75D0814B5B6813F0F4
:101244000C0F5FD07E4B5B6803F00C03082B54D06B
:101254002369002B00F08A807A4B01221A60FFF781
:1012640093FA0546764B1B6813F0020F75D1FFF70E
:101274008BFA401B0228F5D903209EE1704A1368BB
:1012840043F480331360636843B3FFF77DFA054684
:101294006B4B1B6813F4003FCBD1FFF775FA401B6F
:1012A4006428F5D9032088E1B3F5A02F09D0644B55
:1012B4001A6822F480321A601A6822F480221A60B2
:1012C400E1E703F18043A3F53C331A6842F480223A
:1012D4001A601A6842F480321A60D4E7FFF754FAAD
:1012E4000546574B1B6813F4003FA2D0FFF74CFA96
:1012F400401B6428F5D903205FE1514B5B6813F46C
:10130400803FA5D14E4B1B6813F0020F03D0236915
:10131400012B40F04F814A4A136823F0F8036169B6
:1013240043EAC1031360236813F0080F33D0A369A1
:10133400002B5CD0434B0122C3F88024FFF724FA2E
:1013440005463F4B5B6A13F0020F21D1FFF71CFAED
:10135400401B0228F5D903202FE1394A136823F0F2
:10136400F803616943EAC1031360DCE7354B0022EB
:101374001A60FFF709FA0546314B1B6813F0020F98
:10138400D1D0FFF701FA401B0228F5D9032014E15C
:101394000120FFF701FF236813F0040F00F096808B
:1013A400274BDB6913F0805F34D1254BDA6942F0B7
:1013B4008052DA61DB6903F080530193019B0125BC
:1013C400214B1B6813F4807F26D0E368012B3DD0AA
:1013D400002B53D103F1804303F504331A6A22F03E
:1013E40001021A621A6A22F004021A6233E0154BEF
:1013F4000022C3F88024FFF7C7F90546104B5B6A47
:1014040013F0020FC7D0FFF7BFF9401B0228F5D92C
:101414000320D2E00025D3E70B4A136843F480731A
:101424001360FFF7B1F90646074B1B6813F4807F7E
:10143400CBD1FFF7A9F9801B6428F5D90320BCE0C0
:101444000010024000004242007000405F4A136AEC
:1014540043F001031362E36833B3FFF795F90646DB
:101464005A4B1B6A13F0020F2FD1FFF78DF9801B23
:1014740041F288339842F3D903209EE0052B09D02A
:10148400524B1A6A22F001021A621A6A22F004020A
:101494001A62E0E74D4B1A6A42F004021A621A6AB1
:1014A40042F001021A62D6E7FFF76EF90646474B8F
:1014B4001B6A13F0020F08D0FFF766F9801B41F294
:1014C40088339842F3D9032077E0E5B9E369002B28
:1014D40072D03E4A526802F00C02082A56D0022BFF
:1014E40017D03B4B00221A66FFF74EF90446374BE0
:1014F4001B6813F0007F47D0FFF746F9001B022852
:10150400F5D9032059E0314AD36923F08053D361DC
:10151400DCE72F4B00221A66FFF736F905462B4B02
:101524001B6813F0007F06D0FFF72EF9401B02283A
:10153400F5D9032041E0236AB3F5803F1AD023494B
:101544004B6823F47413226A606A024313434B60AA
:101554001F4B01221A66FFF717F904461B4B1B6841
:1015640013F0007F0ED1FFF70FF9001B0228F5D905
:10157400032022E0154A536823F40033A1680B4387
:101584005360DCE7002018E0002016E0012B16D0A1
:101594000E4B5B6803F48031226A914211D103F44B
:1015A4007013626A93420ED1002006E00120704756
:1015B400012002E0012000E0002002B070BD012003
:1015C400FBE70120F9E70120F7E700BF0010024024
:1015D4000000424286B0174B0FCB0DF1180C0CE9FA
:1015E4000F0040F20123ADF80430134B5B6803F0A5
:1015F4000C02082A02D0114806B07047C3F3834294
:1016040018326A4412F8100C13F4803F0DD00A4BC0
:101614005B68C3F3404318336B4413F8143C074A24
:1016240002FB00F0B0FBF3F0E6E7054B03FB00F030
:10163400E2E700BF182500080010024000127A00FB
:1016440000093D00002800F0A08070B50D46044656
:10165400524B1B6803F007038B420BD24F4A1368AB
:1016640023F007030B431360136803F007038B4253
:1016740040F08D80236813F0020F17D013F0040F8D
:1016840004D0474A536843F4E0635360236813F07B
:10169400080F04D0424A536843F460535360404AED
:1016A400536823F0F003A1680B435360236813F0DD
:1016B400010F31D06368012B20D0022B25D0384A8A
:1016C400126812F0020F64D035494A6822F003020E
:1016D40013434B60FFF758F80646314B5B6803F041
:1016E4000C036268B3EB820F16D0FFF74DF8801B32
:1016F40041F288339842F0D9032045E0284A126821
:1017040012F4003FE0D101203EE0254A126812F0B5
:10171400007FD9D1012037E0204B1B6803F0070379
:10172400AB420AD91D4A136823F007032B43136005
:10173400136803F00703AB422DD1236813F0040FA1
:1017440006D0174A536823F4E063E1680B435360FF
:10175400236813F0080F07D0114A536823F4605329
:10176400216943EAC1035360FFF734FF0C4B5B6804
:10177400C3F303130B4AD35CD8400B4B18600B4BD9
:101784001868FEF7BDFF002070BD012070470120DE
:10179400FAE70120F8E70120F6E700BF0020024045
:1017A400001002400025000800000020080000206E
:1017B400014B1868704700BF0000002008B5FFF710
:1017C400F7FF044B5B68C3F30223034AD35CD8409E
:1017D40008BD00BF001002401025000808B5FFF73F
:1017E400E7FF044B5B68C3F3C223034AD35CD840CE
:1017F40008BD00BF001002401025000830B4036A81
:1018040023F001030362036A4268846924F07304C9
:101814000D682C4323F0020C8B6843EA0C03104D33
:10182400A84203D005F50065A84205D123F00803BA
:10183400CD682B4323F00403094DA84203D005F5DA
:101844000065A84205D122F440724D692A438D698E
:101854002A43426084614A684263036230BC704731
:10186400002C014030B4036A23F480730362036ADA
:101874004268C46924F0730C0C6844EA0C0523F430
:1018840000738C6843EA0423114CA04203D004F58E
:101894000064A04206D123F40063CC6843EA042325
:1018A40023F480630A4CA04203D004F50064A042F0
:1018B40007D122F440524C6942EA04128C6942EA8C
:1018C40004124260C5614A68C263036230BC704757
:1018D400002C014030B4036A23F480530362036A8A
:1018E4004468C26922F4E6420D6842EA052223F400
:1018F40000538D6843EA0533094DA84203D005F52A
:101904000065A84204D124F480444D6944EA851456
:101914004460C2614A680264036230BC704700BF1D
:10192400002C014010B4036A046A24F00104046228
:10193400846924F0F00C4CEA021223F00A030B43EE
:101944008261036210BC704710B4046A24F010046E
:1019540004628469036A24F4704C4CEA023223F072
:10196400A00343EA01138261036210BC70478368D9
:1019740023F070030B4343F0070383607047704701
:101984000368244A904212D002F5006290420ED0BD
:10199400B0F1804F0BD0A2F59832904207D002F5F7
:1019A4008062904203D002F58062904203D123F01A
:1019B40070034A681343174A904212D002F500623A
:1019C40090420ED0B0F1804F0BD0A2F598329042E5
:1019D40007D002F58062904203D002F58062904203
:1019E40003D123F44073CA68134323F080034A6984
:1019F400134303608B68C3620B688362054B984290
:101A040003D003F50063984201D10B6903630123FA
:101A140043617047002C014040B310B5044690F870
:101A24003D30F3B1022384F83D30214651F8040BD4
:101A3400FFF7A6FF012384F8463084F83E3084F88B
:101A44003F3084F8403084F8413084F8423084F8E0
:101A5400433084F8443084F8453084F83D30002025
:101A640010BD80F83C30FEF723FDDBE70120704712
:101A740040B310B5044690F83D30F3B1022384F826
:101A84003D30214651F8040BFFF77AFF012384F817
:101A9400463084F83E3084F83F3084F8403084F88F
:101AA400413084F8423084F8433084F8443084F878
:101AB400453084F83D30002010BD80F83C30FFF7FD
:101AC4005EFFDBE70120704730B4036A23F01003A4
:101AD4000362036A4468826922F4E6420D6842EABA
:101AE400052223F020038D6843EA0513114DA84213
:101AF40003D005F50065A84206D123F08003CD6824
:101B040043EA051323F040030A4DA84203D005F528
:101B14000065A84207D124F440644D6944EA850471
:101B24008D6944EA8504446082614A688263036281
:101B340030BC7047002C014038B590F83C30012B84
:101B440060D004460D46012380F83C300C2A1AD894
:101B5400DFE802F0071919191D1919193119191992
:101B640044000068FFF74AFE2268936943F00803C3
:101B740093612268936923F0040393612268936953
:101B840029690B439361002084F83C0038BD006848
:101B9400FFF79AFF2268936943F400639361226814
:101BA400936923F48063936122689369296943EA02
:101BB40001239361E7E70068FFF754FE2268D369C5
:101BC40043F00803D3612268D36923F00403D3618B
:101BD4002268D36929690B43D361D4E70068FFF70E
:101BE40079FE2268D36943F40063D3612268D36920
:101BF40023F48063D3612268D369296943EA01230A
:101C0400D361C0E70220C1E710B4846824F47F4C98
:101C140042EA03220A4342EA0C02826010BC704783
:101C240090F83C30012B66D010B50446012380F8AF
:101C34003C30022380F83D300268936823F47F43EC
:101C440023F0770393600B68602B40D022D8402B9D
:101C540047D00BD9502B0ED1CA6849680068FFF7EA
:101C640061FE50212068FFF782FE04E0202B0CD097
:101C740008D9302B09D0012384F83D30002084F8A2
:101C84003C0010BD0BB1102BF5D119462068FFF7AD
:101C94006EFEF0E7702B0ED0B3F5005FEBD1CB688E
:101CA4004A6889680068FFF7AFFF2268936843F4C5
:101CB40080439360DFE7CB684A6889680068FFF770
:101CC400A3FF2268936843F077039360D3E7CA685D
:101CD40049680068FFF738FE60212068FFF747FE77
:101CE400C9E7CA6849680068FFF71CFE40212068FC
:101CF400FFF73DFEBFE70220704701F01F010123FB
:101D040003FA01FC036A23EA0C030362036A02FA7E
:101D140001F10B430362704710B5044608460029DD
:101D24003AD194F83E30DBB2013B18BF0123002BBB
:101D340066D1002849D1022384F83E3001220146AD
:101D44002068FFF7DAFF23682F4A934203D002F595
:101D54000062934203D15A6C42F400425A642368ED
:101D6400294A934241D002F5006293423DD0B3F137
:101D7400804F3AD0A2F59832934236D002F5806271
:101D8400934232D002F5806293422ED01A6842F018
:101D940001021A60002032E0042908D008290DD07D
:101DA40094F84130DBB2013B18BF0123BFE794F83C
:101DB4003F30DBB2013B18BF0123B8E794F8403051
:101DC400DBB2013B18BF0123B1E7042805D0082882
:101DD40007D0022384F84130B0E7022384F83F306F
:101DE400ACE7022384F84030A8E79A6802F00702BF
:101DF400062A07D01A6842F001021A60002010BDBA
:101E04000120FCE70020FAE7002C014090F83C3068
:101E1400012B34D010B4012380F83C30022380F825
:101E24003D3003685A689C6822F0700C0A6842EAE4
:101E34000C025A600368134A934212D002F50062FE
:101E440093420ED0B3F1804F0BD0A2F59832934257
:101E540007D002F58062934203D002F58062934278
:101E640004D124F080044A6814439C60012380F860
:101E74003D30002380F83C30184610BC70470220E7
:101E8400704700BF002C01400268D36823F49073AC
:101E9400D3600268536923F001035361036B012B80
:101EA40005D0202380F83E30002303637047026886
:101EB400D36823F01003D360F3E790F83D30DBB22E
:101EC400212B01D0022070478368B3F5805F17D0BF
:101ED400036A5A1C02621A7803685A60C38C9BB264
:101EE400013B9BB2C3844BB90268D36823F08003DF
:101EF400D3600268D36843F04003D3600020704786
:101F04000369002BE4D1036A1B880268C3F3080346
:101F14005360036A02330362E0E7000010B504462D
:101F24000268136923F44053C1680B431361836847
:101F34000269134342691A430168CB6823F4B0531E
:101F440023F00C031343CB600268536923F44073FA
:101F540081690B4353610268134B9A4220D0FFF707
:101F64002DFC024602EB820202EB820263689B00B4
:101F7400B2FBF3F20D48A0FB02314909642303FBD1
:101F840011231B013233A0FB03235B0903F0F0028E
:101F940002EB011203F00F03216813448B6010BDA0
:101FA400FFF71CFC0246DDE7003801401F85EB51BA
:101FB40058B310B5044690F83D300BB3242384F88D
:101FC4003D302268D36823F40053D3602046FFF7E2
:101FD400A5FF2268136923F49043136122685369AF
:101FE40023F02A0353612268D36843F40053D36077
:101FF40000202064202384F83D3084F83E3010BD56
:1020040080F83C30FEF712FBD8E701207047704798
:1020140008B50168CA6822F04002CA60202280F82C
:102024003D20FFF7F4FF002008BD7047704708B556
:10203400406A0023C385C384FFF7F8FF08BD7047D7
:1020440090F83E30DBB2222B60D18368B3F5805F19
:1020540046D0826AB3F5805F04D0002B4DD103696A
:10206400002B4AD103685B681370836A013383626F
:10207400C38D9BB2013B9BB2C385002B48D100B5F5
:1020840083B00268D36823F02003D3600268D36866
:1020940023F48073D3600268536923F0010353610E
:1020A400202380F83E30036B012B2CD100230363E3
:1020B4000268D36823F01003D36003681A6812F02F
:1020C400100F06D0002201921A6801925B680193F6
:1020D400019B818DFFF7B3FF002003B05DF804FB83
:1020E4000269002AB5D1826A03685B68C3F30803F6
:1020F4001380836A02338362BAE703685B6803F080
:102104007F031370B1E7FFF790FFE5E70220704704
:102114000020704730B583B0044602681368D06865
:10212400516913F00F0505D113F0200F02D010F000
:10213400200F19D12DB111F0010119D110F4907FA4
:1021440016D1216B012975D013F0800F03D010F044
:10215400800F40F0D78013F0400F03D010F0400FF1
:1021640040F0D48003B030BD2046FFF769FFF9E7A3
:1021740013F0010F06D010F4807F03D0226C42F0DC
:102184000102226413F0040F04D019B1226C42F04E
:102194000202226413F0020F04D019B1226C42F03F
:1021A4000402226413F0080F07D010F0200F00D1AE
:1021B40019B1226C42F008022264226C002AD1D0A8
:1021C40013F0200F02D010F0200F21D123685B6997
:1021D40003F04003226C12F0080F00D123B3204611
:1021E400FFF752FE23685A6912F0400F18D05A695B
:1021F40022F040025A61A36B73B1464A5A63A06B42
:10220400FEF7A2FB0028ADD0A06B436B9847A9E76B
:102214002046FFF715FFD9E72046FFF707FFA1E7A0
:102224002046FFF703FF9DE72046FFF7FFFE00234C
:10223400236497E713F0100F86D010F0100F83D0AB
:10224400002301931368019353680193019B53691D
:1022540013F0400F32D0A16B0B685B689BB2002B6C
:1022640080D0A08D98427FF67DAFE3858B69202BCB
:1022740008D1A18DE38D9BB2C91A89B22046FFF71C
:10228400DEFE6FE7D36823F48073D360226853695A
:1022940023F0010353612268536923F0400353611F
:1022A400202384F83E30002323632268D36823F07C
:1022B4001003D360A06BFEF725FBDAE7A18DE38D55
:1022C4009BB2C91A89B2E38D9BB2002B3FF44AAF8B
:1022D40000293FF447AFD36823F49073D360226896
:1022E400536923F001035361202384F83E30002313
:1022F40023632268D36823F01003D3602046FFF7DA
:102304009EFE2FE72046FFF7D8FD2BE72046FFF778
:102314007FFE27E73320000870B50D4E0D4D761B68
:10232400B61006D0002455F8043B01349847A64261
:10233400F9D1094E094D00F0D5F8761BB61006D038
:10234400002455F8043B01349847A642F9D170BDE6
:1023540030250008302500083825000830250008FD
:10236400830730B548D0541E002A3FD00346CAB272
:1023740001E0013C3AD303F8012B9D07F9D1032C6A
:102384002DD9CDB245EA05250F2C45EA054536D9A8
:10239400A4F1100222F00F0C03F1200EE6444FEAE0
:1023A400121C03F1100242E9045542E902551032AD
:1023B4007245F8D10CF1010214F00C0F03EB021278
:1023C40004F00F0C13D0ACF1040323F00303043323
:1023D400134442F8045B9342FBD10CF003042CB188
:1023E400CAB21C4403F8012B9C42FBD130BD6446A5
:1023F4001346002CF4D1F9E703461446BFE71A4606
:10240400A446E0E7024B13B1024800F005B8704758
:102414000000000029240008002301461A4618463B
:1024240000F01AB838B5084B084D5B1B9C1007D058
:10243400043B1D44013C55F804399847002CF9D15C
:10244400BDE8384000F054B83C25000838250008A1
:10245400704700BF704700BF2DE9F047DFF87CA04C
:102464000646DAF8000098460F469146FFF7F0FF5B
:102474001B4B1B68D3F8484124B365681F2D26DC29
:102484005EB96B1C0235DAF80000636044F825700D
:10249400FFF7E0FF0020BDE8F087012304EB85018E
:1024A400C1F88890D4F88821AB401A43022EC4F8AE
:1024B4008821C1F80881E4D1D4F88C211343C4F8ED
:1024C4008C31DEE703F5A674C3F84841D5E7DAF8A2
:1024D4000000FFF7BFFF4FF0FF30DCE738040020B7
:1024E4002C250008F8B500BFF8BC08BC9E46704710
:0C24F400F8B500BFF8BC08BC9E4670475D
:1025000000000000000000000102030406070809A3
:102510000000000001020304020304050607080985
:102520000A0B0C0D0E0F1010000000001000002010
:0825300009240008090200085B
:04253800E5010008B1
:10253C000024F40001000000100000000000000066
:10254C0000000000FC02002064030020CC030020EB
:10255C00000000000000000000000000000000006F
:10256C00000000000000000000000000000000005F
:10257C00000000000000000000000000000000004F
:10258C00000000000000000000000000000000003F
:10259C00000000000000000000000000000000002F
:1025AC00000000000000000000000000000000001F
:1025BC00000000000000000000000000000000000F
:1025CC0000000000000000000000000000000000FF
:1025DC0000000000000000000000000000000000EF
:1025EC0000000000000000000100000000000000DE
:1025FC000E33CDAB34126DE6ECDE05000B000000A3
:10260C0000000000000000000000000000000000BE
:10261C0000000000000000000000000000000000AE
:10262C00000000000000000000000000000000009E
:10263C00000000000000000000000000000000008E
:0C296C000000000000000000C405002076
:04000005080006B930
:00000001FF
