:020000040800F2
:1000000000000120590900086D0600086F0600086D
:10001000710600087306000875060008000000005D
:10002000000000000000000000000000770600084B
:1000300079060008000000007B0600087D06000825
:10004000A1090008A1090008A1090008A1090008E8
:10005000A1090008A1090008A1090008A1090008D8
:10006000A1090008A1090008A1090008A1090008C8
:10007000A1090008A1090008A1090008A1090008B8
:100080008506000895060008A1090008A1090008D6
:10009000A1090008A1090008A1090008A109000898
:1000A000A1090008A1090008A1090008A109000888
:1000B000A1090008A1090008A1090008A109000878
:1000C000A1090008A1090008A1090008A109000868
:1000D000A1090008A5060008A1090008A109000857
:1000E000A1090008A1090008A1090008A109000848
:1000F000A1090008A1090008A1090008A109000838
:10010000A1090008A1090008A1090008A109000827
:10011000A1090008A1090008A1090008A109000817
:10012000A1090008A1090008A1090008A109000807
:1001300000000000000000000000000000000000BF
:1001400000000000000000000000000000000000AF
:10015000000000000000000000000000000000009F
:10016000000000000000000000000000000000008F
:10017000000000000000000000000000000000007F
:10018000000000000000000000000000000000006F
:10019000000000000000000000000000000000005F
:1001A000000000000000000000000000000000004F
:1001B000000000000000000000000000000000003F
:1001C000000000000000000000000000000000002F
:1001D000000000000000000000000000000000001F
:0401E0005FF8E0F1F3
:1001E40010B5054C237833B9044B13B10448AFF36D
:1001F40000800123237010BD4C0800200000000083
:10020400F44C000808B5034B1BB103490348AFF392
:10021400008008BD0000000050080020F44C0008D5
:10022400844641EA000313F0030349D1403A23D33F
:100234000B6803604B6843608B688360CB68C36062
:100244000B6903614B6943618B698361CB69C3614A
:100254000B6A03624B6A43628B6A8362CB6AC36232
:100264000B6B03634B6B43638B6B8363CB6BC3631A
:1002740040304031403ADBD230320BD30B6803605C
:100284004B6843608B688360CB68C3601030103167
:10029400103AF3D20C3205D351F8043B40F8043B36
:1002A400043AF9D2043208D0D2071CBF11F8013B3A
:1002B40000F8013B01D30B8803806046704700BF00
:1002C400082A13D38B07B1D010F00303AED0C3F1C7
:1002D4000403D21ADB071CBF11F8013B00F8013BF1
:1002E400A4D331F8023B20F8023B9FE7043AD9D368
:1002F400013A11F8013B00F8013BF9D20B78037085
:100304004B7843708B7883706046704700B583B038
:100314000E4B5A6942F001025A615B6903F0010312
:100324000193019B00221146102000F095FB102040
:1003340000F0CAFB00221146112000F08DFB1120B1
:1003440000F0C2FB03B05DF804FB00BF00100240E4
:1003540082B00A4B9A6942F004029A619A6902F0E7
:1003640004020092009A9A6942F008029A619B6919
:1003740003F008030193019B02B070470010024090
:1003840008B50B480B4B03600B4B436000238360A1
:10039400C3604FF48042026143618361C3610362BD
:1003A40001F07CFA00B908BD00F0FAF8FBE700BFE1
:1003B400F008002000540040A086010030B587B04A
:1003C400002302930393049305930268304B9A42EB
:1003D40001D007B030BD04462E4DAB6943F008038D
:1003E400AB61AB6903F008030093009BC023029345
:1003F400122303930323059302A9274800F0B6FEB2
:10040400EB6943F40013EB61EB6903F4001301930C
:10041400019B2248224B03600023436083608022B7
:10042400C2604FF4807202614FF480624261836162
:10043400C36100F081FB20BB184BA3635C621948C5
:10044400194B036010234360002383608022C26041
:100454004FF4807202614FF4806242618361C36130
:1004640000F06AFB80B90F4B63635C622268136817
:1004740043F4004313602268136823F400431360B9
:10048400A7E700F08DF8D7E700F08AF8EBE700BFA4
:100494000054004000100240000C01406808002095
:1004A40080000240AC0800206C00024038B50268AD
:1004B4000C4B9A4200D038BD04460B4AD36923F44E
:1004C4000013D361094D4021284600F06FFF8021BD
:1004D400284600F06BFFA06B00F07AFB606B00F025
:1004E40077FBE8E70054004000100240000C014094
:1004F40000B583B001904FF6FF73012201A90348B0
:1005040002F0D1FC019803B05DF804FB90090020CF
:1005140010B588B01B4B93E8030006908DF81C10AF
:10052400002303930493ADF81430174802F076FFC8
:100534000123019306AA00920822A021134801F086
:10054400A5FAB8B9124802F069FF104C204601F030
:1005540083FAFFF715FF0123019303AA00920822EF
:10056400A121204601F076FB40B90A4802F056FF6B
:1005740008B010BD084802F051FFE6E7074802F052
:100584004DFFF5E74C4D00080C4D0008F008002025
:10059400184D0008344D0008284D0008404D00084F
:1005A40072B6FEE700B591B02822002106A802F039
:1005B40095FE002301930293039304930593012270
:1005C40006924FF4803307930A9202220D920E93FF
:1005D4004FF4E0130F9306A801F00AFD80B90F232E
:1005E400019302210291002303934FF48062049249
:1005F400059301A801F03CFF20B911B05DF804FB9C
:10060400FFF7CEFFFFF7CCFF08B500F0EFF9FFF7D7
:10061400C9FFFFF79DFEFFF779FEFFF7B1FE00F07B
:10062400DFF800F039F90421024802F08BFAFFF7F1
:100634006FFFFEE74809002082B00A4B9A6942F036
:1006440001029A619A6902F001020092009ADA6941
:1006540042F08052DA61DB6903F080530193019B1D
:1006640002B0704700100240FEE7FEE7FEE7FEE737
:10067400FEE770477047704708B500F0C9F908BD38
:1006840008B5024800F0FCFB08BD00BFAC08002020
:1006940008B5024800F0F4FB08BD00BF680800205C
:1006A40008B5024802F0EEFC08BD00BF9009002026
:1006B40070B50C461646002506E0AFF300802146CF
:1006C40001F8010B01350C46B542F6DB304670BD2E
:1006D40070B50C461646002504E014F8010BFFF72C
:1006E40007FF0135B542F8DB304670BD4FF0FF30EF
:1006F40070474FF400534B6000207047012070474F
:100704000020704710B503460C4A0D490D48006897
:1007140040B10C4800680344521A934206D8094A6F
:10072400136010BD0748084C0460F2E702F0ACFD0A
:100734000C2303604FF0FF30F3E700BF00000120FB
:100744000004000044090020200A00207047000033
:100754000268094B9A4200D0704782B003F5033314
:10076400DA6942F00202DA61DB6903F00203019301
:10077400019B02B0704700BF0004004000B587B081
:10078400002302930393049305930268114B9A4246
:1007940002D007B05DF804FB03F503339A6942F015
:1007A40008029A619B6903F008030193019B2023CB
:1007B400029302230393059302A9074800F0D6FC91
:1007C400064A536823F4406343F0E06343F4006350
:1007D4005360DEE700040040000C014000000140CB
:1007E40000B58FB000230A930B930C930D930893D9
:1007F4000993019302930393049305930693079338
:100804002348244A026040F60F624260836042F249
:100814000F72C26003618023836102F013F840BB4E
:100824004FF480530A930AA9194802F00FF918BB30
:10083400174802F033F810BB00230893099308A962
:10084400134802F0F9F9E8B96023019341F28833BF
:10085400029300230393059304220DEB02010C4839
:1008640002F080F888B90A48FFF788FF0FB05DF8F6
:1008740004FBFFF795FED3E7FFF792FED8E7FFF7F7
:100884008FFED9E7FFF78CFEDEE7FFF789FEEAE784
:10089400480900200004004008B50A480A4B0360D8
:1008A4004FF4E133436000238360C36003610C228F
:1008B40042618361C36102F0C7FA00B908BDFFF762
:1008C4006FFEFBE7900900200038014030B587B087
:1008D4000023029303930493059302681B4B9A42EB
:1008E40001D007B030BD03F558439A6942F4804201
:1008F4009A619A6902F480420092009A9A6942F0DD
:1009040004029A619B6903F004030193019B4FF471
:100914000073029302230393032305930C4D02A94E
:10092400284600F023FC4FF48063029300240394D0
:10093400049402A9284600F019FC224621462520E9
:1009440000F08AF8252000F0BFF8CAE7003801401B
:10095400000801400C480D490D4A002302E0D45818
:10096400C4500433C4188C42F9D30A4A0A4C0023F5
:1009740001E013600432A242FBD3FFF7E7FE02F06A
:1009840089FCFFF741FE7047000000204C0800205E
:10099400944D00084C080020200A0020FEE70000C7
:1009A40010B504460E4B18784FF47A73B3FBF0F38A
:1009B4000C4A1068B0FBF3F000F094F868B90F2CFF
:1009C40001D901200AE0002221464FF0FF3000F057
:1009D40043F8054B1C60002000E0012010BD00BF5F
:1009E40004000020000000200800002008B5074A89
:1009F400136843F010031360032000F01BF80F206A
:100A0400FFF7CEFFFFF718FE002008BD00200240CC
:100A1400034A1168034B1B780B441360704700BFF3
:100A2400D409002004000020014B1868704700BF5F
:100A3400D4090020074AD36823F4E0631B041B0C89
:100A4400000200F4E060034343F0BF6343F4003367
:100A5400D360704700ED00E000B5194BDB68C3F3C9
:100A64000223C3F1070CBCF1040F28BF4FF0040CA0
:100A740003F1040EBEF1060F18D9033B4FF0FF3EFD
:100A84000EFA0CFC21EA0C0199400EFA03F322EA57
:100A94000303194300280BDB0901C9B200F16040CC
:100AA40000F5614080F800135DF804FB0023E5E7DE
:100AB40000F00F000901C9B2024B1954F4E700BF5A
:100AC40000ED00E014ED00E0002807DB00F01F0259
:100AD400400901239340024A42F82030704700BF86
:100AE40000E100E00138B0F1807F0BD24FF0E02349
:100AF4005861054AF02182F82310002098610722EA
:100B04001A6170470120704700ED00E030B4012401
:100B1400056CAC40C56B6C60046863604368102B63
:100B240005D0036899600368DA6030BC70470368D5
:100B34009A600368D960F8E700283AD010B40246F6
:100B440000681D4B984229D81C4B03441C49A1FB47
:100B540003131B099B0013641A4BD363022382F80B
:100B64002130016821F47F5121F0300153689468E9
:100B74002343D46823431469234354692343946966
:100B84002343D46923430B43036000209063012370
:100B940082F8213082F8200010BC70470A4B0344CD
:100BA4000749A1FB03131B099B001364074BD36381
:100BB400D4E70120704700BF07040240F8FFFDBFDF
:100BC400CDCCCCCC00000240F8FBFDBF00040240B9
:100BD4000346002836D001680A6822F001020A6040
:100BE400016800220A6001684A6001688A6001683D
:100BF400CA600168144A914219D8144A0A44144933
:100C0400A1FB0212120992000264124AC263186C18
:100C1400D96B012282404A6000209862D86218632E
:100C24005863986383F8210083F8200070470A4AC8
:100C34000A440749A1FB0212120992000264074AFE
:100C4400C263E4E70120704707040240F8FFFDBFD8
:100C5400CDCCCCCC00000240F8FBFDBF0004024028
:100C640038B5044690F82000012831D0012084F8DA
:100C7400200094F82100012804D0002384F82030B7
:100C8400022038BD022084F821000020A0632568DA
:100C9400286820F0010028602046FFF737FFE36A48
:100CA4005BB12268136843F00E0313602268136873
:100CB40043F0010313600020E3E72268136823F084
:100CC400040313602268136843F00A031360EDE71A
:100CD4000220D6E790F82130022B06D00423836348
:100CE400002380F82030012070470268136823F045
:100CF4000E0313600268136823F001031360036C8E
:100D0400C16B012202FA03F34B6080F82120002317
:100D140080F820301846704708B590F82130022B2F
:100D240003D004238363012008BD0268136823F001
:100D34000E0313600268136823F001031360036851
:100D44004B4A93424ED9783A934224D01432934278
:100D540030D0143293422FD0143293422FD0143215
:100D640093422FD0143293422FD0143293422FD077
:100D740002F5627293422ED0143293422DD0143273
:100D840093422CD01432934202D04FF4803203E0C9
:100D94004FF4805200E00122364B5A60012380F860
:100DA4002130002380F82030436B002B5ED098471D
:100DB4000020B9E71022EFE74FF48072ECE74FF41C
:100DC4008052E9E74FF48032E6E74FF48012E3E71C
:100DD4004FF08072E0E70122DEE71022DCE74FF4F7
:100DE4008072D9E7244A934224D01432934225D006
:100DF4001432934224D01432934224D014329342B6
:100E040024D01432934224D01432934224D002F5D5
:100E14006272934223D01432934222D0143293420A
:100E240021D01432934202D04FF4803203E04FF4C5
:100E3400805200E00122114B5A60AFE71022FAE71A
:100E44004FF48072F7E74FF48052F4E74FF48032A6
:100E5400F1E74FF48012EEE74FF08072EBE70122E6
:100E6400E9E71022E7E74FF48072E4E700205BE74C
:100E740080000240000402400800024000000240DA
:100E840038B5C36B1A6804682568016C04238B4069
:100E9400134200F09B8015F0040F00F09780236844
:100EA40013F0200F03D1236823F0040323600368A5
:100EB4009A4A934246D9783A934224D014329342C0
:100EC40028D01432934227D01432934227D01432BC
:100ED400934227D01432934227D01432934227D01E
:100EE40002F56272934226D01432934225D0143212
:100EF400934224D01432934202D04FF4802203E070
:100F04004FF4804200E00422854B5A60C36A03B167
:100F1400984738BD4022F7E74FF48062F4E74FF476
:100F24008042F1E74FF48022EEE74FF48002EBE7D2
:100F34004FF08062E8E70422E6E74022E4E74FF45A
:100F44008062E1E7774A934224D01432934225D059
:100F54001432934224D01432934224D01432934254
:100F640024D01432934224D01432934224D002F574
:100F74006272934223D01432934222D014329342A9
:100F840021D01432934202D04FF4802203E04FF474
:100F9400804200E00422644B5A60B7E74022FAE73B
:100FA4004FF48062F7E74FF48042F4E74FF4802275
:100FB400F1E74FF48002EEE74FF08062EBE70422A2
:100FC400E9E74022E7E74FF48062E4E702238B403D
:100FD400134200F0AB8015F0020F00F0A7802368E5
:100FE40013F0200F06D1236823F00A0323600123A2
:100FF40080F821300368494A93424BD9783A9342A6
:1010040024D0143293422DD0143293422CD0143273
:1010140093422CD0143293422CD0143293422CD0CD
:10102400143293422CD002F5627293422BD01432C4
:1010340093422AD01432934229D01432934202D0DC
:101044004FF4003203E04FF4005200E00222344B2C
:101054005A60002380F82030836A002B3FF459AF94
:10106400984756E72022F2E74FF40072EFE74FF477
:101074000052ECE74FF40032E9E74FF40012E6E7E0
:101084004FF00072E3E70222E1E72022DFE74FF4AA
:101094000072DCE7234A934224D01432934225D0D1
:1010A4001432934224D01432934224D01432934203
:1010B40024D01432934224D01432934224D002F523
:1010C4006272934223D01432934222D01432934258
:1010D40021D01432934202D04FF4003203E04FF493
:1010E400005200E00222104B5A60B2E72022FAE7D5
:1010F4004FF40072F7E74FF40052F4E74FF4003274
:10110400F1E74FF40012EEE74FF00072EBE7022232
:10111400E9E72022E7E74FF40072E4E780000240A9
:10112400000402400800024000000240082303FAC1
:1011340001F111423FF4EDAE15F0080F3FF4E9AEB2
:10114400236823F00E032360026CC16B012303FAAE
:1011540002F24A60836380F82130002380F8203053
:10116400036B002B3FF4D5AE9847D2E670B582B03E
:101174000024A446B0E0874DAA4210D007D9864D7A
:10118400AA420CD005F58035AA4208D013E0A5F593
:101194008015AA4203D005F57025AA4207D18A68B2
:1011A400002A62D0012A5BD04361082403E0A5F53C
:1011B4008015AA42F3D0BEF1FF0F58D80646BEF1FF
:1011C400FF0F56D84FEA8C0233680F25954023EA67
:1011D400050304FA02F2134333604B6813F0805F93
:1011E40078D06E4B9A6942F001029A619B6903F0D0
:1011F40001030193019B4FEA9C02951C684B53F831
:1012040025600CF003039D000F23AB4026EA030680
:10121400644B984233D003F58063984200F0988081
:1012240003F58063984200F0958003F5806398424B
:1012340000F0928003F58063984200F08F8003F5FC
:101244008063984219D006231AE0CC68B3E7CC68CF
:101254000434B0E7CC680834ADE7CC680C34AAE7B2
:1012640003610824A7E70024A5E70424A3E7061DD7
:10127400A5E7ACF108029200A6E7052300E00023ED
:10128400AB4033430232464D45F822304B6813F4E9
:10129400803F65D0444A136843EA0E0313604B68E9
:1012A40013F4003F62D0404A536843EA0E0353608C
:1012B4004B6813F4801F5FD03B4A936843EA0E03E4
:1012C40093604B6813F4001F5CD0374AD36843EA39
:1012D4000E03D3600CF1010C0A6832FA0CF357D0F8
:1012E400012303FA0CF302EA030E33EA0202F1D1FA
:1012F4004A68122A3FF63FAF122A3FF65CAF01A5B7
:1013040055F822F0A31100084F12000859120008E2
:101314006B120008BB110008BB110008BB110008C8
:10132400BB110008BB110008BB110008BB11000869
:10133400BB110008BB110008BB110008BB11000859
:10134400BB110008BB110008531200085F1200080B
:10135400012395E7022393E7032391E704238FE70F
:10136400114A136823EA0E03136098E70E4A536880
:1013740023EA0E0353609BE70B4A936823EA0E03A8
:1013840093609EE7084AD36823EA0E03D360A1E77B
:1013940002B070BD000022100000311000100240A5
:1013A400000001400008014000040140002279E0EF
:1013B400052500E0002505FA04F464454ED0FF2B12
:1013C40067D80646FF2B66D8950034684FF00F0E99
:1013D4000EFA05FE24EA0E044FF0040C0CFA05FC88
:1013E40044EA0C043460C46824EA0303C360013291
:1013F40031FA02F354D0012393400B40F7D04FEA63
:10140400920E0EF102052C4C54F8255002F0030400
:10141400A4000F26A64006EA050C284DA842C9D010
:1014240005F58065A84211D005F58065A8420FD066
:1014340005F58065A8420DD005F58065A8420BD05E
:1014440005F58065A842B3D00625B4E70125B2E7C7
:101454000225B0E70325AEE70425ACE7164F0EF1ED
:10146400020457F8245025EA060647F82460144C71
:10147400256825EA03052560656825EA0305656096
:10148400A56825EA0305A560E56825EA0305E56086
:1014940095E7061D96E7A2F1080C4FEA8C0594E740
:1014A400F0BD013231FA02F305D0012393400B4021
:1014B400F7D0F0B5A3E770470000014000080140F1
:1014C4000004014003685A6912F4806F01D10020BE
:1014D40070476FF480625A6100230363202280F80E
:1014E4003D2080F83E30026C42F00402026480F831
:1014F4003C30012070472DE9F04107460D469046E7
:101504001E4624E0FFF790FA069BC01AB04200D8AA
:10151400EEB900233B63202287F83D2087F83E3054
:101524003A6C42F020023A6487F83C3001201EE015
:101534003B689C6925EA040C1FFA8CFCBCFA8CFC01
:101544004FEA5C1CE04511D1B6F1FF3FDAD1C5F397
:101554000743012BECD13B685B6925EA030C1FFAB6
:101564008CFCBCFA8CFC4FEA5C1CEBE70020BDE869
:10157400F0812DE9F04105460E46174698463DE0B8
:101584001A6842F400721A602B686FF480625A6120
:1015940000232B63202285F83D2085F83E302A6CF9
:1015A40042F004022A6485F83C30012034E0FFF75D
:1015B4003BFAA0EB0800B84200D8FFB900232B6324
:1015C400202285F83D2085F83E302A6C42F0200226
:1015D4002A6485F83C3001201EE02B689C6926EAC9
:1015E4000404A4B2003C18BF0124A4B12B685A69B6
:1015F40012F4806FC4D1B7F1FF3FD8D1C6F30743CB
:10160400012BEAD12B685C6926EA0404A4B2003CED
:1016140018BF0124E9E70020BDE8F08170B5044655
:101624000D46164623685B6913F0800F1CD12046D3
:10163400FFF748FFD0B9B5F1FF3FF3D0FFF7F4F956
:10164400801BA84201D8002DECD100232363202263
:1016540084F83D2084F83E30226C42F0200222645B
:1016640084F83C30012000E0002070BD0120FCE73C
:101674002DE9F04385B004460D4691461F46DDF83A
:1016840030800D9E0368196841F4807119600096DA
:10169400434600224FF00111FFF72DFF60B9236884
:1016A40005F0FE051D613346424626492046FFF7F4
:1016B40060FF68B1012008E023681B6813F4807F91
:1016C40002D04FF400732364032005B0BDE8F08317
:1016D4000023039323685A6903929B690393039B32
:1016E400324641462046FFF799FF30B9012F0FD10A
:1016F40023685FFA89F61E61E7E7236C042B01D0A7
:101704000120E2E72268136843F400731360F7E7EB
:1017140023684FEA19221A61324641462046FFF7F0
:101724007DFF20B923685FFA89F61E61CDE7236C3B
:10173400042B01D00120C8E72268136843F4007326
:101744001360F7E7020001002DE9F04784B0044676
:101754000D46164699460C9FDDF8348002681368DE
:1017640043F4806313600368196841F4807119605D
:10177400CDF800803B4600224FF00111FFF7BBFE7D
:1017840070B95FFA85FA236805F0FE051D614346CA
:101794003A4641492046FFF7ECFE68B1012008E0D3
:1017A40023681B6813F4807F02D04FF40073236412
:1017B400032004B0BDE8F0870023039323685A692B
:1017C40003929B690393039B424639462046FFF7E5
:1017D40025FF80B9B9F1010F18D12368F6B21E6153
:1017E400424639462046FFF719FF68B3236C042BA1
:1017F40024D00120DDE7236C042B01D00120D8E79D
:101804002268136843F400731360F7E72368320A0D
:101814001A61424639462046FFF700FF18B923688B
:10182400F6B21E61DCE7236C042B01D00120C0E773
:101834002268136843F400731360F7E7226813689F
:1018440043F400731360D4E72268136843F480738D
:101854001360CDF800803B4600224FF00111204672
:10186400FFF749FE68B922684AF001031361434651
:101874003A4609492046FFF77CFE002899D001200A
:1018840097E723681B6813F4807F02D04FF400733A
:10189400236403208DE700BF02000100002800F04C
:1018A400CC8070B5044690F83D30002B77D02423CB
:1018B40084F83D302268136823F001031360226822
:1018C400136843F4004313602268136823F400434D
:1018D400136000F089FE62685A4B9A4264D85A4BEE
:1018E40098428CBF00230123002B40F0A880574965
:1018F400A1FB00318B0C25686A6822F03F0242EAA2
:1019040091426A6021680A6A22F03F0266684D4D7E
:10191400AE424FD8013313430B622168CA6922F4E3
:101924004F4222F0FF026668464B9E424CD8431E4B
:101934007600B3FBF6F3013340F6FC70034278D033
:10194400C3F30B031343CB6121680B6823F0C0037B
:10195400E269206A024313430B6021688B6823F415
:10196400034323F0FF032269E068024313438B60BF
:101974002168CB6823F0FF036269A0690243134323
:10198400CB602268136843F00103136000202064D5
:10199400202384F83D30206384F83E0070BD80F835
:1019A4003C30FEF70BFD82E7294B98428CBF0023A5
:1019B400012399E74FF4967505FB03F3254DA5FB29
:1019C40003539B090133A6E7A368BBB9451E06EB85
:1019D400460CB5FBFCF50135C5F30B05B5FA85F5E9
:1019E4006D0945BBC3B9013806EB4603B0FBF3F3FD
:1019F4000133C3F30B0343F40043A3E7451E06EB93
:101A0400860C0CEB8C0CB5FBFCF50135C5F30B0512
:101A1400B5FA85F56D09E4E7013806EB860303EBB7
:101A24008303B0FBF3F30133C3F30B0343F44043E9
:101A340088E7042386E7012384E701207047012017
:101A4400ACE700BFA08601007F841E0083DE1B4339
:101A5400FF083D00D34D6210A8B110B504462423FD
:101A640080F83D300268136823F001031360FEF729
:101A74001DFD0020206484F83D00206384F83E00AE
:101A840084F83C0010BD0120704700002DE9F043AC
:101A940085B005460E461746984600230393FEF785
:101AA400C3FF95F83D30DBB2202B40F0C280814665
:101AB400634B1B68DB08634AA2FB03231B0A03EB8B
:101AC400830303EB83030393039C013C0394039C70
:101AD400002C50D02B689A6912F0020FF4D195F8BB
:101AE4003C20012A00F0A980012285F83C201A68D4
:101AF40012F0010F03D11A6842F001021A602A6839
:101B0400136823F400631360212385F83D304023D8
:101B140085F83E3000232B640C9B6B62BDF8343097
:101B24006B856B8D9BB22B85474AEA62002B72D082
:101B34006B6B002B2ED0454A9A626B6B444A1A6336
:101B44006A6B0023D3626A6B53632A682B8D10324D
:101B5400696A686BFFF784F850B3202385F83D3039
:101B6400002285F83E202B6C43F010032B6485F88B
:101B74003C2001205EE000232B63202285F83D20D9
:101B840085F83E302A6C42F020022A6485F83C3005
:101B940001204FE0202385F83D30002285F83E20C7
:101BA4002B6C43F080032B6485F83C20012041E03A
:101BB400CDF804902323009343463A463146284601
:101BC400FFF756FD98B9002202922B6859690291D9
:101BD40099690291029985F83C205A6842F480720E
:101BE4005A602A68536843F40063536022E0686BC8
:101BF400FFF792F86A6B0023936229680A6822F45B
:101C040080620A602B856B852A68136823F00103C0
:101C1400136001200EE0202385F83D30002285F872
:101C24003E202B6C43F040032B6485F83C200120BC
:101C340000E0022005B0BDE8F0830220FAE700BF0F
:101C44000000002089B5F8140000FFFFA51E00085D
:101C54006B1E00082DE9F04387B005460E46174673
:101C64009846FEF7E1FE0023059395F83D30DBB27C
:101C7400202B40F0E1808146734B1B68DB08734ADC
:101C8400A2FB03231B0A03EB830303EB83030593E8
:101C9400059C013C0594059C002C51D02B689A6945
:101CA40012F0020FF4D195F83C20012A00F0C8800C
:101CB400012285F83C201A6812F0010F03D11A683A
:101CC40042F001021A602A68136823F40063136067
:101CD400222385F83D30402385F83E3000232B64D1
:101CE4000E9B6B62BDF83C306B856B8D9BB22B8574
:101CF400574AEA62002B00F08180AB6B002B2ED098
:101D0400544A9A62AB6B544A1A63AA6B0023D36297
:101D1400AA6B536329682B8D6A6A1031A86BFEF78E
:101D24009FFF50B3202385F83D30002285F83E20E4
:101D34002B6C43F010032B6485F83C2001207CE0DD
:101D440000232B63202285F83D2085F83E302A6C41
:101D540042F020022A6485F83C3001206DE0202303
:101D640085F83D30002285F83E202B6C43F080033B
:101D74002B6485F83C2001205FE0CDF804902323F8
:101D8400009343463A4631462846FFF7DDFCD8B96E
:101D94002B8D012B2CD02A68536843F48053536055
:101DA400002203922B68596903919969039103995D
:101DB40085F83C205A6842F480725A602A68536855
:101DC40043F40063536035E0A86BFEF7A5FFAA6BEC
:101DD4000023936229680A6822F480620A602B85D2
:101DE4006B852A68136823F001031360012024E043
:101DF4002A68136823F480631360D1E7CDF8049054
:101E04002323009343463A4631462846FFF79CFC79
:101E1400C0B9002104912B685A6904929A6904920A
:101E2400049A1A6842F400721A60202385F83D303F
:101E340085F83C10002000E0022007B0BDE8F083E4
:101E44000220FAE70120F8E70000002089B5F81421
:101E54000000FFFFA51E00086B1E000870477047B6
:101E640070477047704708B5406A436B0BB1002256
:101E74009A62836B0BB100229A620268136823F49E
:101E84008063136000234385202280F83D2080F87E
:101E94003E30036C43F010030364FFF7E3FF08BD17
:101EA40038B5446A94F83D30DBB294F83E20D1B2A0
:101EB400E56A2068426822F440724260626B0AB1AB
:101EC40000209062A26B0AB10020906203F021020C
:101ED400212A41D003F02202222A3BD094F83E303A
:101EE400002B49D0638D9BB2012B58D022685368D4
:101EF40023F44073536015F5803F06D0082D04D0B9
:101F0400B5F12A4F01D0202D04D12268136843F47F
:101F1400007313602268536823F48053536022686B
:101F2400536823F40063536000236385236C002B00
:101F34003BD1202384F83D3094F83E30DBB2402B73
:101F440037D0002384F83E30122323632046FFF762
:101F540085FF11E02029C1D121684A6822F400627A
:101F64004A6000226285292B07D02A2B0ED02268D2
:101F7400536843F44073536038BD212323632823FB
:101F840084F83D302046FFF76AFFF0E722232363FD
:101F9400282384F83D302046FFF762FFE7E72268F4
:101FA400136823F480631360A0E72046FFF75AFF09
:101FB400E2E7002384F83E3023632046FFF751FF15
:101FC400DAE7000082B0084B1B68084AA2FB03232F
:101FD4005B0A00FB03F3019300BF019B5A1E0192AD
:101FE400002BF9D102B0704700000020D34D6210DD
:101FF400002800F0F18170B582B00446036813F044
:10200400010F2CD0994B5B6803F00C03042B1DD0FB
:10201400964B5B6803F00C03082B12D06368B3F58E
:10202400803F41D0002B55D103F1804303F50433A5
:102034001A6822F480321A601A6822F480221A6024
:1020440037E08A4B5B6813F4803FE7D0874B1B680B
:1020540013F4003F03D06368002B00F0BF812368B2
:1020640013F0020F75D0814B5B6813F00C0F5FD037
:102074007E4B5B6803F00C03082B54D02369002BC0
:1020840000F08A807A4B01221A60FEF7CDFC0546E7
:10209400764B1B6813F0020F75D1FEF7C5FC401B8D
:1020A4000228F5D903209EE1704A136843F4803373
:1020B4001360636843B3FEF7B7FC05466B4B1B68BC
:1020C40013F4003FCBD1FEF7AFFC401B6428F5D9D5
:1020D400032088E1B3F5A02F09D0644B1A6822F4D9
:1020E40080321A601A6822F480221A60E1E703F150
:1020F4008043A3F53C331A6842F480221A601A68BC
:1021040042F480321A60D4E7FEF78EFC0546574B42
:102114001B6813F4003FA2D0FEF786FC401B642822
:10212400F5D903205FE1514B5B6813F4803FA5D1DF
:102134004E4B1B6813F0020F03D02369012B40F0B0
:102144004F814A4A136823F0F803616943EAC103E3
:102154001360236813F0080F33D0A369002B5CD0FD
:10216400434B0122C3F88024FEF75EFC05463F4B37
:102174005B6A13F0020F21D1FEF756FC401B0228C4
:10218400F5D903202FE1394A136823F0F803616974
:1021940043EAC1031360DCE7354B00221A60FEF703
:1021A40043FC0546314B1B6813F0020FD1D0FEF7F8
:1021B4003BFC401B0228F5D9032014E10120FFF762
:1021C40001FF236813F0040F00F09680274BDB69AE
:1021D40013F0805F34D1254BDA6942F08052DA6122
:1021E400DB6903F080530193019B0125214B1B689C
:1021F40013F4807F26D0E368012B3DD0002B53D10C
:1022040003F1804303F504331A6A22F001021A62CF
:102214001A6A22F004021A6233E0154B0022C3F852
:102224008024FEF701FC0546104B5B6A13F0020F95
:10223400C7D0FEF7F9FB401B0228F5D90320D2E0F2
:102244000025D3E70B4A136843F480731360FEF749
:10225400EBFB0646074B1B6813F4807FCBD1FEF7DC
:10226400E3FB801B6428F5D90320BCE00010024086
:1022740000004242007000405F4A136A43F00103C9
:102284001362E36833B3FEF7CFFB06465A4B1B6A6F
:1022940013F0020F2FD1FEF7C7FB801B41F28833E6
:1022A4009842F3D903209EE0052B09D0524B1A6AB9
:1022B40022F001021A621A6A22F004021A62E0E7AA
:1022C4004D4B1A6A42F004021A621A6A42F0010281
:1022D4001A62D6E7FEF7A8FB0646474B1B6A13F0C3
:1022E400020F08D0FEF7A0FB801B41F2883398420E
:1022F400F3D9032077E0E5B9E369002B72D03E4AB5
:10230400526802F00C02082A56D0022B17D03B4B1D
:1023140000221A66FEF788FB0446374B1B6813F04D
:10232400007F47D0FEF780FB001B0228F5D903206D
:1023340059E0314AD36923F08053D361DCE72F4B52
:1023440000221A66FEF770FB05462B4B1B6813F040
:10235400007F06D0FEF768FB401B0228F5D9032056
:1023640041E0236AB3F5803F1AD023494B6823F434
:102374007413226A606A024313434B601F4B0122A9
:102384001A66FEF751FB04461B4B1B6813F0007FD3
:102394000ED1FEF749FB001B0228F5D9032022E0E9
:1023A400154A536823F40033A1680B435360DCE7F8
:1023B400002018E0002016E0012B16D00E4B5B68BD
:1023C40003F48031226A914211D103F47013626ADA
:1023D40093420ED1002006E001207047012002E064
:1023E400012000E0002002B070BD0120FBE70120C5
:1023F400F9E70120F7E700BF001002400000424265
:1024040086B0174B0FCB0DF1180C0CE90F0040F2FE
:102414000123ADF80430134B5B6803F00C02082A67
:1024240002D0114806B07047C3F3834218326A449D
:1024340012F8100C13F4803F0DD00A4B5B68C3F301
:10244400404318336B4413F8143C074A02FB00F072
:10245400B0FBF3F0E6E7054B03FB00F0E2E700BF57
:102464006C4D00080010024000127A0000093D0083
:10247400002800F0A08070B50D460446524B1B683E
:1024840003F007038B420BD24F4A136823F0070370
:102494000B431360136803F007038B4240F08D80F5
:1024A400236813F0020F17D013F0040F04D0474A27
:1024B400536843F4E0635360236813F0080F04D0B7
:1024C400424A536843F460535360404A536823F0CC
:1024D400F003A1680B435360236813F0010F31D05C
:1024E4006368012B20D0022B25D0384A126812F0E1
:1024F400020F64D035494A6822F0030213434B604B
:10250400FEF792FA0646314B5B6803F00C036268EF
:10251400B3EB820F16D0FEF787FA801B41F28833A3
:102524009842F0D9032045E0284A126812F4003F8B
:10253400E0D101203EE0254A126812F0007FD9D193
:10254400012037E0204B1B6803F00703AB420AD994
:102554001D4A136823F007032B431360136803F029
:102564000703AB422DD1236813F0040F06D0174A9A
:10257400536823F4E063E1680B435360236813F06A
:10258400080F07D0114A536823F46053216943EAC2
:10259400C1035360FFF734FF0C4B5B68C3F30313B1
:1025A4000B4AD35CD8400B4B18600B4B1868FEF7F2
:1025B400F7F9002070BD012070470120FAE70120DF
:1025C400F8E70120F6E700BF0020024000100240B7
:1025D400544D00080000002008000020014B18683A
:1025E400704700BF0000002008B5FFF7F7FF044B59
:1025F4005B68C3F30223034AD35CD84008BD00BF21
:1026040000100240644D000808B5FFF7E7FF044BD3
:102614005B68C3F3C223034AD35CD84008BD00BF40
:1026240000100240644D000830B4036A23F0010333
:102634000362036A4268846924F073040D682C43BE
:1026440023F0020C8B6843EA0C03104DA84203D01C
:1026540005F50065A84205D123F00803CD682B4396
:1026640023F00403094DA84203D005F50065A842F0
:1026740005D122F440724D692A438D692A43426090
:1026840084614A684263036230BC7047002C014095
:1026940030B4036A23F480730362036A4268C46932
:1026A40024F0730C0C6844EA0C0523F400738C6862
:1026B40043EA0423114CA04203D004F50064A04271
:1026C40006D123F40063CC6843EA042323F4806333
:1026D4000A4CA04203D004F50064A04207D122F4BE
:1026E40040524C6942EA04128C6942EA0412426084
:1026F400C5614A68C263036230BC7047002C014064
:1027040030B4036A23F480530362036A4468C269E1
:1027140022F4E6420D6842EA052223F400538D6850
:1027240043EA0533094DA84203D005F50065A842E4
:1027340004D124F480444D6944EA85144460C261A0
:102744004A680264036230BC704700BF002C014039
:1027540010B4036A046A24F001040462846924F056
:10276400F00C4CEA021223F00A030B438261036269
:1027740010BC704710B4046A24F010040462846925
:10278400036A24F4704C4CEA023223F0A00343EAB7
:1027940001138261036210BC7047836823F07003E5
:1027A4000B4343F007038360704770470368244A70
:1027B400904212D002F5006290420ED0B0F1804FE8
:1027C4000BD0A2F59832904207D002F58062904275
:1027D40003D002F58062904203D123F070034A686B
:1027E4001343174A904212D002F5006290420ED071
:1027F400B0F1804F0BD0A2F59832904207D002F589
:102804008062904203D002F58062904203D123F4A7
:102814004073CA68134323F080034A691343036077
:102824008B68C3620B688362054B984203D003F53F
:102834000063984201D10B6903630123436170472C
:10284400002C014040B310B5044690F83D30F3B17C
:10285400022384F83D30214651F8040BFFF7A6FF0C
:10286400012384F8463084F83E3084F83F3084F8FD
:10287400403084F8413084F8423084F8433084F89E
:10288400443084F8453084F83D30002010BD80F891
:102894003C30FDF75DFFDBE70120704740B310B526
:1028A400044690F83D30F3B1022384F83D302146CC
:1028B40051F8040BFFF77AFF012384F8463084F8BB
:1028C4003E3084F83F3084F8403084F8413084F856
:1028D400423084F8433084F8443084F8453084F836
:1028E4003D30002010BD80F83C30FFF75EFFDBE791
:1028F4000120704730B4036A23F010030362036AB3
:102904004468826922F4E6420D6842EA052223F013
:1029140020038D6843EA0513114DA84203D005F541
:102924000065A84206D123F08003CD6843EA05136D
:1029340023F040030A4DA84203D005F50065A842E0
:1029440007D124F440644D6944EA85048D6944EA5E
:102954008504446082614A688263036230BC7047C4
:10296400002C014038B590F83C30012B60D004466F
:102974000D46012380F83C300C2A1AD8DFE802F017
:10298400071919191D191919311919194400006861
:10299400FFF74AFE2268936943F0080393612268B3
:1029A400936923F0040393612268936929690B43B3
:1029B4009361002084F83C0038BD0068FFF79AFF5B
:1029C4002268936943F4006393612268936923F452
:1029D4008063936122689369296943EA01239361BF
:1029E400E7E70068FFF754FE2268D36943F0080361
:1029F400D3612268D36923F00403D3612268D369C5
:102A040029690B43D361D4E70068FFF779FE226894
:102A1400D36943F40063D3612268D36923F48063E8
:102A2400D3612268D369296943EA0123D361C0E7EA
:102A34000220C1E710B4846824F47F4C42EA0322E4
:102A44000A4342EA0C02826010BC704790F83C30A2
:102A5400012B66D010B50446012380F83C300223D4
:102A640080F83D300268936823F47F4323F07703B2
:102A740093600B68602B40D022D8402B47D00BD9F1
:102A8400502B0ED1CA6849680068FFF761FE5021D7
:102A94002068FFF782FE04E0202B0CD008D9302BED
:102AA40009D0012384F83D30002084F83C0010BD97
:102AB4000BB1102BF5D119462068FFF76EFEF0E735
:102AC400702B0ED0B3F5005FEBD1CB684A688968F0
:102AD4000068FFF7AFFF2268936843F48043936074
:102AE400DFE7CB684A6889680068FFF7A3FF2268BC
:102AF400936843F077039360D3E7CA684968006832
:102B0400FFF738FE60212068FFF747FEC9E7CA686F
:102B140049680068FFF71CFE40212068FFF73DFE6E
:102B2400BFE70220704701F01F01012303FA01FCF3
:102B3400036A23EA0C030362036A02FA01F10B43FA
:102B44000362704710B50446084600293AD194F848
:102B54003E30DBB2013B18BF0123002B66D10028B5
:102B640049D1022384F83E30012201462068FFF750
:102B7400DAFF23682F4A934203D002F5006293429E
:102B840003D15A6C42F400425A642368294A93429E
:102B940041D002F5006293423DD0B3F1804F3AD068
:102BA400A2F59832934236D002F58062934232D035
:102BB40002F5806293422ED01A6842F001021A6034
:102BC400002032E0042908D008290DD094F84130BF
:102BD400DBB2013B18BF0123BFE794F83F30DBB2FF
:102BE400013B18BF0123B8E794F84030DBB2013B46
:102BF40018BF0123B1E7042805D0082807D0022311
:102C040084F84130B0E7022384F83F30ACE7022374
:102C140084F84030A8E79A6802F00702062A07D031
:102C24001A6842F001021A60002010BD0120FCE77E
:102C34000020FAE7002C014090F83C30012B34D0FE
:102C440010B4012380F83C30022380F83D3003683F
:102C54005A689C6822F0700C0A6842EA0C025A60B6
:102C64000368134A934212D002F5006293420ED0D5
:102C7400B3F1804F0BD0A2F59832934207D002F5FE
:102C84008062934203D002F58062934204D124F01F
:102C940080044A6814439C60012380F83D3000237B
:102CA40080F83C30184610BC70470220704700BFC3
:102CB400002C01400268D36823F49073D360026847
:102CC400536923F001035361036B012B05D02023C7
:102CD40080F83E300023036370470268D36823F012
:102CE4001003D360F3E790F83D30DBB2212B01D021
:102CF400022070478368B3F5805F17D0036A5A1CBB
:102D040002621A7803685A60C38C9BB2013B9BB27F
:102D1400C3844BB90268D36823F08003D36002688C
:102D2400D36843F04003D360002070470369002B4D
:102D3400E4D1036A1B880268C3F308035360036A7F
:102D440002330362E0E7000010B504460268136929
:102D540023F44053C1680B4313618368026913432E
:102D640042691A430168CB6823F4B05323F00C037F
:102D74001343CB600268536923F4407381690B43A6
:102D840053610268134B9A4220D0FFF72DFC024690
:102D940002EB820202EB820263689B00B2FBF3F255
:102DA4000D48A0FB02314909642303FB11231B01D5
:102DB4003233A0FB03235B0903F0F00202EB0112A0
:102DC40003F00F03216813448B6010BDFFF71CFC54
:102DD4000246DDE7003801401F85EB512DE9F84339
:102DE40005460F4616469946DDF820802C6824686F
:102DF40037EA04030CBF4FF0010C4FF0000CB4454C
:102E04001FD1B8F1FF3FF1D0B8F1000F05D0FDF7A5
:102E14000BFEA0EB09004045E8D92A68D36823F4E7
:102E2400D073D3602A68536923F0010353612023CC
:102E340085F83D3085F83E30002385F83C3003208A
:102E440000E00020BDE8F88358B310B5044690F8BC
:102E54003D300BB3242384F83D302268D36823F437
:102E64000053D3602046FFF76FFF2268136923F4F1
:102E7400904313612268536923F02A035361226843
:102E8400D36843F40053D36000202064202384F8E3
:102E94003D3084F83E3010BD80F83C30FDF716FD1F
:102EA400D8E7012070472DE9F04182B01E4690F822
:102EB4003D30DBB2202B54D104460D469046002908
:102EC40053D0002A53D090F83C30012B51D0012329
:102ED40080F83C3000230364212380F83D30FDF763
:102EE400A3FD0746A4F82480A4F82680A368B3F5BC
:102EF400805F05D04FF00008002384F83C3012E0D6
:102F0400236913B14FF00008F6E7A8460025F3E75C
:102F140038F8023B2268C3F308035360E28C92B290
:102F2400013A92B2E284E38C9BB273B100963B46C1
:102F3400002280212046FFF751FFE0B9002DE7D0A1
:102F440015F8012B23685A60E8E700963B460022F7
:102F540040212046FFF742FF78B9202384F83D3012
:102F640000E0022002B0BDE8F0810120FAE7012070
:102F7400F8E70220F6E70320F4E70320F2E77047BE
:102F840008B50168CA6822F04002CA60202280F8AD
:102F94003D20FFF7F4FF002008BD7047704708B5D7
:102FA400406A0023C385C384FFF7F8FF08BD704758
:102FB40090F83E30DBB2222B60D18368B3F5805F9A
:102FC40046D0826AB3F5805F04D0002B4DD10369EB
:102FD400002B4AD103685B681370836A01338362F0
:102FE400C38D9BB2013B9BB2C385002B48D100B576
:102FF40083B00268D36823F02003D3600268D368E7
:1030040023F48073D3600268536923F0010353618E
:10301400202380F83E30036B012B2CD10023036363
:103024000268D36823F01003D36003681A6812F0AF
:10303400100F06D0002201921A6801925B68019376
:10304400019B818DFFF7B3FF002003B05DF804FB03
:103054000269002AB5D1826A03685B68C3F3080376
:103064001380836A02338362BAE703685B6803F000
:103074007F031370B1E7FFF790FFE5E70220704785
:103084000020704730B583B0044602681368D068E6
:10309400516913F00F0505D113F0200F02D010F081
:1030A400200F19D12DB111F0010119D110F4907F25
:1030B40016D1216B012975D013F0800F03D010F0C5
:1030C400800F40F0D78013F0400F03D010F0400F72
:1030D40040F0D48003B030BD2046FFF769FFF9E724
:1030E40013F0010F06D010F4807F03D0226C42F05D
:1030F4000102226413F0040F04D019B1226C42F0CF
:103104000202226413F0020F04D019B1226C42F0BF
:103114000402226413F0080F07D010F0200F00D12E
:1031240019B1226C42F008022264226C002AD1D028
:1031340013F0200F02D010F0200F21D123685B6917
:1031440003F04003226C12F0080F00D123B3204691
:10315400FFF7B0FD23685A6912F0400F18D05A697E
:1031640022F040025A61A36B73B1464A5A63A06BC2
:10317400FDF7D2FD0028ADD0A06B436B9847A9E7BB
:103184002046FFF715FFD9E72046FFF707FFA1E721
:103194002046FFF703FF9DE72046FFF7FFFE0023CD
:1031A400236497E713F0100F86D010F0100F83D02C
:1031B400002301931368019353680193019B53699E
:1031C40013F0400F32D0A16B0B685B689BB2002BED
:1031D40080D0A08D98427FF67DAFE3858B69202B4C
:1031E40008D1A18DE38D9BB2C91A89B22046FFF79D
:1031F400DEFE6FE7D36823F48073D36022685369DB
:1032040023F0010353612268536923F0400353619F
:10321400202384F83E30002323632268D36823F0FC
:103224001003D360A06BFDF755FDDAE7A18DE38DA4
:103234009BB2C91A89B2E38D9BB2002B3FF44AAF0B
:1032440000293FF447AFD36823F49073D360226816
:10325400536923F001035361202384F83E30002393
:1032640023632268D36823F01003D3602046FFF75A
:103274009EFE2FE72046FFF736FD2BE72046FFF79B
:103284007FFE27E7A32F0008014B1868704700BF93
:103294000C00002070B50D4E0D4D761BB61006D0F7
:1032A400002455F8043B01349847A642F9D1094E4D
:1032B400094D01F01DFD761BB61006D0002455F80B
:1032C400043B01349847A642F9D170BD884D0008EB
:1032D400884D0008904D0008884D0008830730B5DC
:1032E40048D0541E002A3FD00346CAB201E0013C34
:1032F4003AD303F8012B9D07F9D1032C2DD9CDB274
:1033040045EA05250F2C45EA054536D9A4F11002F6
:1033140022F00F0C03F1200EE6444FEA121C03F1D5
:10332400100242E9045542E9025510327245F8D1BF
:103334000CF1010214F00C0F03EB021204F00F0C59
:1033440013D0ACF1040323F003030433134442F811
:10335400045B9342FBD10CF003042CB1CAB21C44AD
:1033640003F8012B9C42FBD130BD64461346002C6C
:10337400F4D1F9E703461446BFE71A46A446E0E74A
:1033840030B5054689B008460C4600F04FF80121D7
:103394000223214A04940692AA6B04AC05900844C3
:1033A40001940791AC680293039022B3636E13F007
:1033B400010FB4F90C309AB201D1980525D59104C6
:1033C40006D4626E43F4005322F40052A381626671
:1033D400284601AA214600F015F9636E002814BF9F
:1033E4004FF0FF350A25DA0702D4A3899B0506D5D9
:1033F400284609B030BD284600F05CF8D6E7A06D39
:1034040000F0A2FA284609B030BDA06D00F09AFA87
:10341400B4F90C309AB2D2E7844D0008024B01464D
:103424001868FFF7ADBF00BF0C00002020F00301B7
:1034340010F00300C0F1000051F8043B00F1040C4B
:103444004FEACC0C6FF000021CBF22FA0CF21343BB
:103454004FF0010C4CEA0C2C4CEA0C4CA3EB0C0284
:1034640022EA030212EACC1204BF51F8043B0430EE
:10347400F4D0C2F1000102EA0102B2FA82F2C2F10E
:103484001F0200EBD2007047024B13B1024800F058
:1034940005B8704700000000DD3500080023014630
:1034A4001A46184601F094B8014900F023BA00BF47
:1034B400854600082DE9F0478246394800F042FA73
:1034C400DAF83840002C66D1042303223549DAF8AF
:1034D4000450CAF83C10DFF8D090DFF8D080344FA5
:1034E400344E0AF53B71CAE9B921CAF8E0422146D3
:1034F400EB600822C5E90044C5E904446C66AC608D
:10350400AC6105F15C00FFF7E9FEC5E90759C5E9BF
:103514000987EE6205F1580000F010FADAF8085055
:10352400254B2146EB600822C5E90044C5E9044463
:103534006C66AC60AC6105F15C00FFF7CFFEC5E9D9
:103544000759C5E90987EE6205F1580000F0F6F95C
:10355400DAF80C50194B2146EB600822C5E9004407
:10356400C5E904446C66AC60AC6105F15C00FFF72E
:10357400B5FE05F15800C5E90759C5E90A76C5F84D
:10358400248000F0DBF901230548CAF83830BDE88F
:10359400F04700F0D9B90248BDE8F04700F0D4B9CB
:1035A400E4090020AD340008494400086D440008D3
:1035B400AD440008CD4400080900010012000200D7
:1035C400014800F0BFB900BFE0090020014800F045
:1035D400BBB900BFE009002038B5084B084D5B1BA0
:1035E4009C1007D0043B1D44013C55F8043998470E
:1035F400002CF9D1BDE8384001F080BB944D00089F
:10360400904D00089368002B00F0B7802DE9F04F2F
:10361400B1F90C300C4619078046174683B098B2AE
:1036240025D523691BB310F002033D682DD04FF05C
:10363400000B5E46DFF8B8A2002E00F08B805645E2
:1036440033465A4628BF53464046E169D4F824C05D
:10365400E047002840F38780BB6883441B1A361A6E
:10366400BB60002BE8D1002003B0BDE8F08F2146F9
:10367400404600F043FF002840F03681B4F90C3096
:103684003D6898B210F00203D1D110F0010976D14F
:103694004E46002E5AD08205D4F808B040F1B580C9
:1036A400B3455A4600F2CD8010F4906F00F0CB8001
:1036B40023682169A3EB010B636903EB430A0AEB5B
:1036C400DA7A0BF101034FEA6A0A3344534552464E
:1036D40084BF9A465246430540F1EA80114640466B
:1036E40000F034F9002800F0F9805A46216901906D
:1036F400FCF796FDA289019B22F4906242F08002BD
:10370400A28103EB0B0023613246AAEB0B03B34601
:10371400C4F814A0A3602060B24600264946019272
:1037240000F008FCA3682168019AA3EB0B030A4488
:10373400A3602260B868D144A0EB0A00B8600028F6
:1037440091D0B4F90C0080B2002EA4D1D5E9009632
:1037540008359EE7D5E900B608356DE721464046B1
:1037640001F086F880B3B4F90C304FF0FF3043F029
:103774004003A38103B0BDE8F08F002070471E46CC
:10378400AA46994618461D4656B3002832D04A46E2
:1037940020682169B24228BF32468842636904D94D
:1037A400A16803EB010B5A4574DC934265DC2A469D
:1037B4004046E169D4F824C0E047B0F1000BD2DD03
:1037C400B9EB0B09CAD00120BB685D44A3EB0B0322
:1037D400A6EB0B06BB60002B3FF445AF002ED4D103
:1037E4000AF1080353F8046C9A4653F8085C08334A
:1037F400002EF7D032460A21284600F053FB002859
:1038040069D00130A0EB0509C1E72068236998421B
:103814001BD86369B34218D86FF0004CB44528BF75
:10382400B4469CFBF3FC4A4603FB0CF34046E169B7
:10383400D4F824C0E047B0F1000A94DDA6EB0A06F0
:1038440078E7B3463246206866E7B345DA4628BFD0
:10385400B2464946524600F06DFBA3682268A3EBCA
:103864000A035244A3602260002BE7D1214640465C
:1038740000F0FEFF0028E1D075E729469346019247
:1038840000F058FBA368019A9B1AA36023681A44AA
:10389400226095E729465A4600F04CFB23682146EE
:1038A4005B444046236000F0E3FF002888D05AE7D9
:1038B400404600F0C7FB034600287FF422AF404691
:1038C400216901F053F80C22B4F90C30C8F8002037
:1038D40023F0800349E7721C914659E70C22B4F99E
:1038E4000C30C8F8002040E74FF0FF30BCE600BFC2
:1038F40000FCFF7F2DE9F8434FF000090746884696
:1039040000F53876D6E90154013D10D4A389013D70
:10391400012B08D9B4F90E30013304D021463846BE
:10392400C04749EA00096B1C04F16804EED136680B
:10393400002EE7D14846BDE8F88300BF704700BFBA
:10394400704700BF704700BF704700BF2DE9F04FBC
:1039540001F10B05162D064683B025D8102900F277
:10396400B88000F063FB102518224FF0020CB54F0D
:103974003A445368A2F108018B4200F0B7805A68B8
:10398400D96822F003021A449C683046E1608C60D6
:10399400516803F1080441F00101516000F04CFB4F
:1039A400204603B0BDE8F08F35F0070500F19180A3
:1039B400A94200F28E8000F039FBB5F5FC7FC0F01F
:1039C40094816B0A00F08C80042B00F26A81AB09AD
:1039D40003F1390C03F138044FEACC00994F384411
:1039E40043680838984206D10CE0002980F2268109
:1039F400DB68984206D05A6822F00302511B0F2953
:103A0400F3DDA4463C69DFF840E274457AD062688D
:103A140022F00302531B0F2B00F37681002BC7E91E
:103A240004EE80F26781B2F5007F80F019810121F4
:103A3400D30852090B4491407A6857F833000A437B
:103A440007EBC3010839A060E1607A6047F83340AE
:103A5400C46001214FEAAC039940914259D8114204
:103A640006D12CF0030C490011420CF1040CFAD0DD
:103A740007EBCC0948466446D0F80C80404508D191
:103A84001CE1002B80F22181D8F80C80404500F025
:103A94001581D8F8042022F00302531B0F2BF0DD0C
:103AA40008EB050145F00105C8F804503046D8E993
:103AB4000264F460A66043F00104C7E904114C6099
:103AC400C1E902EE48F8023000F0B6FA08F1080441
:103AD40002E00C2300243360204603B0BDE8F08FDD
:103AE4004FF400704FF0400C3F2477E7D3689A42BC
:103AF40008BF0CF1020C7FF442AF3C69DFF848E1E7
:103B0400744584D101217A684FEAAC03994091420B
:103B1400A5D9BC68636823F003094D4503D8A9EB14
:103B240005030F2B7ADCDFF824B1494BDBF80020C6
:103B34001B6801322B4404EB090A00F02F8103F5C2
:103B440080530F3323F47F6828F00F084146304632
:103B540000F066FC411C024600F0EF80824500F252
:103B6400EA803C4B196841440846196000F04981D9
:103B7400DBF80010019301311BBFA2EB0A0A504489
:103B8400CBF80020186012F0070B00F01181CBF184
:103B940008010A44CBF5805190440831A1EB080197
:103BA400C1F30B0A51463046009200F039FC421C26
:103BB400DDE9002300F04B81801A00EB0A08196844
:103BC40048F001005144BC42BA601960506000F0F2
:103BD4002481B9F10F0F40F222814FF0050E606885
:103BE400A9F10C0C2CF0070C00F0010040EA0C00C9
:103BF4006060BCF10F0F04EB0C00C0E901EE00F2B1
:103C04002E8114465068144B1A688A4238BF1960D2
:103C1400124B1A688A4238BF196090E0621943F067
:103C2400010345F0010565603046BA60083453600D
:103C340000F002FA204603B0BDE8F08FD9681A44B8
:103C4400A2E600BF3C0400204404002044080020F5
:103C5400180A0020E8090020100A0020140A002095
:103C6400B2F5206F4FEA52235FD3142B00F2B180D8
:103C740003F15C01C9005B3378187958083888422D
:103C840000F08F804B6823F00303934202D98968C4
:103C94008842F7D1C8687A68C4E902108460CC60AD
:103CA400D7E6142B59D9542B00F29B802B0B03F12C
:103CB4006F0C03F16E044FEACC008FE60134A307C6
:103CC40000F108007FF4D8AE53E044464244536800
:103CD400D8F80C1043F00103536054F8083F304601
:103CE400D9608B6000F0A8F9F6E64FEAD50C05F12F
:103CF40008023CE622445368304643F00103536013
:103D040000F09AF90834E7E6611945F001056560A9
:103D140043F00105C7E904113046C1E902EE4D60E4
:103D2400A35000F089F90834D6E6930903F1390168
:103D3400C9003833A0E7BC425ED0BC68606820F09C
:103D440003084545A8EB050302D80F2B3FF766AFE0
:103D5400304600F071F90024BEE603F15C0C03F177
:103D64005B044FEACC0039E659F808394B4540F07A
:103D740095801CF0030F0CF1FF3CF5D17B6823EA1E
:103D840001037B60490099423FF6C3AE11B9C0E616
:103D9400490004341942FBD0A44669E603F1100833
:103DA400D4E601229B109A407B681A437A6073E739
:103DB40002EB08014942C1F30B0A51463046009216
:103DC40000F02EFB431CDDE900237FF4F5AEDA4658
:103DD400F5E6542B26D8130B03F16F01C9006E339B
:103DE4004AE7B3F5AA7F26D8EB0B03F1780C03F16D
:103DF40077044FEACC00F1E5294B18684044186079
:103E0400B6E6CAF30B0CBCF1000F7FF4B1AEBC688C
:103E1400C84448F001006060F5E61446F3E6012367
:103E2400536095E7B3F5AA7F24D8D30B03F1780147
:103E3400C900773320E740F25452934224D8AB0CA4
:103E440003F17D0C03F17C044FEACC00C6E5ABF131
:103E5400080BD8444FF0000AA8EB0208AFE604F1BF
:103E640008013046009300F081FDBC68009B606847
:103E74001968C8E640F254518B420BD8930C03F1F5
:103E84007D01C9007C33F7E64FF47E704FF07F0C60
:103E94007E24A3E54FF47E717E23EDE67B6871E713
:103EA400E80900205FFA81FC810710D00346511E07
:103EB4002AB90AE09A0718460AD0013905D31846E8
:103EC40013F8012B6245F5D1704700207047114665
:103ED40003290CD80029F8D00346014401E08B42A1
:103EE400F3D0184613F8012B6245F8D1ECE70246EB
:103EF40010B54CEA0C2444EA044410460368043226
:103F04006340A3F1013E2EEA030313F0803F04D182
:103F1400043903291046F0D851B10346014401E0A5
:103F24008B4205D0184613F8012B6245F8D110BD19
:103F3400002010BD88420DD98B1883420AD900EBAA
:103F4400020CBAB1624613F801CD994202F801CDD0
:103F5400F9D170470F2A0ED8034602F1FF3C4AB14B
:103F64000CF1010C013B8C4411F8012B614503F861
:103F7400012FF9D1704740EA01039B074FD1A2F109
:103F8400100370B501F1200C23F00F0501F1100EA0
:103F940000F11004AC441B095EF8105C0EF1100E25
:103FA40044F8105C5EF81C5C103444F81C5C5EF849
:103FB400185C44F8185C5EF8145CE64544F8145C3C
:103FC400EAD1013312F00C0F01EB031102F00F04DC
:103FD40000EB031327D08E46043C24F003064FEA7B
:103FE400940C1E441C1F5EF8045B44F8045FB44246
:103FF400F9D10CF1010402F0030203EB840301EB99
:10400400840102F1FF3C4AB10CF1010C013B8C44E8
:1040140011F8012B614503F8012FF9D170BD034656
:1040240002F1FF3C9CE72246EBE700BF0148FFF7A3
:1040340089BC00BFDC0900200148FFF785BC00BF34
:10404400DC0900202DE9F84F1646002900F098807D
:1040540006F10B0580460C46FFF7E8FF162D5DD8E8
:1040640010252A46AE425ED854F8041CA4F108096F
:1040740021F00307974262DABC4B09EB0700D3F83F
:1040840008C0844500F09780D0F804C02CF00103E8
:1040940003445B68DB0768D42CF0030C07EB0C03C8
:1040A400934247DACB0710D454F8083CA9EB030A2F
:1040B400DAF8043023F003018C44BC44944580F2C4
:1040C40011817B18934280F2E88031464046FFF725
:1040D4003DFC0646E0B154F8043CA0F1080223F08C
:1040E40001034B44934200F0D2803A1F242A00F289
:1040F400F580132A00F2AC80034622461168196049
:104104005168596092689A602146404600F02EFC3E
:104114004046FFF791FF3046BDE8F88F25F00705CC
:10412400002D2A469EDA0C230026C8F800303046BB
:10413400BDE8F88F1F46D0E90223D3609A607B1B49
:104144000F2B22D8D9F8043003F001033B43C9F8FC
:1041540004304F447B6843F001037B6026464046AD
:10416400FFF76AFF3046BDE8F88FC907ADD454F8AD
:10417400083CA9EB030ADAF8041021F00301A0E7D4
:104184001146BDE8F84FFFF7E1BBD9F8041043F03E
:10419400010301F001012943C9F8041009EB0501E9
:1041A4004B604F447B68404643F0010308317B6019
:1041B40000F0DCFBD2E7DCF8040020F0030B07EB93
:1041C4000B0C05F1100084454DDAC9073FF57DAFAE
:1041D40054F8081CA9EB010ADAF8041021F00301D1
:1041E4008B44BB4458453FF76CAF5646DAF80C1085
:1041F40056F8080F3A1F242AC160886000F2DB8059
:10420400132A40F2D68021681B2ACAF80810616874
:10421400CAF80C1000F2E08008340AF11002216898
:10422400116061685160A1689160ABEB05020AEB13
:10423400050142F0010299604A60DAF80430404610
:1042440003F001031D43CAF80450FFF7F5FE6EE7BF
:1042540023681B2A03606368436068D804F108027A
:1042640000F108034AE709EB0502ACEB050C9A6080
:104274004CF00103536054F8043C404603F001033E
:104284001D4344F8045CFFF7D7FE26464FE750F879
:10429400043C23F003031F4451E75646DAF80C109C
:1042A40056F8080F3A1F242AC16088604CD8132A94
:1042B40048D921681B2ACAF808106168CAF80C108A
:1042C40056D808340AF110021F462368D1461360F9
:1042D40063685360A3683446936030E72146FFF770
:1042E40029FE11E75646D0E90213CB60996056F8CF
:1042F400081FDAF80C303A1F242ACB6099602DD8B5
:10430400132A29D923681B2ACAF808306368CAF813
:104314000C3042D808340AF11003226867461A6048
:104324006268D1465A60A26834469A6007E7A36877
:10433400242A8360E368C36026D004F1100200F1EC
:104344001003DBE63246BFE7214630461F46D1461E
:10435400FFF7F0FD3446F2E63346DEE72146304609
:104364006746D146FFF7E6FD3446E8E63C04002004
:10437400A168242ACAF81010E168CAF8141020D0E1
:1043840010340AF118029FE7236904F1180203614B
:104394006369436100F11803B0E6A368242ACAF8EC
:1043A4001030E368CAF8143022D010340AF118032C
:1043B400B3E7324633E721463046FFF7BBFD174BE0
:1043C40033E722691834CAF8182054F8042CCAF8C0
:1043D4001C200AF1200277E7A168242ACAF81010E9
:1043E400E168CAF814100ED010340AF1180216E766
:1043F40023691834CAF8183054F8043CCAF81C303D
:104404000AF1200389E722691834CAF8182054F8FD
:10441400042CCAF81C200AF1200200E73C04002006
:10442400002238B5064D044608462A60FCF76AF9AE
:10443400431C00D038BD2B68002BFBD0236038BD53
:104444001C0A002010B50C46B1F90E1000F014FC43
:10445400002803DB236D0344236510BDA38923F4E3
:104464008053A38110BD00BF2DE9F0410C46B1F982
:104474000C101F46CB05054616460BD421F480517B
:10448400A1813B4632462846B4F90E10BDE8F041FE
:1044940000F01EB8B4F90E100223002200F066FBEF
:1044A400B4F90C10EAE700BF10B50C46B1F90E10D0
:1044B40000F05CFBA389421C0EBF23F4805343F439
:1044C40080532065A38110BDB1F90E1000F0C6B869
:1044D40038B50C46114600228446074D20462A6012
:1044E4001A466446FCF7F4F8431C00D038BD2B6828
:1044F400002BFBD0236038BD1C0A002038B5334B99
:1045040005461B680C460BB19A6B12B3B4F90C3018
:1045140018079AB225D5216900292DD012F001007F
:1045240007D000256069A5604042A06139B1002030
:1045340038BD950758BF6069A0600029F7D11206FD
:1045440058BF0846F4D543F040034FF0FF30A38131
:1045540038BD1846FEF7AEFFB4F90C3018079AB20E
:10456400D9D4D1062AD5520714D4216943F00803BB
:10457400A3819AB20029D1D102F42070B0F5007F52
:10458400CCD02146284600F007FBB4F90C30216951
:104594009AB2C3E7216B51B104F14002914204D0B5
:1045A400284600F0E3F9B4F90C300022226300221B
:1045B400216923F02403C4E90012D7E7092243F058
:1045C40040032A604FF0FF30A38138BD0C00002067
:1045D4002DE9F047DFF87CA00646DAF8000098469B
:1045E4000F469146FFF7AEF91B4B1B68D3F84841C1
:1045F40024B365681F2D26DC5EB96B1C0235DAF81E
:104604000000636044F82570FFF79EF90020BDE8C0
:10461400F087012304EB8501C1F88890D4F8882140
:10462400AB401A43022EC4F88821C1F80881E4D1B2
:10463400D4F88C211343C4F88C31DEE703F5A67457
:10464400C3F84841D5E7DAF80000FFF77DF94FF0E9
:10465400FF30DCE738040020804D0008002238B524
:10466400064D044608462A60FCF740F8431C00D077
:1046740038BD2B68002BFBD0236038BD1C0A0020FA
:1046840070B500294BD006460C4610B1836B002B45
:1046940048D0636ED80734D5B4F90C30002B3ED023
:1046A4002146304600F052F8E36A054633B13046FD
:1046B400E16998470028B8BF4FF0FF35A3891A066F
:1046C4003BD4216B41B104F14003994202D03046FE
:1046D40000F04CF900232363616C21B1304600F0F3
:1046E40045F900236364FEF76BFF0022636EA28129
:1046F400DB0727D5A06DFFF723F9FEF767FF2846F0
:1047040070BDA3899905CBD4A06DFFF71BF9B4F94B
:104714000C30002BC4D1656E15F0010508D00025BE
:10472400284670BDFEF7C6FE636ED807B4D4E8E72A
:10473400A06DFFF709F9284670BD3046216900F0E5
:1047440015F9BEE7A06DFFF7FFF8D3E7B1F90C2028
:10475400F8B50C461107074643D4636842F4006277
:10476400002BA2815BDDA56A002D56D000233E6894
:104774003B6093B212F4805255D101233846E1696B
:10478400A847421C65D0A389A56A5B0705D5636861
:10479400C01A236B0BB1E36BC01A0246E169002314
:1047A4003846A847411C40D13B68002B3DD01D2B07
:1047B40001D0162B54D10022A38923F40063A381D2
:1047C4002369C4E90032216B3E6031B304F1400334
:1047D400994202D0384600F0C9F8002318462363F2
:1047E400F8BD2669CEB193B29A0718BF0023256895
:1047F40008BF63692660AD1BA3600CE02B463246FC
:10480400D4F824C03846E169E047B0F1000CA5EBC8
:104814000C05664416DD002DF0DC0020F8BDE36BCA
:10482400002BA0DCF9E7206DAFE70022B4F90C30CF
:10483400626023F400632269A381DB042260C2D591
:104844002065C0E7A3894FF0FF3043F04003A38104
:10485400F8BD3B68002B96D01D2B06D0162B04D038
:10486400A38943F04003A381F8BD00203E60F8BD56
:1048740038B505460C4608B1836BA3B1B4F90C00F6
:10488400B8B1636EDB0701D4810515D528462146EE
:10489400FFF75CFF636E0546DA0702D4A3899B0524
:1048A4000ED5284638BDFEF705FEB4F90C000028E5
:1048B400E7D10546284638BDA06DFFF743F8E5E784
:1048C400A06DFFF741F8284638BD00BFF8B50C4687
:1048D400234F0646FFF7AAFBBB685D68C4F57E63F9
:1048E40025F003050F332B4423F47F6323F00F03D8
:1048F400A3F58054B4F5805F07DB00213046FFF751
:104904008FFDBB682B44984204D03046FFF794FBDC
:104914000020F8BD30466142FFF782FD01300DD022
:10492400104ABB682D1B45F001055D6013683046D5
:104934001B1B1360FFF780FB0120F8BD00213046EC
:10494400FFF76EFDBA68831A0F2BDEDD43F0010317
:104954005360054B03491B68C01A0860D5E700BFC4
:104964003C040020E80900204408002000295ED00F
:10497400F8B50C460646FFF759FB54F8042C784F5B
:10498400A4F1080522F001016818D7F808C04368AB
:10499400844523F0030300F08780D207436034D4B6
:1049A40054F8082C07F10804AD1A1144AA68A2426D
:1049B40068D000EB030CDCF804E0D5F80CC01EF062
:1049C400010FC2F80CC0CCF8082000F0918041F02F
:1049D40001036B600160B1F5007F31D24A09CB0855
:1049E400012191407A6801331143796007EBC302D6
:1049F40057F83310083AC5E9021247F83350CD602E
:104A04003046BDE8F840FFF717BBC2185268D2071A
:104A14000ED4194407F108048368A34270D0C26815
:104A2400DA60936041F001036B606950D3E770472B
:104A340041F00103B1F5007F44F8043C0160CDD39B
:104A4400B1F5206F4FEA512347D28B0903F13900A6
:104A540003F13802C300F818FB580838984258D0BC
:104A64005A6822F003028A4202D99B689842F7D11D
:104A7400D868C5E9023085603046DD60BDE8F8409D
:104A8400FFF7DABAC2185268D20763D40B44D0E9EC
:104A94000212CA60916043F001026A603046EB5032
:104AA400BDE8F840FFF7C8BA0B44D10707D454F85F
:104AB400082CAD1A1344D5E90212CA60916043F080
:104AC40001026A60274ABD6012689A4298D8264B50
:104AD40030461968FFF7FAFE92E7142B0AD9542BD3
:104AE4001FD80B0B03F16F0003F16E02C300B2E792
:104AF400194491E703F15C0003F15B02C300AAE7E8
:104B040041F00103C7E90455C5E902446B606950EB
:104B140076E70121921001FA02F279680A437A6079
:104B2400A7E7B3F5AA7F06D8CB0B03F1780003F10E
:104B34007702C3008FE740F25452934206D88B0C9D
:104B440003F17D0003F17C02C30084E74FF47E731C
:104B54007E2280E741F001036B60016050E700BFF3
:104B64003C04002048080020180A002038B50C46F0
:104B7400114600228446074D20462A601A466446A0
:104B8400FBF7BEFD431C00D038BD2B68002BFBD0C7
:104B9400236038BD1C0A00202DE9F0418B890C46A6
:104BA400990796B008D5012204F14303C4E90432FD
:104BB400236016B0BDE8F081B4F90E100646002952
:104BC40027DB6A4600F06EF8002821DB019D4FF4D4
:104BD400806805F47045A5F50055B5FA85F54FF4E0
:104BE40000676D0941463046FEF7B0FEB4F90C305B
:104BF400F0B1204A43F08003F263C4F81480A38127
:104C04002060206135BB3B43A38116B0BDE8F08131
:104C1400A38913F0800519D04FF04008304641466F
:104C24000025FEF793FE2F46B4F90C300028E0D19E
:104C34009A05BED4012123F0030304F1430243F097
:104C44000203C4E90421A3812260B2E74FF480681F
:104C54002F46C7E73046B4F90E1000F037F810B904
:104C6400B4F90C30CFE7A38923F0030343F0010325
:104C74001BB2C8E7AD34000838B50C461146002213
:104C84008446074D20462A601A466446FBF710FD09
:104C9400431C00D038BD2B68002BFBD0236038BDEB
:104CA4001C0A002070B50026074D0446084611462C
:104CB4002E60FBF71EFD431C00D070BD2B68002B3B
:104CC400FBD0236070BD00BF1C0A0020002238B551
:104CD400064D044608462A60FBF710FD431C00D02D
:104CE40038BD2B68002BFBD0236038BD1C0A002084
:104CF400F8B500BFF8BC08BC9E467047F8B500BFC5
:084D0400F8BC08BC9E46704794
:104D0C00C9E8B1B8B3F5CABCBBAF0000D0B4C8EBAE
:104D1C00CAFDBEDDB3C9B9A621000000D0B4C8EBF2
:104D2C00CAA7B0DC00000000B6C1C8A1B3C9B9A6BF
:104D3C0021000000B6C1C8A1CAA7B0DC0000000069
:104D4C000102030405000000000000000000000048
:104D5C000102030406070809000000000102030415
:104D6C0002030405060708090A0B0C0D0E0F1010A0
:0C4D7C0000000000100000200A000000F1
:084D88008D3400080902000847
:044D9000E501000831
:104D94000024F400010000001000000010000020B6
:104DA40000000000FC02002064030020CC0300206B
:104DB40000000000000000000000000000000000EF
:104DC40000000000000000000000000000000000DF
:104DD40000000000000000000000000000000000CF
:104DE40000000000000000000000000000000000BF
:104DF40000000000000000000000000000000000AF
:104E0400000000000000000000000000000000009E
:104E1400000000000000000000000000000000008E
:104E2400000000000000000000000000000000007E
:104E3400000000000000000000000000000000006E
:104E4400000000000000000001000000000000005D
:104E54000E33CDAB34126DE6ECDE05000B00000022
:104E6400000000000000000000000000000000003E
:104E7400000000000000000000000000000000002E
:104E8400000000000000000000000000000000001E
:104E9400000000000000000000000000000000000E
:1051C4000000000000000000D809002000000000DA
:1051D400000000003C0400203C04002044040020A3
:1051E400440400204C0400204C04002054040020FB
:1051F400540400205C0400205C04002064040020AB
:10520400640400206C0400206C040020740400205A
:10521400740400207C0400207C040020840400200A
:10522400840400208C0400208C04002094040020BA
:10523400940400209C0400209C040020A40400206A
:10524400A4040020AC040020AC040020B40400201A
:10525400B4040020BC040020BC040020C4040020CA
:10526400C4040020CC040020CC040020D40400207A
:10527400D4040020DC040020DC040020E40400202A
:10528400E4040020EC040020EC040020F4040020DA
:10529400F4040020FC040020FC0400200405002089
:1052A400040500200C0500200C0500201405002036
:1052B400140500201C0500201C05002024050020E6
:1052C400240500202C0500202C0500203405002096
:1052D400340500203C0500203C0500204405002046
:1052E400440500204C0500204C05002054050020F6
:1052F400540500205C0500205C05002064050020A6
:10530400640500206C0500206C0500207405002055
:10531400740500207C0500207C0500208405002005
:10532400840500208C0500208C05002094050020B5
:10533400940500209C0500209C050020A405002065
:10534400A4050020AC050020AC050020B405002015
:10535400B4050020BC050020BC050020C4050020C5
:10536400C4050020CC050020CC050020D405002075
:10537400D4050020DC050020DC050020E405002025
:10538400E4050020EC050020EC050020F4050020D5
:10539400F4050020FC050020FC0500200406002084
:1053A400040600200C0600200C0600201406002031
:1053B400140600201C0600201C06002024060020E1
:1053C400240600202C0600202C0600203406002091
:1053D400340600203C0600203C0600204406002041
:1053E400440600204C0600204C06002054060020F1
:1053F400540600205C0600205C06002064060020A1
:10540400640600206C0600206C0600207406002050
:10541400740600207C0600207C0600208406002000
:10542400840600208C0600208C06002094060020B0
:10543400940600209C0600209C060020A406002060
:10544400A4060020AC060020AC060020B406002010
:10545400B4060020BC060020BC060020C4060020C0
:10546400C4060020CC060020CC060020D406002070
:10547400D4060020DC060020DC060020E406002020
:10548400E4060020EC060020EC060020F4060020D0
:10549400F4060020FC060020FC060020040700207F
:1054A400040700200C0700200C070020140700202C
:1054B400140700201C0700201C07002024070020DC
:1054C400240700202C0700202C070020340700208C
:1054D400340700203C0700203C070020440700203C
:1054E400440700204C0700204C07002054070020EC
:1054F400540700205C0700205C070020640700209C
:10550400640700206C0700206C070020740700204B
:10551400740700207C0700207C07002084070020FB
:10552400840700208C0700208C07002094070020AB
:10553400940700209C0700209C070020A40700205B
:10554400A4070020AC070020AC070020B40700200B
:10555400B4070020BC070020BC070020C4070020BB
:10556400C4070020CC070020CC070020D40700206B
:10557400D4070020DC070020DC070020E40700201B
:10558400E4070020EC070020EC070020F4070020CB
:10559400F4070020FC070020FC070020040800207A
:1055A400040800200C0800200C0800201408002027
:1055B400140800201C0800201C08002024080020D7
:1055C400240800202C0800202C0800203408002087
:0C55D40034080020FFFFFFFF0000020071
:04000005080009598D
:00000001FF
